{
  "_format": "hh3-artifact-1",
  "contractName": "PokemonFTCG",
  "sourceName": "contracts/pokemonsc.sol",
  "abi": [
    {
      "inputs": [
        {
          "internalType": "address",
          "name": "_yodaTokenAddr",
          "type": "address"
        }
      ],
      "stateMutability": "nonpayable",
      "type": "constructor"
    },
    {
      "anonymous": false,
      "inputs": [
        {
          "indexed": true,
          "internalType": "address",
          "name": "owner",
          "type": "address"
        },
        {
          "indexed": true,
          "internalType": "address",
          "name": "buyer",
          "type": "address"
        },
        {
          "indexed": false,
          "internalType": "uint256",
          "name": "tokenId",
          "type": "uint256"
        }
      ],
      "name": "Approval",
      "type": "event"
    },
    {
      "anonymous": false,
      "inputs": [
        {
          "indexed": true,
          "internalType": "address",
          "name": "owner",
          "type": "address"
        },
        {
          "indexed": true,
          "internalType": "address",
          "name": "operator",
          "type": "address"
        },
        {
          "indexed": false,
          "internalType": "bool",
          "name": "approved",
          "type": "bool"
        }
      ],
      "name": "ApprovedForAll",
      "type": "event"
    },
    {
      "anonymous": false,
      "inputs": [
        {
          "indexed": false,
          "internalType": "uint256",
          "name": "tokenId",
          "type": "uint256"
        },
        {
          "indexed": false,
          "internalType": "address",
          "name": "winner",
          "type": "address"
        },
        {
          "indexed": false,
          "internalType": "uint256",
          "name": "amount",
          "type": "uint256"
        }
      ],
      "name": "AuctionEnded",
      "type": "event"
    },
    {
      "anonymous": false,
      "inputs": [
        {
          "indexed": false,
          "internalType": "uint256",
          "name": "tokenId",
          "type": "uint256"
        },
        {
          "indexed": false,
          "internalType": "uint256",
          "name": "startingBid",
          "type": "uint256"
        },
        {
          "indexed": false,
          "internalType": "uint256",
          "name": "endTime",
          "type": "uint256"
        }
      ],
      "name": "AuctionStarted",
      "type": "event"
    },
    {
      "anonymous": false,
      "inputs": [
        {
          "indexed": false,
          "internalType": "uint256",
          "name": "tokenId",
          "type": "uint256"
        },
        {
          "indexed": false,
          "internalType": "uint256",
          "name": "price",
          "type": "uint256"
        },
        {
          "indexed": false,
          "internalType": "address",
          "name": "seller",
          "type": "address"
        }
      ],
      "name": "CardListed",
      "type": "event"
    },
    {
      "anonymous": false,
      "inputs": [
        {
          "indexed": false,
          "internalType": "uint256",
          "name": "tokenId",
          "type": "uint256"
        },
        {
          "indexed": false,
          "internalType": "string",
          "name": "name",
          "type": "string"
        },
        {
          "indexed": false,
          "internalType": "address",
          "name": "owner",
          "type": "address"
        }
      ],
      "name": "CardMinted",
      "type": "event"
    },
    {
      "anonymous": false,
      "inputs": [
        {
          "indexed": false,
          "internalType": "uint256",
          "name": "tokenId",
          "type": "uint256"
        },
        {
          "indexed": false,
          "internalType": "address",
          "name": "buyer",
          "type": "address"
        },
        {
          "indexed": false,
          "internalType": "uint256",
          "name": "price",
          "type": "uint256"
        }
      ],
      "name": "CardPurchased",
      "type": "event"
    },
    {
      "anonymous": false,
      "inputs": [
        {
          "indexed": false,
          "internalType": "uint256",
          "name": "tokenId",
          "type": "uint256"
        },
        {
          "indexed": false,
          "internalType": "address",
          "name": "bidder",
          "type": "address"
        },
        {
          "indexed": false,
          "internalType": "uint256",
          "name": "amount",
          "type": "uint256"
        }
      ],
      "name": "NewBid",
      "type": "event"
    },
    {
      "anonymous": false,
      "inputs": [
        {
          "indexed": true,
          "internalType": "address",
          "name": "from",
          "type": "address"
        },
        {
          "indexed": true,
          "internalType": "address",
          "name": "to",
          "type": "address"
        },
        {
          "indexed": false,
          "internalType": "uint256",
          "name": "tokenId",
          "type": "uint256"
        }
      ],
      "name": "Transfer",
      "type": "event"
    },
    {
      "inputs": [],
      "name": "_nextTokenId",
      "outputs": [
        {
          "internalType": "uint256",
          "name": "",
          "type": "uint256"
        }
      ],
      "stateMutability": "view",
      "type": "function"
    },
    {
      "inputs": [
        {
          "internalType": "uint256",
          "name": "",
          "type": "uint256"
        }
      ],
      "name": "activeAuctions",
      "outputs": [
        {
          "internalType": "uint256",
          "name": "",
          "type": "uint256"
        }
      ],
      "stateMutability": "view",
      "type": "function"
    },
    {
      "inputs": [
        {
          "internalType": "uint256",
          "name": "",
          "type": "uint256"
        }
      ],
      "name": "auctions",
      "outputs": [
        {
          "internalType": "uint256",
          "name": "startingPrice",
          "type": "uint256"
        },
        {
          "internalType": "uint256",
          "name": "currentPrice",
          "type": "uint256"
        },
        {
          "internalType": "uint256",
          "name": "endTime",
          "type": "uint256"
        },
        {
          "internalType": "address",
          "name": "highestBidder",
          "type": "address"
        },
        {
          "internalType": "uint256",
          "name": "highestBid",
          "type": "uint256"
        },
        {
          "internalType": "uint256",
          "name": "tokenId",
          "type": "uint256"
        },
        {
          "internalType": "address",
          "name": "seller",
          "type": "address"
        },
        {
          "internalType": "bool",
          "name": "active",
          "type": "bool"
        },
        {
          "internalType": "bool",
          "name": "ended",
          "type": "bool"
        },
        {
          "internalType": "bool",
          "name": "claimed",
          "type": "bool"
        },
        {
          "internalType": "bool",
          "name": "refunded",
          "type": "bool"
        }
      ],
      "stateMutability": "view",
      "type": "function"
    },
    {
      "inputs": [
        {
          "internalType": "uint256",
          "name": "cardId",
          "type": "uint256"
        }
      ],
      "name": "buyCard",
      "outputs": [],
      "stateMutability": "nonpayable",
      "type": "function"
    },
    {
      "inputs": [
        {
          "internalType": "uint256",
          "name": "tokenId",
          "type": "uint256"
        }
      ],
      "name": "cancelListing",
      "outputs": [],
      "stateMutability": "nonpayable",
      "type": "function"
    },
    {
      "inputs": [
        {
          "internalType": "string",
          "name": "",
          "type": "string"
        }
      ],
      "name": "cardToImage",
      "outputs": [
        {
          "internalType": "string",
          "name": "",
          "type": "string"
        }
      ],
      "stateMutability": "view",
      "type": "function"
    },
    {
      "inputs": [
        {
          "internalType": "uint256",
          "name": "",
          "type": "uint256"
        }
      ],
      "name": "cards",
      "outputs": [
        {
          "internalType": "string",
          "name": "name",
          "type": "string"
        },
        {
          "internalType": "uint256",
          "name": "attack",
          "type": "uint256"
        },
        {
          "internalType": "uint256",
          "name": "defense",
          "type": "uint256"
        },
        {
          "internalType": "uint256",
          "name": "hp",
          "type": "uint256"
        },
        {
          "internalType": "uint8",
          "name": "rarity",
          "type": "uint8"
        },
        {
          "internalType": "bool",
          "name": "Shiny",
          "type": "bool"
        }
      ],
      "stateMutability": "view",
      "type": "function"
    },
    {
      "inputs": [
        {
          "internalType": "uint256",
          "name": "tokenId",
          "type": "uint256"
        }
      ],
      "name": "claimNFT",
      "outputs": [],
      "stateMutability": "nonpayable",
      "type": "function"
    },
    {
      "inputs": [],
      "name": "contractOwner",
      "outputs": [
        {
          "internalType": "address",
          "name": "",
          "type": "address"
        }
      ],
      "stateMutability": "view",
      "type": "function"
    },
    {
      "inputs": [
        {
          "internalType": "uint256",
          "name": "tokenId",
          "type": "uint256"
        }
      ],
      "name": "endAuction",
      "outputs": [],
      "stateMutability": "nonpayable",
      "type": "function"
    },
    {
      "inputs": [],
      "name": "getActiveAuctions",
      "outputs": [
        {
          "internalType": "uint256[]",
          "name": "",
          "type": "uint256[]"
        }
      ],
      "stateMutability": "view",
      "type": "function"
    },
    {
      "inputs": [
        {
          "internalType": "uint256",
          "name": "tokenId",
          "type": "uint256"
        }
      ],
      "name": "getAuctionWinner",
      "outputs": [
        {
          "internalType": "address",
          "name": "",
          "type": "address"
        },
        {
          "internalType": "uint256",
          "name": "",
          "type": "uint256"
        }
      ],
      "stateMutability": "view",
      "type": "function"
    },
    {
      "inputs": [
        {
          "internalType": "uint256",
          "name": "tokenId",
          "type": "uint256"
        }
      ],
      "name": "getListing",
      "outputs": [
        {
          "internalType": "uint256",
          "name": "price",
          "type": "uint256"
        },
        {
          "internalType": "address",
          "name": "seller",
          "type": "address"
        }
      ],
      "stateMutability": "view",
      "type": "function"
    },
    {
      "inputs": [
        {
          "internalType": "address",
          "name": "",
          "type": "address"
        },
        {
          "internalType": "address",
          "name": "",
          "type": "address"
        }
      ],
      "name": "isApprovedForAll",
      "outputs": [
        {
          "internalType": "bool",
          "name": "",
          "type": "bool"
        }
      ],
      "stateMutability": "view",
      "type": "function"
    },
    {
      "inputs": [
        {
          "internalType": "uint256",
          "name": "cardId",
          "type": "uint256"
        },
        {
          "internalType": "uint256",
          "name": "price",
          "type": "uint256"
        }
      ],
      "name": "listCard",
      "outputs": [],
      "stateMutability": "nonpayable",
      "type": "function"
    },
    {
      "inputs": [
        {
          "internalType": "uint256",
          "name": "",
          "type": "uint256"
        }
      ],
      "name": "listings",
      "outputs": [
        {
          "internalType": "uint256",
          "name": "price",
          "type": "uint256"
        },
        {
          "internalType": "address",
          "name": "seller",
          "type": "address"
        }
      ],
      "stateMutability": "view",
      "type": "function"
    },
    {
      "inputs": [
        {
          "internalType": "address",
          "name": "to",
          "type": "address"
        },
        {
          "internalType": "string",
          "name": "name",
          "type": "string"
        },
        {
          "internalType": "uint256",
          "name": "attack",
          "type": "uint256"
        },
        {
          "internalType": "uint256",
          "name": "defense",
          "type": "uint256"
        },
        {
          "internalType": "uint256",
          "name": "hp",
          "type": "uint256"
        },
        {
          "internalType": "uint8",
          "name": "rarity",
          "type": "uint8"
        },
        {
          "internalType": "bool",
          "name": "shiny",
          "type": "bool"
        }
      ],
      "name": "mintCard",
      "outputs": [],
      "stateMutability": "nonpayable",
      "type": "function"
    },
    {
      "inputs": [],
      "name": "mintPrice",
      "outputs": [
        {
          "internalType": "uint256",
          "name": "",
          "type": "uint256"
        }
      ],
      "stateMutability": "view",
      "type": "function"
    },
    {
      "inputs": [
        {
          "internalType": "uint256",
          "name": "tokenId",
          "type": "uint256"
        }
      ],
      "name": "ownerOf",
      "outputs": [
        {
          "internalType": "address",
          "name": "",
          "type": "address"
        }
      ],
      "stateMutability": "view",
      "type": "function"
    },
    {
      "inputs": [
        {
          "internalType": "uint256",
          "name": "tokenId",
          "type": "uint256"
        },
        {
          "internalType": "uint256",
          "name": "amount",
          "type": "uint256"
        }
      ],
      "name": "placeBid",
      "outputs": [],
      "stateMutability": "nonpayable",
      "type": "function"
    },
    {
      "inputs": [
        {
          "internalType": "uint256",
          "name": "tokenId",
          "type": "uint256"
        }
      ],
      "name": "refundBids",
      "outputs": [],
      "stateMutability": "nonpayable",
      "type": "function"
    },
    {
      "inputs": [
        {
          "internalType": "uint256",
          "name": "tokenId",
          "type": "uint256"
        },
        {
          "internalType": "uint256",
          "name": "startingPrice",
          "type": "uint256"
        },
        {
          "internalType": "uint256",
          "name": "duration",
          "type": "uint256"
        }
      ],
      "name": "startAuction",
      "outputs": [],
      "stateMutability": "nonpayable",
      "type": "function"
    },
    {
      "inputs": [],
      "name": "yodaToken",
      "outputs": [
        {
          "internalType": "contract IERC20",
          "name": "",
          "type": "address"
        }
      ],
      "stateMutability": "view",
      "type": "function"
    }
  ],
  "bytecode": "0x608060405234801561000f575f5ffd5b50604051613bcf380380613bcf83398181016040528101906100319190610114565b805f5f6101000a81548173ffffffffffffffffffffffffffffffffffffffff021916908373ffffffffffffffffffffffffffffffffffffffff1602179055503360015f6101000a81548173ffffffffffffffffffffffffffffffffffffffff021916908373ffffffffffffffffffffffffffffffffffffffff1602179055505061013f565b5f5ffd5b5f73ffffffffffffffffffffffffffffffffffffffff82169050919050565b5f6100e3826100ba565b9050919050565b6100f3816100d9565b81146100fd575f5ffd5b50565b5f8151905061010e816100ea565b92915050565b5f60208284031215610129576101286100b6565b5b5f61013684828501610100565b91505092915050565b613a838061014c5f395ff3fe608060405234801561000f575f5ffd5b506004361061014b575f3560e01c8063790d8596116100c1578063ce606ee01161007a578063ce606ee0146103ce578063cf44b5d5146103ec578063de74e57b1461040a578063e985e9c51461043b578063ed36c52f1461046b578063fe5c873a146104875761014b565b8063790d8596146102f75780638dc107681461032757806391e078bb1461035c578063b9a2de3a14610378578063c70f5eaa14610394578063cdc64538146103b05761014b565b80633f7e2cec116101135780633f7e2cec146102055780634a60f62014610235578063571a26a01461025357806357c90de51461028d5780636352211e146102a95780636817c76c146102d95761014b565b8063083d353b1461014f578063107a274a14610180578063305a67a8146101b157806331b62fca146101cd5780633b20340a146101e9575b5f5ffd5b61016960048036038101906101649190612518565b6104a3565b604051610177929190612591565b60405180910390f35b61019a60048036038101906101959190612518565b610665565b6040516101a89291906125b8565b60405180910390f35b6101cb60048036038101906101c69190612518565b6106f7565b005b6101e760048036038101906101e291906127b0565b6107a4565b005b61020360048036038101906101fe9190612518565b610953565b005b61021f600480360381019061021a9190612869565b610a6a565b60405161022c9190612910565b60405180910390f35b61023d610b1d565b60405161024a9190612930565b60405180910390f35b61026d60048036038101906102689190612518565b610b23565b6040516102849b9a99989796959493929190612958565b60405180910390f35b6102a760048036038101906102a29190612a01565b610beb565b005b6102c360048036038101906102be9190612518565b610f6b565b6040516102d09190612a3f565b60405180910390f35b6102e1610fa4565b6040516102ee9190612930565b60405180910390f35b610311600480360381019061030c9190612518565b610faa565b60405161031e9190612930565b60405180910390f35b610341600480360381019061033c9190612518565b610fca565b60405161035396959493929190612a67565b60405180910390f35b61037660048036038101906103719190612acd565b6110a1565b005b610392600480360381019061038d9190612518565b611493565b005b6103ae60048036038101906103a99190612518565b6115de565b005b6103b8611b7d565b6040516103c59190612b78565b60405180910390f35b6103d6611ba1565b6040516103e39190612a3f565b60405180910390f35b6103f4611bc6565b6040516104019190612c48565b60405180910390f35b610424600480360381019061041f9190612518565b611c1c565b6040516104329291906125b8565b60405180910390f35b61045560048036038101906104509190612c68565b611c5b565b6040516104629190612ca6565b60405180910390f35b61048560048036038101906104809190612a01565b611c85565b005b6104a1600480360381019061049c9190612518565b611f35565b005b5f5f5f60065f8581526020019081526020015f20604051806101600160405290815f82015481526020016001820154815260200160028201548152602001600382015f9054906101000a900473ffffffffffffffffffffffffffffffffffffffff1673ffffffffffffffffffffffffffffffffffffffff1673ffffffffffffffffffffffffffffffffffffffff1681526020016004820154815260200160058201548152602001600682015f9054906101000a900473ffffffffffffffffffffffffffffffffffffffff1673ffffffffffffffffffffffffffffffffffffffff1673ffffffffffffffffffffffffffffffffffffffff1681526020016006820160149054906101000a900460ff161515151581526020016006820160159054906101000a900460ff161515151581526020016006820160169054906101000a900460ff161515151581526020016006820160179054906101000a900460ff1615151515815250509050806101000151610651576040517f08c379a000000000000000000000000000000000000000000000000000000000815260040161064890612d09565b60405180910390fd5b806060015181608001519250925050915091565b5f5f5f60055f8581526020019081526020015f206040518060400160405290815f8201548152602001600182015f9054906101000a900473ffffffffffffffffffffffffffffffffffffffff1673ffffffffffffffffffffffffffffffffffffffff1673ffffffffffffffffffffffffffffffffffffffff16815250509050805f015181602001519250925050915091565b60055f8281526020019081526020015f206001015f9054906101000a900473ffffffffffffffffffffffffffffffffffffffff1673ffffffffffffffffffffffffffffffffffffffff163373ffffffffffffffffffffffffffffffffffffffff1614610761575f5ffd5b60055f8281526020019081526020015f205f5f82015f9055600182015f6101000a81549073ffffffffffffffffffffffffffffffffffffffff0219169055505050565b60015f9054906101000a900473ffffffffffffffffffffffffffffffffffffffff1673ffffffffffffffffffffffffffffffffffffffff163373ffffffffffffffffffffffffffffffffffffffff1614610833576040517f08c379a000000000000000000000000000000000000000000000000000000000815260040161082a90612d71565b60405180910390fd5b5f60025f81548092919061084690612dbc565b91905055905061085688826122be565b6040518060c001604052808881526020018781526020018681526020018581526020018460ff16815260200183151581525060045f8381526020019081526020015f205f820151815f0190816108ac9190612ff7565b506020820151816001015560408201518160020155606082015181600301556080820151816004015f6101000a81548160ff021916908360ff16021790555060a08201518160040160016101000a81548160ff0219169083151502179055509050507fc1858a9e1260d2afcf7bd0ebec9aed42b8c7f31f5ec3f434dc8c443640b46a1f81888a604051610941939291906130c6565b60405180910390a15050505050505050565b5f60065f8381526020019081526020015f2090508060060160159054906101000a900460ff166109b8576040517f08c379a00000000000000000000000000000000000000000000000000000000081526004016109af9061314c565b60405180910390fd5b5f73ffffffffffffffffffffffffffffffffffffffff16816003015f9054906101000a900473ffffffffffffffffffffffffffffffffffffffff1673ffffffffffffffffffffffffffffffffffffffff1614610a49576040517f08c379a0000000000000000000000000000000000000000000000000000000008152600401610a40906131b4565b60405180910390fd5b60018160060160176101000a81548160ff0219169083151502179055505050565b6007818051602081018201805184825260208301602085012081835280955050505050505f915090508054610a9e90612e30565b80601f0160208091040260200160405190810160405280929190818152602001828054610aca90612e30565b8015610b155780601f10610aec57610100808354040283529160200191610b15565b820191905f5260205f20905b815481529060010190602001808311610af857829003601f168201915b505050505081565b60025481565b6006602052805f5260405f205f91509050805f015490806001015490806002015490806003015f9054906101000a900473ffffffffffffffffffffffffffffffffffffffff1690806004015490806005015490806006015f9054906101000a900473ffffffffffffffffffffffffffffffffffffffff16908060060160149054906101000a900460ff16908060060160159054906101000a900460ff16908060060160169054906101000a900460ff16908060060160179054906101000a900460ff1690508b565b5f60065f8481526020019081526020015f2090508060060160149054906101000a900460ff16610c50576040517f08c379a0000000000000000000000000000000000000000000000000000000008152600401610c479061321c565b60405180910390fd5b80600201544210610c96576040517f08c379a0000000000000000000000000000000000000000000000000000000008152600401610c8d90613284565b60405180910390fd5b80600101548211610cdc576040517f08c379a0000000000000000000000000000000000000000000000000000000008152600401610cd3906132ec565b60405180910390fd5b5f5f5f9054906101000a900473ffffffffffffffffffffffffffffffffffffffff1673ffffffffffffffffffffffffffffffffffffffff166323b872dd3330866040518463ffffffff1660e01b8152600401610d3a9392919061330a565b6020604051808303815f875af1158015610d56573d5f5f3e3d5ffd5b505050506040513d601f19601f82011682018060405250810190610d7a9190613353565b905080610dbc576040517f08c379a0000000000000000000000000000000000000000000000000000000008152600401610db3906133c8565b60405180910390fd5b5f73ffffffffffffffffffffffffffffffffffffffff16826003015f9054906101000a900473ffffffffffffffffffffffffffffffffffffffff1673ffffffffffffffffffffffffffffffffffffffff1614610ed6575f5f9054906101000a900473ffffffffffffffffffffffffffffffffffffffff1673ffffffffffffffffffffffffffffffffffffffff1663a9059cbb836003015f9054906101000a900473ffffffffffffffffffffffffffffffffffffffff1684600401546040518363ffffffff1660e01b8152600401610e94929190612591565b6020604051808303815f875af1158015610eb0573d5f5f3e3d5ffd5b505050506040513d601f19601f82011682018060405250810190610ed49190613353565b505b33826003015f6101000a81548173ffffffffffffffffffffffffffffffffffffffff021916908373ffffffffffffffffffffffffffffffffffffffff1602179055508282600401819055508282600101819055507f558a0d5d5468d74b0db24c74eb348b42271c2ebb4c9e953ced38aaed95fa4361843385604051610f5d939291906133e6565b60405180910390a150505050565b5f60085f8381526020019081526020015f205f9054906101000a900473ffffffffffffffffffffffffffffffffffffffff169050919050565b60035481565b600c8181548110610fb9575f80fd5b905f5260205f20015f915090505481565b6004602052805f5260405f205f91509050805f018054610fe990612e30565b80601f016020809104026020016040519081016040528092919081815260200182805461101590612e30565b80156110605780601f1061103757610100808354040283529160200191611060565b820191905f5260205f20905b81548152906001019060200180831161104357829003601f168201915b505050505090806001015490806002015490806003015490806004015f9054906101000a900460ff16908060040160019054906101000a900460ff16905086565b825f73ffffffffffffffffffffffffffffffffffffffff1660085f8381526020019081526020015f205f9054906101000a900473ffffffffffffffffffffffffffffffffffffffff1673ffffffffffffffffffffffffffffffffffffffff1603611140576040517f08c379a000000000000000000000000000000000000000000000000000000000815260040161113790613465565b60405180910390fd5b833373ffffffffffffffffffffffffffffffffffffffff1660085f8381526020019081526020015f205f9054906101000a900473ffffffffffffffffffffffffffffffffffffffff1673ffffffffffffffffffffffffffffffffffffffff16146111df576040517f08c379a00000000000000000000000000000000000000000000000000000000081526004016111d6906134cd565b60405180910390fd5b60065f8681526020019081526020015f2060060160149054906101000a900460ff1615611241576040517f08c379a000000000000000000000000000000000000000000000000000000000815260040161123890613535565b60405180910390fd5b600c85908060018154018082558091505060019003905f5260205f20015f9091909190915055604051806101600160405280858152602001858152602001844261128b9190613553565b81526020015f73ffffffffffffffffffffffffffffffffffffffff1681526020015f81526020018681526020013373ffffffffffffffffffffffffffffffffffffffff1681526020016001151581526020015f151581526020015f151581526020015f151581525060065f8781526020019081526020015f205f820151815f015560208201518160010155604082015181600201556060820151816003015f6101000a81548173ffffffffffffffffffffffffffffffffffffffff021916908373ffffffffffffffffffffffffffffffffffffffff1602179055506080820151816004015560a0820151816005015560c0820151816006015f6101000a81548173ffffffffffffffffffffffffffffffffffffffff021916908373ffffffffffffffffffffffffffffffffffffffff16021790555060e08201518160060160146101000a81548160ff0219169083151502179055506101008201518160060160156101000a81548160ff0219169083151502179055506101208201518160060160166101000a81548160ff0219169083151502179055506101408201518160060160176101000a81548160ff0219169083151502179055509050507f44c53be110c6aa83aa83cd02e351ed172359268272ee1b5d31c0fe48db35c6c7858585426114759190613553565b60405161148493929190613586565b60405180910390a15050505050565b5f60065f8381526020019081526020015f2090508060060160149054906101000a900460ff166114f8576040517f08c379a00000000000000000000000000000000000000000000000000000000081526004016114ef9061321c565b60405180910390fd5b806002015442101561153f576040517f08c379a000000000000000000000000000000000000000000000000000000000815260040161153690612d09565b60405180910390fd5b5f8160060160146101000a81548160ff02191690831515021790555060018160060160156101000a81548160ff0219169083151502179055507fd2aa34a4fdbbc6dff6a3e56f46e0f3ae2a31d7785ff3487aa5c95c642acea50182826003015f9054906101000a900473ffffffffffffffffffffffffffffffffffffffff1683600401546040516115d2939291906133e6565b60405180910390a15050565b805f73ffffffffffffffffffffffffffffffffffffffff1660085f8381526020019081526020015f205f9054906101000a900473ffffffffffffffffffffffffffffffffffffffff1673ffffffffffffffffffffffffffffffffffffffff160361167d576040517f08c379a000000000000000000000000000000000000000000000000000000000815260040161167490613465565b60405180910390fd5b5f73ffffffffffffffffffffffffffffffffffffffff1660085f8481526020019081526020015f205f9054906101000a900473ffffffffffffffffffffffffffffffffffffffff1673ffffffffffffffffffffffffffffffffffffffff160361171b576040517f08c379a000000000000000000000000000000000000000000000000000000000815260040161171290613605565b60405180910390fd5b60065f8381526020019081526020015f2060060160149054906101000a900460ff161561177d576040517f08c379a00000000000000000000000000000000000000000000000000000000081526004016117749061366d565b60405180910390fd5b5f60055f8481526020019081526020015f206040518060400160405290815f8201548152602001600182015f9054906101000a900473ffffffffffffffffffffffffffffffffffffffff1673ffffffffffffffffffffffffffffffffffffffff1673ffffffffffffffffffffffffffffffffffffffff168152505090505f815f01511161183f576040517f08c379a0000000000000000000000000000000000000000000000000000000008152600401611836906136d5565b60405180910390fd5b806020015173ffffffffffffffffffffffffffffffffffffffff163373ffffffffffffffffffffffffffffffffffffffff16036118b1576040517f08c379a00000000000000000000000000000000000000000000000000000000081526004016118a89061373d565b60405180910390fd5b5f5f5f9054906101000a900473ffffffffffffffffffffffffffffffffffffffff1673ffffffffffffffffffffffffffffffffffffffff166323b872dd338460200151855f01516040518463ffffffff1660e01b81526004016119169392919061330a565b6020604051808303815f875af1158015611932573d5f5f3e3d5ffd5b505050506040513d601f19601f820116820180604052508101906119569190613353565b905080611998576040517f08c379a000000000000000000000000000000000000000000000000000000000815260040161198f906137a5565b60405180910390fd5b5f826020015190503360085f8781526020019081526020015f205f6101000a81548173ffffffffffffffffffffffffffffffffffffffff021916908373ffffffffffffffffffffffffffffffffffffffff16021790555060095f8273ffffffffffffffffffffffffffffffffffffffff1673ffffffffffffffffffffffffffffffffffffffff1681526020019081526020015f205f815480929190611a3c906137c3565b919050555060095f3373ffffffffffffffffffffffffffffffffffffffff1673ffffffffffffffffffffffffffffffffffffffff1681526020019081526020015f205f815480929190611a8e90612dbc565b919050555060055f8681526020019081526020015f205f5f82015f9055600182015f6101000a81549073ffffffffffffffffffffffffffffffffffffffff021916905550507f5f0544350104105a633eb4702d5cfa369eb1b1e1f5e5be7a5f1856ac84390b4d8533855f0151604051611b09939291906133e6565b60405180910390a13373ffffffffffffffffffffffffffffffffffffffff168173ffffffffffffffffffffffffffffffffffffffff167fddf252ad1be2c89b69c2b068fc378daa952ba7f163c4a11628f55a4df523b3ef87604051611b6e9190612930565b60405180910390a35050505050565b5f5f9054906101000a900473ffffffffffffffffffffffffffffffffffffffff1681565b60015f9054906101000a900473ffffffffffffffffffffffffffffffffffffffff1681565b6060600c805480602002602001604051908101604052809291908181526020018280548015611c1257602002820191905f5260205f20905b815481526020019060010190808311611bfe575b5050505050905090565b6005602052805f5260405f205f91509050805f015490806001015f9054906101000a900473ffffffffffffffffffffffffffffffffffffffff16905082565b600b602052815f5260405f20602052805f5260405f205f915091509054906101000a900460ff1681565b815f73ffffffffffffffffffffffffffffffffffffffff1660085f8381526020019081526020015f205f9054906101000a900473ffffffffffffffffffffffffffffffffffffffff1673ffffffffffffffffffffffffffffffffffffffff1603611d24576040517f08c379a0000000000000000000000000000000000000000000000000000000008152600401611d1b90613465565b60405180910390fd5b823373ffffffffffffffffffffffffffffffffffffffff1660085f8381526020019081526020015f205f9054906101000a900473ffffffffffffffffffffffffffffffffffffffff1673ffffffffffffffffffffffffffffffffffffffff1614611dc3576040517f08c379a0000000000000000000000000000000000000000000000000000000008152600401611dba906134cd565b60405180910390fd5b60065f8581526020019081526020015f2060060160149054906101000a900460ff1615611e25576040517f08c379a0000000000000000000000000000000000000000000000000000000008152600401611e1c9061366d565b60405180910390fd5b5f8311611e67576040517f08c379a0000000000000000000000000000000000000000000000000000000008152600401611e5e90613834565b60405180910390fd5b60405180604001604052808481526020013373ffffffffffffffffffffffffffffffffffffffff1681525060055f8681526020019081526020015f205f820151815f01556020820151816001015f6101000a81548173ffffffffffffffffffffffffffffffffffffffff021916908373ffffffffffffffffffffffffffffffffffffffff1602179055509050507feec9fb041fa14d227fc0e64a3e630e1a685941c91dfb622450481abf5fc5a0e5848433604051611f2793929190613852565b60405180910390a150505050565b5f60065f8381526020019081526020015f2090508060060160159054906101000a900460ff16611f9a576040517f08c379a0000000000000000000000000000000000000000000000000000000008152600401611f919061314c565b60405180910390fd5b806003015f9054906101000a900473ffffffffffffffffffffffffffffffffffffffff1673ffffffffffffffffffffffffffffffffffffffff163373ffffffffffffffffffffffffffffffffffffffff161461202b576040517f08c379a0000000000000000000000000000000000000000000000000000000008152600401612022906138d1565b60405180910390fd5b8060060160169054906101000a900460ff161561207d576040517f08c379a000000000000000000000000000000000000000000000000000000000815260040161207490613939565b60405180910390fd5b5f816006015f9054906101000a900473ffffffffffffffffffffffffffffffffffffffff1690503360085f8581526020019081526020015f205f6101000a81548173ffffffffffffffffffffffffffffffffffffffff021916908373ffffffffffffffffffffffffffffffffffffffff16021790555060095f8273ffffffffffffffffffffffffffffffffffffffff1673ffffffffffffffffffffffffffffffffffffffff1681526020019081526020015f205f815480929190612140906137c3565b919050555060095f3373ffffffffffffffffffffffffffffffffffffffff1673ffffffffffffffffffffffffffffffffffffffff1681526020019081526020015f205f81548092919061219290612dbc565b91905055505f5f9054906101000a900473ffffffffffffffffffffffffffffffffffffffff1673ffffffffffffffffffffffffffffffffffffffff1663a9059cbb8284600401546040518363ffffffff1660e01b81526004016121f6929190612591565b6020604051808303815f875af1158015612212573d5f5f3e3d5ffd5b505050506040513d601f19601f820116820180604052508101906122369190613353565b5060018260060160166101000a81548160ff0219169083151502179055503373ffffffffffffffffffffffffffffffffffffffff168173ffffffffffffffffffffffffffffffffffffffff167fddf252ad1be2c89b69c2b068fc378daa952ba7f163c4a11628f55a4df523b3ef856040516122b19190612930565b60405180910390a3505050565b5f73ffffffffffffffffffffffffffffffffffffffff168273ffffffffffffffffffffffffffffffffffffffff160361232c576040517f08c379a0000000000000000000000000000000000000000000000000000000008152600401612323906139c7565b60405180910390fd5b5f73ffffffffffffffffffffffffffffffffffffffff1660085f8381526020019081526020015f205f9054906101000a900473ffffffffffffffffffffffffffffffffffffffff1673ffffffffffffffffffffffffffffffffffffffff16146123ca576040517f08c379a00000000000000000000000000000000000000000000000000000000081526004016123c190613a2f565b60405180910390fd5b60095f8373ffffffffffffffffffffffffffffffffffffffff1673ffffffffffffffffffffffffffffffffffffffff1681526020019081526020015f205f81548092919061241790612dbc565b91905055508160085f8381526020019081526020015f205f6101000a81548173ffffffffffffffffffffffffffffffffffffffff021916908373ffffffffffffffffffffffffffffffffffffffff1602179055508173ffffffffffffffffffffffffffffffffffffffff165f73ffffffffffffffffffffffffffffffffffffffff167fddf252ad1be2c89b69c2b068fc378daa952ba7f163c4a11628f55a4df523b3ef836040516124c89190612930565b60405180910390a35050565b5f604051905090565b5f5ffd5b5f5ffd5b5f819050919050565b6124f7816124e5565b8114612501575f5ffd5b50565b5f81359050612512816124ee565b92915050565b5f6020828403121561252d5761252c6124dd565b5b5f61253a84828501612504565b91505092915050565b5f73ffffffffffffffffffffffffffffffffffffffff82169050919050565b5f61256c82612543565b9050919050565b61257c81612562565b82525050565b61258b816124e5565b82525050565b5f6040820190506125a45f830185612573565b6125b16020830184612582565b9392505050565b5f6040820190506125cb5f830185612582565b6125d86020830184612573565b9392505050565b6125e881612562565b81146125f2575f5ffd5b50565b5f81359050612603816125df565b92915050565b5f5ffd5b5f5ffd5b5f601f19601f8301169050919050565b7f4e487b71000000000000000000000000000000000000000000000000000000005f52604160045260245ffd5b61265782612611565b810181811067ffffffffffffffff8211171561267657612675612621565b5b80604052505050565b5f6126886124d4565b9050612694828261264e565b919050565b5f67ffffffffffffffff8211156126b3576126b2612621565b5b6126bc82612611565b9050602081019050919050565b828183375f83830152505050565b5f6126e96126e484612699565b61267f565b9050828152602081018484840111156127055761270461260d565b5b6127108482856126c9565b509392505050565b5f82601f83011261272c5761272b612609565b5b813561273c8482602086016126d7565b91505092915050565b5f60ff82169050919050565b61275a81612745565b8114612764575f5ffd5b50565b5f8135905061277581612751565b92915050565b5f8115159050919050565b61278f8161277b565b8114612799575f5ffd5b50565b5f813590506127aa81612786565b92915050565b5f5f5f5f5f5f5f60e0888a0312156127cb576127ca6124dd565b5b5f6127d88a828b016125f5565b975050602088013567ffffffffffffffff8111156127f9576127f86124e1565b5b6128058a828b01612718565b96505060406128168a828b01612504565b95505060606128278a828b01612504565b94505060806128388a828b01612504565b93505060a06128498a828b01612767565b92505060c061285a8a828b0161279c565b91505092959891949750929550565b5f6020828403121561287e5761287d6124dd565b5b5f82013567ffffffffffffffff81111561289b5761289a6124e1565b5b6128a784828501612718565b91505092915050565b5f81519050919050565b5f82825260208201905092915050565b8281835e5f83830152505050565b5f6128e2826128b0565b6128ec81856128ba565b93506128fc8185602086016128ca565b61290581612611565b840191505092915050565b5f6020820190508181035f83015261292881846128d8565b905092915050565b5f6020820190506129435f830184612582565b92915050565b6129528161277b565b82525050565b5f6101608201905061296c5f83018e612582565b612979602083018d612582565b612986604083018c612582565b612993606083018b612573565b6129a0608083018a612582565b6129ad60a0830189612582565b6129ba60c0830188612573565b6129c760e0830187612949565b6129d5610100830186612949565b6129e3610120830185612949565b6129f1610140830184612949565b9c9b505050505050505050505050565b5f5f60408385031215612a1757612a166124dd565b5b5f612a2485828601612504565b9250506020612a3585828601612504565b9150509250929050565b5f602082019050612a525f830184612573565b92915050565b612a6181612745565b82525050565b5f60c0820190508181035f830152612a7f81896128d8565b9050612a8e6020830188612582565b612a9b6040830187612582565b612aa86060830186612582565b612ab56080830185612a58565b612ac260a0830184612949565b979650505050505050565b5f5f5f60608486031215612ae457612ae36124dd565b5b5f612af186828701612504565b9350506020612b0286828701612504565b9250506040612b1386828701612504565b9150509250925092565b5f819050919050565b5f612b40612b3b612b3684612543565b612b1d565b612543565b9050919050565b5f612b5182612b26565b9050919050565b5f612b6282612b47565b9050919050565b612b7281612b58565b82525050565b5f602082019050612b8b5f830184612b69565b92915050565b5f81519050919050565b5f82825260208201905092915050565b5f819050602082019050919050565b612bc3816124e5565b82525050565b5f612bd48383612bba565b60208301905092915050565b5f602082019050919050565b5f612bf682612b91565b612c008185612b9b565b9350612c0b83612bab565b805f5b83811015612c3b578151612c228882612bc9565b9750612c2d83612be0565b925050600181019050612c0e565b5085935050505092915050565b5f6020820190508181035f830152612c608184612bec565b905092915050565b5f5f60408385031215612c7e57612c7d6124dd565b5b5f612c8b858286016125f5565b9250506020612c9c858286016125f5565b9150509250929050565b5f602082019050612cb95f830184612949565b92915050565b7f41756374696f6e206e6f7420656e6465642079657400000000000000000000005f82015250565b5f612cf36015836128ba565b9150612cfe82612cbf565b602082019050919050565b5f6020820190508181035f830152612d2081612ce7565b9050919050565b7f4e6f7420636f6e7472616374206f776e657200000000000000000000000000005f82015250565b5f612d5b6012836128ba565b9150612d6682612d27565b602082019050919050565b5f6020820190508181035f830152612d8881612d4f565b9050919050565b7f4e487b71000000000000000000000000000000000000000000000000000000005f52601160045260245ffd5b5f612dc6826124e5565b91507fffffffffffffffffffffffffffffffffffffffffffffffffffffffffffffffff8203612df857612df7612d8f565b5b600182019050919050565b7f4e487b71000000000000000000000000000000000000000000000000000000005f52602260045260245ffd5b5f6002820490506001821680612e4757607f821691505b602082108103612e5a57612e59612e03565b5b50919050565b5f819050815f5260205f209050919050565b5f6020601f8301049050919050565b5f82821b905092915050565b5f60088302612ebc7fffffffffffffffffffffffffffffffffffffffffffffffffffffffffffffffff82612e81565b612ec68683612e81565b95508019841693508086168417925050509392505050565b5f612ef8612ef3612eee846124e5565b612b1d565b6124e5565b9050919050565b5f819050919050565b612f1183612ede565b612f25612f1d82612eff565b848454612e8d565b825550505050565b5f5f905090565b612f3c612f2d565b612f47818484612f08565b505050565b5b81811015612f6a57612f5f5f82612f34565b600181019050612f4d565b5050565b601f821115612faf57612f8081612e60565b612f8984612e72565b81016020851015612f98578190505b612fac612fa485612e72565b830182612f4c565b50505b505050565b5f82821c905092915050565b5f612fcf5f1984600802612fb4565b1980831691505092915050565b5f612fe78383612fc0565b9150826002028217905092915050565b613000826128b0565b67ffffffffffffffff81111561301957613018612621565b5b6130238254612e30565b61302e828285612f6e565b5f60209050601f83116001811461305f575f841561304d578287015190505b6130578582612fdc565b8655506130be565b601f19841661306d86612e60565b5f5b828110156130945784890151825560018201915060208501945060208101905061306f565b868310156130b157848901516130ad601f891682612fc0565b8355505b6001600288020188555050505b505050505050565b5f6060820190506130d95f830186612582565b81810360208301526130eb81856128d8565b90506130fa6040830184612573565b949350505050565b7f41756374696f6e206e6f7420656e6465640000000000000000000000000000005f82015250565b5f6131366011836128ba565b915061314182613102565b602082019050919050565b5f6020820190508181035f8301526131638161312a565b9050919050565b7f42696473206578697374000000000000000000000000000000000000000000005f82015250565b5f61319e600a836128ba565b91506131a98261316a565b602082019050919050565b5f6020820190508181035f8301526131cb81613192565b9050919050565b7f41756374696f6e206e6f742061637469766500000000000000000000000000005f82015250565b5f6132066012836128ba565b9150613211826131d2565b602082019050919050565b5f6020820190508181035f830152613233816131fa565b9050919050565b7f41756374696f6e20656e646564000000000000000000000000000000000000005f82015250565b5f61326e600d836128ba565b91506132798261323a565b602082019050919050565b5f6020820190508181035f83015261329b81613262565b9050919050565b7f42696420746f6f206c6f770000000000000000000000000000000000000000005f82015250565b5f6132d6600b836128ba565b91506132e1826132a2565b602082019050919050565b5f6020820190508181035f830152613303816132ca565b9050919050565b5f60608201905061331d5f830186612573565b61332a6020830185612573565b6133376040830184612582565b949350505050565b5f8151905061334d81612786565b92915050565b5f60208284031215613368576133676124dd565b5b5f6133758482850161333f565b91505092915050565b7f5472616e73666572206661696c656400000000000000000000000000000000005f82015250565b5f6133b2600f836128ba565b91506133bd8261337e565b602082019050919050565b5f6020820190508181035f8301526133df816133a6565b9050919050565b5f6060820190506133f95f830186612582565b6134066020830185612573565b6134136040830184612582565b949350505050565b7f4361726420646f6573206e6f74206578697374000000000000000000000000005f82015250565b5f61344f6013836128ba565b915061345a8261341b565b602082019050919050565b5f6020820190508181035f83015261347c81613443565b9050919050565b7f4e6f7420746865206f776e6572000000000000000000000000000000000000005f82015250565b5f6134b7600d836128ba565b91506134c282613483565b602082019050919050565b5f6020820190508181035f8301526134e4816134ab565b9050919050565b7f41756374696f6e20616c726561647920616374697665000000000000000000005f82015250565b5f61351f6016836128ba565b915061352a826134eb565b602082019050919050565b5f6020820190508181035f83015261354c81613513565b9050919050565b5f61355d826124e5565b9150613568836124e5565b92508282019050808211156135805761357f612d8f565b5b92915050565b5f6060820190506135995f830186612582565b6135a66020830185612582565b6135b36040830184612582565b949350505050565b7f43617264206e6f74206d696e74656400000000000000000000000000000000005f82015250565b5f6135ef600f836128ba565b91506135fa826135bb565b602082019050919050565b5f6020820190508181035f83015261361c816135e3565b9050919050565b7f4361726420696e2061756374696f6e00000000000000000000000000000000005f82015250565b5f613657600f836128ba565b915061366282613623565b602082019050919050565b5f6020820190508181035f8301526136848161364b565b9050919050565b7f43617264206e6f74206c697374656400000000000000000000000000000000005f82015250565b5f6136bf600f836128ba565b91506136ca8261368b565b602082019050919050565b5f6020820190508181035f8301526136ec816136b3565b9050919050565b7f43616e6e6f742062757920796f7572206f776e206361726400000000000000005f82015250565b5f6137276018836128ba565b9150613732826136f3565b602082019050919050565b5f6020820190508181035f8301526137548161371b565b9050919050565b7f596f6461207472616e73666572206661696c65640000000000000000000000005f82015250565b5f61378f6014836128ba565b915061379a8261375b565b602082019050919050565b5f6020820190508181035f8301526137bc81613783565b9050919050565b5f6137cd826124e5565b91505f82036137df576137de612d8f565b5b600182039050919050565b7f5072696365206d757374206265203e20300000000000000000000000000000005f82015250565b5f61381e6011836128ba565b9150613829826137ea565b602082019050919050565b5f6020820190508181035f83015261384b81613812565b9050919050565b5f6060820190506138655f830186612582565b6138726020830185612582565b61387f6040830184612573565b949350505050565b7f4e6f742077696e6e6572000000000000000000000000000000000000000000005f82015250565b5f6138bb600a836128ba565b91506138c682613887565b602082019050919050565b5f6020820190508181035f8301526138e8816138af565b9050919050565b7f416c726561647920636c61696d656400000000000000000000000000000000005f82015250565b5f613923600f836128ba565b915061392e826138ef565b602082019050919050565b5f6020820190508181035f83015261395081613917565b9050919050565b7f496e76616c696420616464726573732f206d696e7420746f207a65726f2061645f8201527f6472657373000000000000000000000000000000000000000000000000000000602082015250565b5f6139b16025836128ba565b91506139bc82613957565b604082019050919050565b5f6020820190508181035f8301526139de816139a5565b9050919050565b7f4361726420616c7265616479206d696e746564000000000000000000000000005f82015250565b5f613a196013836128ba565b9150613a24826139e5565b602082019050919050565b5f6020820190508181035f830152613a4681613a0d565b905091905056fea26469706673582212203c7dbf53c2828ad60ad22175e970a3c40e79ed4a46b7a22b5ca2f24637c7380e64736f6c634300081c0033",
  "linkReferences": {},
  "deployedLinkReferences": {},
  "immutableReferences": {},
  "inputSourceName": "project/contracts/pokemonsc.sol",
  "buildInfoId": "solc-0_8_28-50f6479212bc78764a9b57b731b17207b130a49a"
}