{
  "_format": "hh3-artifact-1",
  "contractName": "PokemonFTCG",
  "sourceName": "contracts/pokemonsc.sol",
  "abi": [
    {
      "inputs": [
        {
          "internalType": "address",
          "name": "_yodaTokenAddr",
          "type": "address"
        }
      ],
      "stateMutability": "nonpayable",
      "type": "constructor"
    },
    {
      "anonymous": false,
      "inputs": [
        {
          "indexed": true,
          "internalType": "address",
          "name": "owner",
          "type": "address"
        },
        {
          "indexed": true,
          "internalType": "address",
          "name": "buyer",
          "type": "address"
        },
        {
          "indexed": false,
          "internalType": "uint256",
          "name": "tokenId",
          "type": "uint256"
        }
      ],
      "name": "Approval",
      "type": "event"
    },
    {
      "anonymous": false,
      "inputs": [
        {
          "indexed": true,
          "internalType": "address",
          "name": "owner",
          "type": "address"
        },
        {
          "indexed": true,
          "internalType": "address",
          "name": "operator",
          "type": "address"
        },
        {
          "indexed": false,
          "internalType": "bool",
          "name": "approved",
          "type": "bool"
        }
      ],
      "name": "ApprovedForAll",
      "type": "event"
    },
    {
      "anonymous": false,
      "inputs": [
        {
          "indexed": false,
          "internalType": "uint256",
          "name": "tokenId",
          "type": "uint256"
        },
        {
          "indexed": false,
          "internalType": "address",
          "name": "winner",
          "type": "address"
        },
        {
          "indexed": false,
          "internalType": "uint256",
          "name": "amount",
          "type": "uint256"
        }
      ],
      "name": "AuctionEnded",
      "type": "event"
    },
    {
      "anonymous": false,
      "inputs": [
        {
          "indexed": false,
          "internalType": "uint256",
          "name": "tokenId",
          "type": "uint256"
        },
        {
          "indexed": false,
          "internalType": "uint256",
          "name": "startingBid",
          "type": "uint256"
        },
        {
          "indexed": false,
          "internalType": "uint256",
          "name": "endTime",
          "type": "uint256"
        }
      ],
      "name": "AuctionStarted",
      "type": "event"
    },
    {
      "anonymous": false,
      "inputs": [
        {
          "indexed": false,
          "internalType": "uint256",
          "name": "tokenId",
          "type": "uint256"
        },
        {
          "indexed": false,
          "internalType": "uint256",
          "name": "price",
          "type": "uint256"
        },
        {
          "indexed": false,
          "internalType": "address",
          "name": "seller",
          "type": "address"
        }
      ],
      "name": "CardListed",
      "type": "event"
    },
    {
      "anonymous": false,
      "inputs": [
        {
          "indexed": false,
          "internalType": "uint256",
          "name": "tokenId",
          "type": "uint256"
        },
        {
          "indexed": false,
          "internalType": "string",
          "name": "name",
          "type": "string"
        },
        {
          "indexed": false,
          "internalType": "address",
          "name": "owner",
          "type": "address"
        }
      ],
      "name": "CardMinted",
      "type": "event"
    },
    {
      "anonymous": false,
      "inputs": [
        {
          "indexed": false,
          "internalType": "uint256",
          "name": "tokenId",
          "type": "uint256"
        },
        {
          "indexed": false,
          "internalType": "address",
          "name": "buyer",
          "type": "address"
        },
        {
          "indexed": false,
          "internalType": "uint256",
          "name": "price",
          "type": "uint256"
        }
      ],
      "name": "CardPurchased",
      "type": "event"
    },
    {
      "anonymous": false,
      "inputs": [
        {
          "indexed": false,
          "internalType": "uint256",
          "name": "tokenId",
          "type": "uint256"
        },
        {
          "indexed": false,
          "internalType": "address",
          "name": "bidder",
          "type": "address"
        },
        {
          "indexed": false,
          "internalType": "uint256",
          "name": "amount",
          "type": "uint256"
        }
      ],
      "name": "NewBid",
      "type": "event"
    },
    {
      "anonymous": false,
      "inputs": [
        {
          "indexed": true,
          "internalType": "address",
          "name": "from",
          "type": "address"
        },
        {
          "indexed": true,
          "internalType": "address",
          "name": "to",
          "type": "address"
        },
        {
          "indexed": false,
          "internalType": "uint256",
          "name": "tokenId",
          "type": "uint256"
        }
      ],
      "name": "Transfer",
      "type": "event"
    },
    {
      "inputs": [],
      "name": "_nextTokenId",
      "outputs": [
        {
          "internalType": "uint256",
          "name": "",
          "type": "uint256"
        }
      ],
      "stateMutability": "view",
      "type": "function"
    },
    {
      "inputs": [
        {
          "internalType": "uint256",
          "name": "",
          "type": "uint256"
        }
      ],
      "name": "activeAuctions",
      "outputs": [
        {
          "internalType": "uint256",
          "name": "",
          "type": "uint256"
        }
      ],
      "stateMutability": "view",
      "type": "function"
    },
    {
      "inputs": [
        {
          "internalType": "uint256",
          "name": "",
          "type": "uint256"
        }
      ],
      "name": "auctions",
      "outputs": [
        {
          "internalType": "uint256",
          "name": "startingPrice",
          "type": "uint256"
        },
        {
          "internalType": "uint256",
          "name": "currentPrice",
          "type": "uint256"
        },
        {
          "internalType": "uint256",
          "name": "endTime",
          "type": "uint256"
        },
        {
          "internalType": "address",
          "name": "highestBidder",
          "type": "address"
        },
        {
          "internalType": "uint256",
          "name": "highestBid",
          "type": "uint256"
        },
        {
          "internalType": "uint256",
          "name": "tokenId",
          "type": "uint256"
        },
        {
          "internalType": "address",
          "name": "seller",
          "type": "address"
        },
        {
          "internalType": "bool",
          "name": "active",
          "type": "bool"
        },
        {
          "internalType": "bool",
          "name": "ended",
          "type": "bool"
        },
        {
          "internalType": "bool",
          "name": "claimed",
          "type": "bool"
        },
        {
          "internalType": "bool",
          "name": "refunded",
          "type": "bool"
        }
      ],
      "stateMutability": "view",
      "type": "function"
    },
    {
      "inputs": [
        {
          "internalType": "uint256",
          "name": "",
          "type": "uint256"
        },
        {
          "internalType": "address",
          "name": "",
          "type": "address"
        }
      ],
      "name": "bidAmount",
      "outputs": [
        {
          "internalType": "uint256",
          "name": "",
          "type": "uint256"
        }
      ],
      "stateMutability": "view",
      "type": "function"
    },
    {
      "inputs": [
        {
          "internalType": "uint256",
          "name": "",
          "type": "uint256"
        },
        {
          "internalType": "uint256",
          "name": "",
          "type": "uint256"
        }
      ],
      "name": "bidders",
      "outputs": [
        {
          "internalType": "address",
          "name": "",
          "type": "address"
        }
      ],
      "stateMutability": "view",
      "type": "function"
    },
    {
      "inputs": [
        {
          "internalType": "uint256",
          "name": "cardId",
          "type": "uint256"
        }
      ],
      "name": "buyCard",
      "outputs": [],
      "stateMutability": "nonpayable",
      "type": "function"
    },
    {
      "inputs": [
        {
          "internalType": "uint256",
          "name": "tokenId",
          "type": "uint256"
        }
      ],
      "name": "cancelListing",
      "outputs": [],
      "stateMutability": "nonpayable",
      "type": "function"
    },
    {
      "inputs": [
        {
          "internalType": "string",
          "name": "",
          "type": "string"
        }
      ],
      "name": "cardToImage",
      "outputs": [
        {
          "internalType": "string",
          "name": "",
          "type": "string"
        }
      ],
      "stateMutability": "view",
      "type": "function"
    },
    {
      "inputs": [
        {
          "internalType": "uint256",
          "name": "",
          "type": "uint256"
        }
      ],
      "name": "cards",
      "outputs": [
        {
          "internalType": "string",
          "name": "name",
          "type": "string"
        },
        {
          "internalType": "uint256",
          "name": "attack",
          "type": "uint256"
        },
        {
          "internalType": "uint256",
          "name": "defense",
          "type": "uint256"
        },
        {
          "internalType": "uint256",
          "name": "hp",
          "type": "uint256"
        },
        {
          "internalType": "uint8",
          "name": "rarity",
          "type": "uint8"
        },
        {
          "internalType": "bool",
          "name": "Shiny",
          "type": "bool"
        }
      ],
      "stateMutability": "view",
      "type": "function"
    },
    {
      "inputs": [
        {
          "internalType": "uint256",
          "name": "tokenId",
          "type": "uint256"
        }
      ],
      "name": "claimNFT",
      "outputs": [],
      "stateMutability": "nonpayable",
      "type": "function"
    },
    {
      "inputs": [],
      "name": "contractOwner",
      "outputs": [
        {
          "internalType": "address",
          "name": "",
          "type": "address"
        }
      ],
      "stateMutability": "view",
      "type": "function"
    },
    {
      "inputs": [
        {
          "internalType": "uint256",
          "name": "tokenId",
          "type": "uint256"
        }
      ],
      "name": "endAuction",
      "outputs": [],
      "stateMutability": "nonpayable",
      "type": "function"
    },
    {
      "inputs": [],
      "name": "getActiveAuctions",
      "outputs": [
        {
          "internalType": "uint256[]",
          "name": "",
          "type": "uint256[]"
        }
      ],
      "stateMutability": "view",
      "type": "function"
    },
    {
      "inputs": [
        {
          "internalType": "uint256",
          "name": "tokenId",
          "type": "uint256"
        }
      ],
      "name": "getAuctionWinner",
      "outputs": [
        {
          "internalType": "address",
          "name": "",
          "type": "address"
        },
        {
          "internalType": "uint256",
          "name": "",
          "type": "uint256"
        }
      ],
      "stateMutability": "view",
      "type": "function"
    },
    {
      "inputs": [
        {
          "internalType": "uint256",
          "name": "tokenId",
          "type": "uint256"
        }
      ],
      "name": "getListing",
      "outputs": [
        {
          "internalType": "uint256",
          "name": "price",
          "type": "uint256"
        },
        {
          "internalType": "address",
          "name": "seller",
          "type": "address"
        }
      ],
      "stateMutability": "view",
      "type": "function"
    },
    {
      "inputs": [
        {
          "internalType": "address",
          "name": "",
          "type": "address"
        },
        {
          "internalType": "address",
          "name": "",
          "type": "address"
        }
      ],
      "name": "isApprovedForAll",
      "outputs": [
        {
          "internalType": "bool",
          "name": "",
          "type": "bool"
        }
      ],
      "stateMutability": "view",
      "type": "function"
    },
    {
      "inputs": [
        {
          "internalType": "uint256",
          "name": "cardId",
          "type": "uint256"
        },
        {
          "internalType": "uint256",
          "name": "price",
          "type": "uint256"
        }
      ],
      "name": "listCard",
      "outputs": [],
      "stateMutability": "nonpayable",
      "type": "function"
    },
    {
      "inputs": [
        {
          "internalType": "uint256",
          "name": "",
          "type": "uint256"
        }
      ],
      "name": "listings",
      "outputs": [
        {
          "internalType": "uint256",
          "name": "price",
          "type": "uint256"
        },
        {
          "internalType": "address",
          "name": "seller",
          "type": "address"
        }
      ],
      "stateMutability": "view",
      "type": "function"
    },
    {
      "inputs": [
        {
          "internalType": "address",
          "name": "to",
          "type": "address"
        },
        {
          "internalType": "string",
          "name": "name",
          "type": "string"
        },
        {
          "internalType": "uint256",
          "name": "attack",
          "type": "uint256"
        },
        {
          "internalType": "uint256",
          "name": "defense",
          "type": "uint256"
        },
        {
          "internalType": "uint256",
          "name": "hp",
          "type": "uint256"
        },
        {
          "internalType": "uint8",
          "name": "rarity",
          "type": "uint8"
        },
        {
          "internalType": "bool",
          "name": "shiny",
          "type": "bool"
        }
      ],
      "name": "mintCard",
      "outputs": [],
      "stateMutability": "nonpayable",
      "type": "function"
    },
    {
      "inputs": [],
      "name": "mintPrice",
      "outputs": [
        {
          "internalType": "uint256",
          "name": "",
          "type": "uint256"
        }
      ],
      "stateMutability": "view",
      "type": "function"
    },
    {
      "inputs": [
        {
          "internalType": "uint256",
          "name": "tokenId",
          "type": "uint256"
        }
      ],
      "name": "ownerOf",
      "outputs": [
        {
          "internalType": "address",
          "name": "",
          "type": "address"
        }
      ],
      "stateMutability": "view",
      "type": "function"
    },
    {
      "inputs": [
        {
          "internalType": "uint256",
          "name": "tokenId",
          "type": "uint256"
        },
        {
          "internalType": "uint256",
          "name": "amount",
          "type": "uint256"
        }
      ],
      "name": "placeBid",
      "outputs": [],
      "stateMutability": "nonpayable",
      "type": "function"
    },
    {
      "inputs": [
        {
          "internalType": "uint256",
          "name": "tokenId",
          "type": "uint256"
        }
      ],
      "name": "refundBids",
      "outputs": [],
      "stateMutability": "nonpayable",
      "type": "function"
    },
    {
      "inputs": [
        {
          "internalType": "uint256",
          "name": "tokenId",
          "type": "uint256"
        },
        {
          "internalType": "uint256",
          "name": "startingPrice",
          "type": "uint256"
        },
        {
          "internalType": "uint256",
          "name": "duration",
          "type": "uint256"
        }
      ],
      "name": "startAuction",
      "outputs": [],
      "stateMutability": "nonpayable",
      "type": "function"
    },
    {
      "inputs": [],
      "name": "totalSupply",
      "outputs": [
        {
          "internalType": "uint256",
          "name": "",
          "type": "uint256"
        }
      ],
      "stateMutability": "view",
      "type": "function"
    },
    {
      "inputs": [],
      "name": "yodaToken",
      "outputs": [
        {
          "internalType": "contract IERC20",
          "name": "",
          "type": "address"
        }
      ],
      "stateMutability": "view",
      "type": "function"
    }
  ],
  "bytecode": "0x608060405234801561000f575f5ffd5b5060405161431938038061431983398181016040528101906100319190610114565b805f5f6101000a81548173ffffffffffffffffffffffffffffffffffffffff021916908373ffffffffffffffffffffffffffffffffffffffff1602179055503360015f6101000a81548173ffffffffffffffffffffffffffffffffffffffff021916908373ffffffffffffffffffffffffffffffffffffffff1602179055505061013f565b5f5ffd5b5f73ffffffffffffffffffffffffffffffffffffffff82169050919050565b5f6100e3826100ba565b9050919050565b6100f3816100d9565b81146100fd575f5ffd5b50565b5f8151905061010e816100ea565b92915050565b5f60208284031215610129576101286100b6565b5b5f61013684828501610100565b91505092915050565b6141cd8061014c5f395ff3fe608060405234801561000f575f5ffd5b506004361061018c575f3560e01c8063790d8596116100dc578063ce606ee011610095578063de74e57b1161006f578063de74e57b146104c9578063e985e9c5146104fa578063ed36c52f1461052a578063fe5c873a146105465761018c565b8063ce606ee01461045d578063cf44b5d51461047b578063d1c11205146104995761018c565b8063790d8596146103865780638dc10768146103b657806391e078bb146103eb578063b9a2de3a14610407578063c70f5eaa14610423578063cdc645381461043f5761018c565b80633b20340a11610149578063571a26a011610123578063571a26a0146102e257806357c90de51461031c5780636352211e146103385780636817c76c146103685761018c565b80633b20340a146102785780633f7e2cec146102945780634a60f620146102c45761018c565b8063083d353b14610190578063107a274a146101c157806318160ddd146101f25780632d3f2b0514610210578063305a67a81461024057806331b62fca1461025c575b5f5ffd5b6101aa60048036038101906101a59190612b97565b610562565b6040516101b8929190612c10565b60405180910390f35b6101db60048036038101906101d69190612b97565b610724565b6040516101e9929190612c37565b60405180910390f35b6101fa6107b6565b6040516102079190612c5e565b60405180910390f35b61022a60048036038101906102259190612ca1565b6107bf565b6040516102379190612c5e565b60405180910390f35b61025a60048036038101906102559190612b97565b6107df565b005b61027660048036038101906102719190612e86565b61088c565b005b610292600480360381019061028d9190612b97565b610a3b565b005b6102ae60048036038101906102a99190612f3f565b610dd5565b6040516102bb9190612fe6565b60405180910390f35b6102cc610e88565b6040516102d99190612c5e565b60405180910390f35b6102fc60048036038101906102f79190612b97565b610e8e565b6040516103139b9a99989796959493929190613015565b60405180910390f35b610336600480360381019061033191906130be565b610f56565b005b610352600480360381019061034d9190612b97565b6114db565b60405161035f91906130fc565b60405180910390f35b610370611514565b60405161037d9190612c5e565b60405180910390f35b6103a0600480360381019061039b9190612b97565b61151a565b6040516103ad9190612c5e565b60405180910390f35b6103d060048036038101906103cb9190612b97565b61153a565b6040516103e296959493929190613124565b60405180910390f35b6104056004803603810190610400919061318a565b611611565b005b610421600480360381019061041c9190612b97565b611a03565b005b61043d60048036038101906104389190612b97565b611b57565b005b6104476120f6565b6040516104549190613235565b60405180910390f35b61046561211a565b60405161047291906130fc565b60405180910390f35b61048361213f565b6040516104909190613305565b60405180910390f35b6104b360048036038101906104ae91906130be565b612195565b6040516104c091906130fc565b60405180910390f35b6104e360048036038101906104de9190612b97565b6121dd565b6040516104f1929190612c37565b60405180910390f35b610514600480360381019061050f9190613325565b61221c565b6040516105219190613363565b60405180910390f35b610544600480360381019061053f91906130be565b612246565b005b610560600480360381019061055b9190612b97565b6124f6565b005b5f5f5f60065f8581526020019081526020015f20604051806101600160405290815f82015481526020016001820154815260200160028201548152602001600382015f9054906101000a900473ffffffffffffffffffffffffffffffffffffffff1673ffffffffffffffffffffffffffffffffffffffff1673ffffffffffffffffffffffffffffffffffffffff1681526020016004820154815260200160058201548152602001600682015f9054906101000a900473ffffffffffffffffffffffffffffffffffffffff1673ffffffffffffffffffffffffffffffffffffffff1673ffffffffffffffffffffffffffffffffffffffff1681526020016006820160149054906101000a900460ff161515151581526020016006820160159054906101000a900460ff161515151581526020016006820160169054906101000a900460ff161515151581526020016006820160179054906101000a900460ff1615151515815250509050806101000151610710576040517f08c379a0000000000000000000000000000000000000000000000000000000008152600401610707906133c6565b60405180910390fd5b806060015181608001519250925050915091565b5f5f5f60055f8581526020019081526020015f206040518060400160405290815f8201548152602001600182015f9054906101000a900473ffffffffffffffffffffffffffffffffffffffff1673ffffffffffffffffffffffffffffffffffffffff1673ffffffffffffffffffffffffffffffffffffffff16815250509050805f015181602001519250925050915091565b5f600254905090565b600e602052815f5260405f20602052805f5260405f205f91509150505481565b60055f8281526020019081526020015f206001015f9054906101000a900473ffffffffffffffffffffffffffffffffffffffff1673ffffffffffffffffffffffffffffffffffffffff163373ffffffffffffffffffffffffffffffffffffffff1614610849575f5ffd5b60055f8281526020019081526020015f205f5f82015f9055600182015f6101000a81549073ffffffffffffffffffffffffffffffffffffffff0219169055505050565b60015f9054906101000a900473ffffffffffffffffffffffffffffffffffffffff1673ffffffffffffffffffffffffffffffffffffffff163373ffffffffffffffffffffffffffffffffffffffff161461091b576040517f08c379a00000000000000000000000000000000000000000000000000000000081526004016109129061342e565b60405180910390fd5b5f60025f81548092919061092e90613479565b91905055905061093e888261287f565b6040518060c001604052808881526020018781526020018681526020018581526020018460ff16815260200183151581525060045f8381526020019081526020015f205f820151815f01908161099491906136b4565b506020820151816001015560408201518160020155606082015181600301556080820151816004015f6101000a81548160ff021916908360ff16021790555060a08201518160040160016101000a81548160ff0219169083151502179055509050507fc1858a9e1260d2afcf7bd0ebec9aed42b8c7f31f5ec3f434dc8c443640b46a1f81888a604051610a2993929190613783565b60405180910390a15050505050505050565b5f60065f8381526020019081526020015f2090508060060160159054906101000a900460ff16610aa0576040517f08c379a0000000000000000000000000000000000000000000000000000000008152600401610a9790613809565b60405180910390fd5b8060060160169054906101000a900460ff1615610af2576040517f08c379a0000000000000000000000000000000000000000000000000000000008152600401610ae990613871565b60405180910390fd5b8060060160179054906101000a900460ff1615610b44576040517f08c379a0000000000000000000000000000000000000000000000000000000008152600401610b3b906138d9565b60405180910390fd5b5f600d5f8481526020019081526020015f20805480602002602001604051908101604052809291908181526020018280548015610bd357602002820191905f5260205f20905b815f9054906101000a900473ffffffffffffffffffffffffffffffffffffffff1673ffffffffffffffffffffffffffffffffffffffff1681526020019060010190808311610b8a575b505050505090505f5f90505b8151811015610db2575f828281518110610bfc57610bfb6138f7565b5b60200260200101519050836003015f9054906101000a900473ffffffffffffffffffffffffffffffffffffffff1673ffffffffffffffffffffffffffffffffffffffff168173ffffffffffffffffffffffffffffffffffffffff1614610da4575f600e5f8781526020019081526020015f205f8373ffffffffffffffffffffffffffffffffffffffff1673ffffffffffffffffffffffffffffffffffffffff1681526020019081526020015f205490505f811115610da2575f600e5f8881526020019081526020015f205f8473ffffffffffffffffffffffffffffffffffffffff1673ffffffffffffffffffffffffffffffffffffffff1681526020019081526020015f20819055505f5f9054906101000a900473ffffffffffffffffffffffffffffffffffffffff1673ffffffffffffffffffffffffffffffffffffffff1663a9059cbb83836040518363ffffffff1660e01b8152600401610d60929190612c10565b6020604051808303815f875af1158015610d7c573d5f5f3e3d5ffd5b505050506040513d601f19601f82011682018060405250810190610da09190613938565b505b505b508080600101915050610bdf565b5060018260060160176101000a81548160ff021916908315150217905550505050565b6007818051602081018201805184825260208301602085012081835280955050505050505f915090508054610e09906134ed565b80601f0160208091040260200160405190810160405280929190818152602001828054610e35906134ed565b8015610e805780601f10610e5757610100808354040283529160200191610e80565b820191905f5260205f20905b815481529060010190602001808311610e6357829003601f168201915b505050505081565b60025481565b6006602052805f5260405f205f91509050805f015490806001015490806002015490806003015f9054906101000a900473ffffffffffffffffffffffffffffffffffffffff1690806004015490806005015490806006015f9054906101000a900473ffffffffffffffffffffffffffffffffffffffff16908060060160149054906101000a900460ff16908060060160159054906101000a900460ff16908060060160169054906101000a900460ff16908060060160179054906101000a900460ff1690508b565b5f60065f8481526020019081526020015f2090508060060160149054906101000a900460ff16610fbb576040517f08c379a0000000000000000000000000000000000000000000000000000000008152600401610fb2906139ad565b60405180910390fd5b80600201544210611001576040517f08c379a0000000000000000000000000000000000000000000000000000000008152600401610ff890613a15565b60405180910390fd5b80600101548211611047576040517f08c379a000000000000000000000000000000000000000000000000000000000815260040161103e90613a7d565b60405180910390fd5b5f600e5f8581526020019081526020015f205f3373ffffffffffffffffffffffffffffffffffffffff1673ffffffffffffffffffffffffffffffffffffffff1681526020019081526020015f20540361110a57600d5f8481526020019081526020015f2033908060018154018082558091505060019003905f5260205f20015f9091909190916101000a81548173ffffffffffffffffffffffffffffffffffffffff021916908373ffffffffffffffffffffffffffffffffffffffff1602179055505b5f5f9054906101000a900473ffffffffffffffffffffffffffffffffffffffff1673ffffffffffffffffffffffffffffffffffffffff166323b872dd3330856040518463ffffffff1660e01b815260040161116793929190613a9b565b6020604051808303815f875af1158015611183573d5f5f3e3d5ffd5b505050506040513d601f19601f820116820180604052508101906111a79190613938565b6111e6576040517f08c379a00000000000000000000000000000000000000000000000000000000081526004016111dd90613b1a565b60405180910390fd5b5f73ffffffffffffffffffffffffffffffffffffffff16816003015f9054906101000a900473ffffffffffffffffffffffffffffffffffffffff1673ffffffffffffffffffffffffffffffffffffffff1614611300575f5f9054906101000a900473ffffffffffffffffffffffffffffffffffffffff1673ffffffffffffffffffffffffffffffffffffffff1663a9059cbb826003015f9054906101000a900473ffffffffffffffffffffffffffffffffffffffff1683600401546040518363ffffffff1660e01b81526004016112be929190612c10565b6020604051808303815f875af11580156112da573d5f5f3e3d5ffd5b505050506040513d601f19601f820116820180604052508101906112fe9190613938565b505b5f600e5f8581526020019081526020015f205f3373ffffffffffffffffffffffffffffffffffffffff1673ffffffffffffffffffffffffffffffffffffffff1681526020019081526020015f205490505f8111156113f5575f5f9054906101000a900473ffffffffffffffffffffffffffffffffffffffff1673ffffffffffffffffffffffffffffffffffffffff1663a9059cbb33836040518363ffffffff1660e01b81526004016113b3929190612c10565b6020604051808303815f875af11580156113cf573d5f5f3e3d5ffd5b505050506040513d601f19601f820116820180604052508101906113f39190613938565b505b82600e5f8681526020019081526020015f205f3373ffffffffffffffffffffffffffffffffffffffff1673ffffffffffffffffffffffffffffffffffffffff1681526020019081526020015f208190555033826003015f6101000a81548173ffffffffffffffffffffffffffffffffffffffff021916908373ffffffffffffffffffffffffffffffffffffffff1602179055508282600401819055508282600101819055507f558a0d5d5468d74b0db24c74eb348b42271c2ebb4c9e953ced38aaed95fa43618433856040516114cd93929190613b38565b60405180910390a150505050565b5f60085f8381526020019081526020015f205f9054906101000a900473ffffffffffffffffffffffffffffffffffffffff169050919050565b60035481565b600c8181548110611529575f80fd5b905f5260205f20015f915090505481565b6004602052805f5260405f205f91509050805f018054611559906134ed565b80601f0160208091040260200160405190810160405280929190818152602001828054611585906134ed565b80156115d05780601f106115a7576101008083540402835291602001916115d0565b820191905f5260205f20905b8154815290600101906020018083116115b357829003601f168201915b505050505090806001015490806002015490806003015490806004015f9054906101000a900460ff16908060040160019054906101000a900460ff16905086565b825f73ffffffffffffffffffffffffffffffffffffffff1660085f8381526020019081526020015f205f9054906101000a900473ffffffffffffffffffffffffffffffffffffffff1673ffffffffffffffffffffffffffffffffffffffff16036116b0576040517f08c379a00000000000000000000000000000000000000000000000000000000081526004016116a790613bb7565b60405180910390fd5b833373ffffffffffffffffffffffffffffffffffffffff1660085f8381526020019081526020015f205f9054906101000a900473ffffffffffffffffffffffffffffffffffffffff1673ffffffffffffffffffffffffffffffffffffffff161461174f576040517f08c379a000000000000000000000000000000000000000000000000000000000815260040161174690613c1f565b60405180910390fd5b60065f8681526020019081526020015f2060060160149054906101000a900460ff16156117b1576040517f08c379a00000000000000000000000000000000000000000000000000000000081526004016117a890613c87565b60405180910390fd5b600c85908060018154018082558091505060019003905f5260205f20015f909190919091505560405180610160016040528085815260200185815260200184426117fb9190613ca5565b81526020015f73ffffffffffffffffffffffffffffffffffffffff1681526020015f81526020018681526020013373ffffffffffffffffffffffffffffffffffffffff1681526020016001151581526020015f151581526020015f151581526020015f151581525060065f8781526020019081526020015f205f820151815f015560208201518160010155604082015181600201556060820151816003015f6101000a81548173ffffffffffffffffffffffffffffffffffffffff021916908373ffffffffffffffffffffffffffffffffffffffff1602179055506080820151816004015560a0820151816005015560c0820151816006015f6101000a81548173ffffffffffffffffffffffffffffffffffffffff021916908373ffffffffffffffffffffffffffffffffffffffff16021790555060e08201518160060160146101000a81548160ff0219169083151502179055506101008201518160060160156101000a81548160ff0219169083151502179055506101208201518160060160166101000a81548160ff0219169083151502179055506101408201518160060160176101000a81548160ff0219169083151502179055509050507f44c53be110c6aa83aa83cd02e351ed172359268272ee1b5d31c0fe48db35c6c7858585426119e59190613ca5565b6040516119f493929190613cd8565b60405180910390a15050505050565b5f60065f8381526020019081526020015f2090508060060160149054906101000a900460ff16611a68576040517f08c379a0000000000000000000000000000000000000000000000000000000008152600401611a5f906139ad565b60405180910390fd5b8060020154421015611aaf576040517f08c379a0000000000000000000000000000000000000000000000000000000008152600401611aa6906133c6565b60405180910390fd5b5f8160060160146101000a81548160ff02191690831515021790555060018160060160156101000a81548160ff021916908315150217905550611af182612a95565b7fd2aa34a4fdbbc6dff6a3e56f46e0f3ae2a31d7785ff3487aa5c95c642acea50182826003015f9054906101000a900473ffffffffffffffffffffffffffffffffffffffff168360040154604051611b4b93929190613b38565b60405180910390a15050565b805f73ffffffffffffffffffffffffffffffffffffffff1660085f8381526020019081526020015f205f9054906101000a900473ffffffffffffffffffffffffffffffffffffffff1673ffffffffffffffffffffffffffffffffffffffff1603611bf6576040517f08c379a0000000000000000000000000000000000000000000000000000000008152600401611bed90613bb7565b60405180910390fd5b5f73ffffffffffffffffffffffffffffffffffffffff1660085f8481526020019081526020015f205f9054906101000a900473ffffffffffffffffffffffffffffffffffffffff1673ffffffffffffffffffffffffffffffffffffffff1603611c94576040517f08c379a0000000000000000000000000000000000000000000000000000000008152600401611c8b90613d57565b60405180910390fd5b60065f8381526020019081526020015f2060060160149054906101000a900460ff1615611cf6576040517f08c379a0000000000000000000000000000000000000000000000000000000008152600401611ced90613dbf565b60405180910390fd5b5f60055f8481526020019081526020015f206040518060400160405290815f8201548152602001600182015f9054906101000a900473ffffffffffffffffffffffffffffffffffffffff1673ffffffffffffffffffffffffffffffffffffffff1673ffffffffffffffffffffffffffffffffffffffff168152505090505f815f015111611db8576040517f08c379a0000000000000000000000000000000000000000000000000000000008152600401611daf90613e27565b60405180910390fd5b806020015173ffffffffffffffffffffffffffffffffffffffff163373ffffffffffffffffffffffffffffffffffffffff1603611e2a576040517f08c379a0000000000000000000000000000000000000000000000000000000008152600401611e2190613e8f565b60405180910390fd5b5f5f5f9054906101000a900473ffffffffffffffffffffffffffffffffffffffff1673ffffffffffffffffffffffffffffffffffffffff166323b872dd338460200151855f01516040518463ffffffff1660e01b8152600401611e8f93929190613a9b565b6020604051808303815f875af1158015611eab573d5f5f3e3d5ffd5b505050506040513d601f19601f82011682018060405250810190611ecf9190613938565b905080611f11576040517f08c379a0000000000000000000000000000000000000000000000000000000008152600401611f0890613ef7565b60405180910390fd5b5f826020015190503360085f8781526020019081526020015f205f6101000a81548173ffffffffffffffffffffffffffffffffffffffff021916908373ffffffffffffffffffffffffffffffffffffffff16021790555060095f8273ffffffffffffffffffffffffffffffffffffffff1673ffffffffffffffffffffffffffffffffffffffff1681526020019081526020015f205f815480929190611fb590613f15565b919050555060095f3373ffffffffffffffffffffffffffffffffffffffff1673ffffffffffffffffffffffffffffffffffffffff1681526020019081526020015f205f81548092919061200790613479565b919050555060055f8681526020019081526020015f205f5f82015f9055600182015f6101000a81549073ffffffffffffffffffffffffffffffffffffffff021916905550507f5f0544350104105a633eb4702d5cfa369eb1b1e1f5e5be7a5f1856ac84390b4d8533855f015160405161208293929190613b38565b60405180910390a13373ffffffffffffffffffffffffffffffffffffffff168173ffffffffffffffffffffffffffffffffffffffff167fddf252ad1be2c89b69c2b068fc378daa952ba7f163c4a11628f55a4df523b3ef876040516120e79190612c5e565b60405180910390a35050505050565b5f5f9054906101000a900473ffffffffffffffffffffffffffffffffffffffff1681565b60015f9054906101000a900473ffffffffffffffffffffffffffffffffffffffff1681565b6060600c80548060200260200160405190810160405280929190818152602001828054801561218b57602002820191905f5260205f20905b815481526020019060010190808311612177575b5050505050905090565b600d602052815f5260405f2081815481106121ae575f80fd5b905f5260205f20015f915091509054906101000a900473ffffffffffffffffffffffffffffffffffffffff1681565b6005602052805f5260405f205f91509050805f015490806001015f9054906101000a900473ffffffffffffffffffffffffffffffffffffffff16905082565b600b602052815f5260405f20602052805f5260405f205f915091509054906101000a900460ff1681565b815f73ffffffffffffffffffffffffffffffffffffffff1660085f8381526020019081526020015f205f9054906101000a900473ffffffffffffffffffffffffffffffffffffffff1673ffffffffffffffffffffffffffffffffffffffff16036122e5576040517f08c379a00000000000000000000000000000000000000000000000000000000081526004016122dc90613bb7565b60405180910390fd5b823373ffffffffffffffffffffffffffffffffffffffff1660085f8381526020019081526020015f205f9054906101000a900473ffffffffffffffffffffffffffffffffffffffff1673ffffffffffffffffffffffffffffffffffffffff1614612384576040517f08c379a000000000000000000000000000000000000000000000000000000000815260040161237b90613c1f565b60405180910390fd5b60065f8581526020019081526020015f2060060160149054906101000a900460ff16156123e6576040517f08c379a00000000000000000000000000000000000000000000000000000000081526004016123dd90613dbf565b60405180910390fd5b5f8311612428576040517f08c379a000000000000000000000000000000000000000000000000000000000815260040161241f90613f86565b60405180910390fd5b60405180604001604052808481526020013373ffffffffffffffffffffffffffffffffffffffff1681525060055f8681526020019081526020015f205f820151815f01556020820151816001015f6101000a81548173ffffffffffffffffffffffffffffffffffffffff021916908373ffffffffffffffffffffffffffffffffffffffff1602179055509050507feec9fb041fa14d227fc0e64a3e630e1a685941c91dfb622450481abf5fc5a0e58484336040516124e893929190613fa4565b60405180910390a150505050565b5f60065f8381526020019081526020015f2090508060060160159054906101000a900460ff1661255b576040517f08c379a000000000000000000000000000000000000000000000000000000000815260040161255290613809565b60405180910390fd5b806003015f9054906101000a900473ffffffffffffffffffffffffffffffffffffffff1673ffffffffffffffffffffffffffffffffffffffff163373ffffffffffffffffffffffffffffffffffffffff16146125ec576040517f08c379a00000000000000000000000000000000000000000000000000000000081526004016125e390614023565b60405180910390fd5b8060060160169054906101000a900460ff161561263e576040517f08c379a000000000000000000000000000000000000000000000000000000000815260040161263590613871565b60405180910390fd5b5f816006015f9054906101000a900473ffffffffffffffffffffffffffffffffffffffff1690503360085f8581526020019081526020015f205f6101000a81548173ffffffffffffffffffffffffffffffffffffffff021916908373ffffffffffffffffffffffffffffffffffffffff16021790555060095f8273ffffffffffffffffffffffffffffffffffffffff1673ffffffffffffffffffffffffffffffffffffffff1681526020019081526020015f205f81548092919061270190613f15565b919050555060095f3373ffffffffffffffffffffffffffffffffffffffff1673ffffffffffffffffffffffffffffffffffffffff1681526020019081526020015f205f81548092919061275390613479565b91905055505f5f9054906101000a900473ffffffffffffffffffffffffffffffffffffffff1673ffffffffffffffffffffffffffffffffffffffff1663a9059cbb8284600401546040518363ffffffff1660e01b81526004016127b7929190612c10565b6020604051808303815f875af11580156127d3573d5f5f3e3d5ffd5b505050506040513d601f19601f820116820180604052508101906127f79190613938565b5060018260060160166101000a81548160ff0219169083151502179055503373ffffffffffffffffffffffffffffffffffffffff168173ffffffffffffffffffffffffffffffffffffffff167fddf252ad1be2c89b69c2b068fc378daa952ba7f163c4a11628f55a4df523b3ef856040516128729190612c5e565b60405180910390a3505050565b5f73ffffffffffffffffffffffffffffffffffffffff168273ffffffffffffffffffffffffffffffffffffffff16036128ed576040517f08c379a00000000000000000000000000000000000000000000000000000000081526004016128e4906140b1565b60405180910390fd5b5f73ffffffffffffffffffffffffffffffffffffffff1660085f8381526020019081526020015f205f9054906101000a900473ffffffffffffffffffffffffffffffffffffffff1673ffffffffffffffffffffffffffffffffffffffff161461298b576040517f08c379a000000000000000000000000000000000000000000000000000000000815260040161298290614119565b60405180910390fd5b60095f8373ffffffffffffffffffffffffffffffffffffffff1673ffffffffffffffffffffffffffffffffffffffff1681526020019081526020015f205f8154809291906129d890613479565b91905055508160085f8381526020019081526020015f205f6101000a81548173ffffffffffffffffffffffffffffffffffffffff021916908373ffffffffffffffffffffffffffffffffffffffff1602179055508173ffffffffffffffffffffffffffffffffffffffff165f73ffffffffffffffffffffffffffffffffffffffff167fddf252ad1be2c89b69c2b068fc378daa952ba7f163c4a11628f55a4df523b3ef83604051612a899190612c5e565b60405180910390a35050565b5f5f90505b600c80549050811015612b4f5781600c8281548110612abc57612abb6138f7565b5b905f5260205f20015403612b4257600c6001600c80549050612ade9190614137565b81548110612aef57612aee6138f7565b5b905f5260205f200154600c8281548110612b0c57612b0b6138f7565b5b905f5260205f200181905550600c805480612b2a57612b2961416a565b5b600190038181905f5260205f20015f90559055612b4f565b8080600101915050612a9a565b5050565b5f604051905090565b5f5ffd5b5f5ffd5b5f819050919050565b612b7681612b64565b8114612b80575f5ffd5b50565b5f81359050612b9181612b6d565b92915050565b5f60208284031215612bac57612bab612b5c565b5b5f612bb984828501612b83565b91505092915050565b5f73ffffffffffffffffffffffffffffffffffffffff82169050919050565b5f612beb82612bc2565b9050919050565b612bfb81612be1565b82525050565b612c0a81612b64565b82525050565b5f604082019050612c235f830185612bf2565b612c306020830184612c01565b9392505050565b5f604082019050612c4a5f830185612c01565b612c576020830184612bf2565b9392505050565b5f602082019050612c715f830184612c01565b92915050565b612c8081612be1565b8114612c8a575f5ffd5b50565b5f81359050612c9b81612c77565b92915050565b5f5f60408385031215612cb757612cb6612b5c565b5b5f612cc485828601612b83565b9250506020612cd585828601612c8d565b9150509250929050565b5f5ffd5b5f5ffd5b5f601f19601f8301169050919050565b7f4e487b71000000000000000000000000000000000000000000000000000000005f52604160045260245ffd5b612d2d82612ce7565b810181811067ffffffffffffffff82111715612d4c57612d4b612cf7565b5b80604052505050565b5f612d5e612b53565b9050612d6a8282612d24565b919050565b5f67ffffffffffffffff821115612d8957612d88612cf7565b5b612d9282612ce7565b9050602081019050919050565b828183375f83830152505050565b5f612dbf612dba84612d6f565b612d55565b905082815260208101848484011115612ddb57612dda612ce3565b5b612de6848285612d9f565b509392505050565b5f82601f830112612e0257612e01612cdf565b5b8135612e12848260208601612dad565b91505092915050565b5f60ff82169050919050565b612e3081612e1b565b8114612e3a575f5ffd5b50565b5f81359050612e4b81612e27565b92915050565b5f8115159050919050565b612e6581612e51565b8114612e6f575f5ffd5b50565b5f81359050612e8081612e5c565b92915050565b5f5f5f5f5f5f5f60e0888a031215612ea157612ea0612b5c565b5b5f612eae8a828b01612c8d565b975050602088013567ffffffffffffffff811115612ecf57612ece612b60565b5b612edb8a828b01612dee565b9650506040612eec8a828b01612b83565b9550506060612efd8a828b01612b83565b9450506080612f0e8a828b01612b83565b93505060a0612f1f8a828b01612e3d565b92505060c0612f308a828b01612e72565b91505092959891949750929550565b5f60208284031215612f5457612f53612b5c565b5b5f82013567ffffffffffffffff811115612f7157612f70612b60565b5b612f7d84828501612dee565b91505092915050565b5f81519050919050565b5f82825260208201905092915050565b8281835e5f83830152505050565b5f612fb882612f86565b612fc28185612f90565b9350612fd2818560208601612fa0565b612fdb81612ce7565b840191505092915050565b5f6020820190508181035f830152612ffe8184612fae565b905092915050565b61300f81612e51565b82525050565b5f610160820190506130295f83018e612c01565b613036602083018d612c01565b613043604083018c612c01565b613050606083018b612bf2565b61305d608083018a612c01565b61306a60a0830189612c01565b61307760c0830188612bf2565b61308460e0830187613006565b613092610100830186613006565b6130a0610120830185613006565b6130ae610140830184613006565b9c9b505050505050505050505050565b5f5f604083850312156130d4576130d3612b5c565b5b5f6130e185828601612b83565b92505060206130f285828601612b83565b9150509250929050565b5f60208201905061310f5f830184612bf2565b92915050565b61311e81612e1b565b82525050565b5f60c0820190508181035f83015261313c8189612fae565b905061314b6020830188612c01565b6131586040830187612c01565b6131656060830186612c01565b6131726080830185613115565b61317f60a0830184613006565b979650505050505050565b5f5f5f606084860312156131a1576131a0612b5c565b5b5f6131ae86828701612b83565b93505060206131bf86828701612b83565b92505060406131d086828701612b83565b9150509250925092565b5f819050919050565b5f6131fd6131f86131f384612bc2565b6131da565b612bc2565b9050919050565b5f61320e826131e3565b9050919050565b5f61321f82613204565b9050919050565b61322f81613215565b82525050565b5f6020820190506132485f830184613226565b92915050565b5f81519050919050565b5f82825260208201905092915050565b5f819050602082019050919050565b61328081612b64565b82525050565b5f6132918383613277565b60208301905092915050565b5f602082019050919050565b5f6132b38261324e565b6132bd8185613258565b93506132c883613268565b805f5b838110156132f85781516132df8882613286565b97506132ea8361329d565b9250506001810190506132cb565b5085935050505092915050565b5f6020820190508181035f83015261331d81846132a9565b905092915050565b5f5f6040838503121561333b5761333a612b5c565b5b5f61334885828601612c8d565b925050602061335985828601612c8d565b9150509250929050565b5f6020820190506133765f830184613006565b92915050565b7f41756374696f6e206e6f7420656e6465642079657400000000000000000000005f82015250565b5f6133b0601583612f90565b91506133bb8261337c565b602082019050919050565b5f6020820190508181035f8301526133dd816133a4565b9050919050565b7f4e6f7420636f6e7472616374206f776e657200000000000000000000000000005f82015250565b5f613418601283612f90565b9150613423826133e4565b602082019050919050565b5f6020820190508181035f8301526134458161340c565b9050919050565b7f4e487b71000000000000000000000000000000000000000000000000000000005f52601160045260245ffd5b5f61348382612b64565b91507fffffffffffffffffffffffffffffffffffffffffffffffffffffffffffffffff82036134b5576134b461344c565b5b600182019050919050565b7f4e487b71000000000000000000000000000000000000000000000000000000005f52602260045260245ffd5b5f600282049050600182168061350457607f821691505b602082108103613517576135166134c0565b5b50919050565b5f819050815f5260205f209050919050565b5f6020601f8301049050919050565b5f82821b905092915050565b5f600883026135797fffffffffffffffffffffffffffffffffffffffffffffffffffffffffffffffff8261353e565b613583868361353e565b95508019841693508086168417925050509392505050565b5f6135b56135b06135ab84612b64565b6131da565b612b64565b9050919050565b5f819050919050565b6135ce8361359b565b6135e26135da826135bc565b84845461354a565b825550505050565b5f5f905090565b6135f96135ea565b6136048184846135c5565b505050565b5b818110156136275761361c5f826135f1565b60018101905061360a565b5050565b601f82111561366c5761363d8161351d565b6136468461352f565b81016020851015613655578190505b6136696136618561352f565b830182613609565b50505b505050565b5f82821c905092915050565b5f61368c5f1984600802613671565b1980831691505092915050565b5f6136a4838361367d565b9150826002028217905092915050565b6136bd82612f86565b67ffffffffffffffff8111156136d6576136d5612cf7565b5b6136e082546134ed565b6136eb82828561362b565b5f60209050601f83116001811461371c575f841561370a578287015190505b6137148582613699565b86555061377b565b601f19841661372a8661351d565b5f5b828110156137515784890151825560018201915060208501945060208101905061372c565b8683101561376e578489015161376a601f89168261367d565b8355505b6001600288020188555050505b505050505050565b5f6060820190506137965f830186612c01565b81810360208301526137a88185612fae565b90506137b76040830184612bf2565b949350505050565b7f41756374696f6e206e6f7420656e6465640000000000000000000000000000005f82015250565b5f6137f3601183612f90565b91506137fe826137bf565b602082019050919050565b5f6020820190508181035f830152613820816137e7565b9050919050565b7f416c726561647920636c61696d656400000000000000000000000000000000005f82015250565b5f61385b600f83612f90565b915061386682613827565b602082019050919050565b5f6020820190508181035f8301526138888161384f565b9050919050565b7f416c726561647920726566756e646564000000000000000000000000000000005f82015250565b5f6138c3601083612f90565b91506138ce8261388f565b602082019050919050565b5f6020820190508181035f8301526138f0816138b7565b9050919050565b7f4e487b71000000000000000000000000000000000000000000000000000000005f52603260045260245ffd5b5f8151905061393281612e5c565b92915050565b5f6020828403121561394d5761394c612b5c565b5b5f61395a84828501613924565b91505092915050565b7f41756374696f6e206e6f742061637469766500000000000000000000000000005f82015250565b5f613997601283612f90565b91506139a282613963565b602082019050919050565b5f6020820190508181035f8301526139c48161398b565b9050919050565b7f41756374696f6e20656e646564000000000000000000000000000000000000005f82015250565b5f6139ff600d83612f90565b9150613a0a826139cb565b602082019050919050565b5f6020820190508181035f830152613a2c816139f3565b9050919050565b7f42696420746f6f206c6f770000000000000000000000000000000000000000005f82015250565b5f613a67600b83612f90565b9150613a7282613a33565b602082019050919050565b5f6020820190508181035f830152613a9481613a5b565b9050919050565b5f606082019050613aae5f830186612bf2565b613abb6020830185612bf2565b613ac86040830184612c01565b949350505050565b7f5472616e73666572206661696c656400000000000000000000000000000000005f82015250565b5f613b04600f83612f90565b9150613b0f82613ad0565b602082019050919050565b5f6020820190508181035f830152613b3181613af8565b9050919050565b5f606082019050613b4b5f830186612c01565b613b586020830185612bf2565b613b656040830184612c01565b949350505050565b7f4361726420646f6573206e6f74206578697374000000000000000000000000005f82015250565b5f613ba1601383612f90565b9150613bac82613b6d565b602082019050919050565b5f6020820190508181035f830152613bce81613b95565b9050919050565b7f4e6f7420746865206f776e6572000000000000000000000000000000000000005f82015250565b5f613c09600d83612f90565b9150613c1482613bd5565b602082019050919050565b5f6020820190508181035f830152613c3681613bfd565b9050919050565b7f41756374696f6e20616c726561647920616374697665000000000000000000005f82015250565b5f613c71601683612f90565b9150613c7c82613c3d565b602082019050919050565b5f6020820190508181035f830152613c9e81613c65565b9050919050565b5f613caf82612b64565b9150613cba83612b64565b9250828201905080821115613cd257613cd161344c565b5b92915050565b5f606082019050613ceb5f830186612c01565b613cf86020830185612c01565b613d056040830184612c01565b949350505050565b7f43617264206e6f74206d696e74656400000000000000000000000000000000005f82015250565b5f613d41600f83612f90565b9150613d4c82613d0d565b602082019050919050565b5f6020820190508181035f830152613d6e81613d35565b9050919050565b7f4361726420696e2061756374696f6e00000000000000000000000000000000005f82015250565b5f613da9600f83612f90565b9150613db482613d75565b602082019050919050565b5f6020820190508181035f830152613dd681613d9d565b9050919050565b7f43617264206e6f74206c697374656400000000000000000000000000000000005f82015250565b5f613e11600f83612f90565b9150613e1c82613ddd565b602082019050919050565b5f6020820190508181035f830152613e3e81613e05565b9050919050565b7f43616e6e6f742062757920796f7572206f776e206361726400000000000000005f82015250565b5f613e79601883612f90565b9150613e8482613e45565b602082019050919050565b5f6020820190508181035f830152613ea681613e6d565b9050919050565b7f596f6461207472616e73666572206661696c65640000000000000000000000005f82015250565b5f613ee1601483612f90565b9150613eec82613ead565b602082019050919050565b5f6020820190508181035f830152613f0e81613ed5565b9050919050565b5f613f1f82612b64565b91505f8203613f3157613f3061344c565b5b600182039050919050565b7f5072696365206d757374206265203e20300000000000000000000000000000005f82015250565b5f613f70601183612f90565b9150613f7b82613f3c565b602082019050919050565b5f6020820190508181035f830152613f9d81613f64565b9050919050565b5f606082019050613fb75f830186612c01565b613fc46020830185612c01565b613fd16040830184612bf2565b949350505050565b7f4e6f742077696e6e6572000000000000000000000000000000000000000000005f82015250565b5f61400d600a83612f90565b915061401882613fd9565b602082019050919050565b5f6020820190508181035f83015261403a81614001565b9050919050565b7f496e76616c696420616464726573732f206d696e7420746f207a65726f2061645f8201527f6472657373000000000000000000000000000000000000000000000000000000602082015250565b5f61409b602583612f90565b91506140a682614041565b604082019050919050565b5f6020820190508181035f8301526140c88161408f565b9050919050565b7f4361726420616c7265616479206d696e746564000000000000000000000000005f82015250565b5f614103601383612f90565b915061410e826140cf565b602082019050919050565b5f6020820190508181035f830152614130816140f7565b9050919050565b5f61414182612b64565b915061414c83612b64565b92508282039050818111156141645761416361344c565b5b92915050565b7f4e487b71000000000000000000000000000000000000000000000000000000005f52603160045260245ffdfea2646970667358221220e696367c9787502fb18da7918a0131d07817fc8121fe130eac588b0c1d6584f464736f6c634300081c0033",
  "linkReferences": {},
  "deployedLinkReferences": {},
  "immutableReferences": {},
  "inputSourceName": "project/contracts/pokemonsc.sol",
  "buildInfoId": "solc-0_8_28-2b84121582dc66c0c6458a8caefb292ecbaf091c"
}