{
  "_format": "hh3-artifact-1",
  "contractName": "PokemonFTCG",
  "sourceName": "contracts/pokemonsc.sol",
  "abi": [
    {
      "inputs": [
        {
          "internalType": "address",
          "name": "_yodaTokenAddr",
          "type": "address"
        }
      ],
      "stateMutability": "nonpayable",
      "type": "constructor"
    },
    {
      "anonymous": false,
      "inputs": [
        {
          "indexed": true,
          "internalType": "address",
          "name": "owner",
          "type": "address"
        },
        {
          "indexed": true,
          "internalType": "address",
          "name": "buyer",
          "type": "address"
        },
        {
          "indexed": false,
          "internalType": "uint256",
          "name": "tokenId",
          "type": "uint256"
        }
      ],
      "name": "Approval",
      "type": "event"
    },
    {
      "anonymous": false,
      "inputs": [
        {
          "indexed": true,
          "internalType": "address",
          "name": "owner",
          "type": "address"
        },
        {
          "indexed": true,
          "internalType": "address",
          "name": "operator",
          "type": "address"
        },
        {
          "indexed": false,
          "internalType": "bool",
          "name": "approved",
          "type": "bool"
        }
      ],
      "name": "ApprovedForAll",
      "type": "event"
    },
    {
      "anonymous": false,
      "inputs": [
        {
          "indexed": false,
          "internalType": "uint256",
          "name": "tokenId",
          "type": "uint256"
        },
        {
          "indexed": false,
          "internalType": "address",
          "name": "winner",
          "type": "address"
        },
        {
          "indexed": false,
          "internalType": "uint256",
          "name": "amount",
          "type": "uint256"
        }
      ],
      "name": "AuctionEnded",
      "type": "event"
    },
    {
      "anonymous": false,
      "inputs": [
        {
          "indexed": false,
          "internalType": "uint256",
          "name": "tokenId",
          "type": "uint256"
        },
        {
          "indexed": false,
          "internalType": "uint256",
          "name": "startingBid",
          "type": "uint256"
        },
        {
          "indexed": false,
          "internalType": "uint256",
          "name": "endTime",
          "type": "uint256"
        }
      ],
      "name": "AuctionStarted",
      "type": "event"
    },
    {
      "anonymous": false,
      "inputs": [
        {
          "indexed": false,
          "internalType": "uint256",
          "name": "tokenId",
          "type": "uint256"
        },
        {
          "indexed": false,
          "internalType": "uint256",
          "name": "price",
          "type": "uint256"
        },
        {
          "indexed": false,
          "internalType": "address",
          "name": "seller",
          "type": "address"
        }
      ],
      "name": "CardListed",
      "type": "event"
    },
    {
      "anonymous": false,
      "inputs": [
        {
          "indexed": false,
          "internalType": "uint256",
          "name": "tokenId",
          "type": "uint256"
        },
        {
          "indexed": false,
          "internalType": "string",
          "name": "name",
          "type": "string"
        },
        {
          "indexed": false,
          "internalType": "address",
          "name": "owner",
          "type": "address"
        }
      ],
      "name": "CardMinted",
      "type": "event"
    },
    {
      "anonymous": false,
      "inputs": [
        {
          "indexed": false,
          "internalType": "uint256",
          "name": "tokenId",
          "type": "uint256"
        },
        {
          "indexed": false,
          "internalType": "address",
          "name": "buyer",
          "type": "address"
        },
        {
          "indexed": false,
          "internalType": "uint256",
          "name": "price",
          "type": "uint256"
        }
      ],
      "name": "CardPurchased",
      "type": "event"
    },
    {
      "anonymous": false,
      "inputs": [
        {
          "indexed": false,
          "internalType": "uint256",
          "name": "tokenId",
          "type": "uint256"
        },
        {
          "indexed": false,
          "internalType": "address",
          "name": "bidder",
          "type": "address"
        },
        {
          "indexed": false,
          "internalType": "uint256",
          "name": "amount",
          "type": "uint256"
        }
      ],
      "name": "NewBid",
      "type": "event"
    },
    {
      "anonymous": false,
      "inputs": [
        {
          "indexed": true,
          "internalType": "address",
          "name": "from",
          "type": "address"
        },
        {
          "indexed": true,
          "internalType": "address",
          "name": "to",
          "type": "address"
        },
        {
          "indexed": false,
          "internalType": "uint256",
          "name": "tokenId",
          "type": "uint256"
        }
      ],
      "name": "Transfer",
      "type": "event"
    },
    {
      "inputs": [],
      "name": "_nextTokenId",
      "outputs": [
        {
          "internalType": "uint256",
          "name": "",
          "type": "uint256"
        }
      ],
      "stateMutability": "view",
      "type": "function"
    },
    {
      "inputs": [
        {
          "internalType": "uint256",
          "name": "",
          "type": "uint256"
        }
      ],
      "name": "activeAuctions",
      "outputs": [
        {
          "internalType": "uint256",
          "name": "",
          "type": "uint256"
        }
      ],
      "stateMutability": "view",
      "type": "function"
    },
    {
      "inputs": [
        {
          "internalType": "uint256",
          "name": "",
          "type": "uint256"
        }
      ],
      "name": "auctions",
      "outputs": [
        {
          "internalType": "uint256",
          "name": "startingPrice",
          "type": "uint256"
        },
        {
          "internalType": "uint256",
          "name": "currentPrice",
          "type": "uint256"
        },
        {
          "internalType": "uint256",
          "name": "endTime",
          "type": "uint256"
        },
        {
          "internalType": "address",
          "name": "highestBidder",
          "type": "address"
        },
        {
          "internalType": "uint256",
          "name": "highestBid",
          "type": "uint256"
        },
        {
          "internalType": "uint256",
          "name": "tokenId",
          "type": "uint256"
        },
        {
          "internalType": "address",
          "name": "seller",
          "type": "address"
        },
        {
          "internalType": "bool",
          "name": "active",
          "type": "bool"
        },
        {
          "internalType": "bool",
          "name": "ended",
          "type": "bool"
        },
        {
          "internalType": "bool",
          "name": "claimed",
          "type": "bool"
        },
        {
          "internalType": "bool",
          "name": "refunded",
          "type": "bool"
        }
      ],
      "stateMutability": "view",
      "type": "function"
    },
    {
      "inputs": [
        {
          "internalType": "uint256",
          "name": "",
          "type": "uint256"
        },
        {
          "internalType": "address",
          "name": "",
          "type": "address"
        }
      ],
      "name": "bidAmount",
      "outputs": [
        {
          "internalType": "uint256",
          "name": "",
          "type": "uint256"
        }
      ],
      "stateMutability": "view",
      "type": "function"
    },
    {
      "inputs": [
        {
          "internalType": "uint256",
          "name": "",
          "type": "uint256"
        },
        {
          "internalType": "uint256",
          "name": "",
          "type": "uint256"
        }
      ],
      "name": "bidders",
      "outputs": [
        {
          "internalType": "address",
          "name": "",
          "type": "address"
        }
      ],
      "stateMutability": "view",
      "type": "function"
    },
    {
      "inputs": [
        {
          "internalType": "uint256",
          "name": "cardId",
          "type": "uint256"
        }
      ],
      "name": "buyCard",
      "outputs": [],
      "stateMutability": "nonpayable",
      "type": "function"
    },
    {
      "inputs": [
        {
          "internalType": "uint256",
          "name": "tokenId",
          "type": "uint256"
        }
      ],
      "name": "cancelListing",
      "outputs": [],
      "stateMutability": "nonpayable",
      "type": "function"
    },
    {
      "inputs": [
        {
          "internalType": "string",
          "name": "",
          "type": "string"
        }
      ],
      "name": "cardToImage",
      "outputs": [
        {
          "internalType": "string",
          "name": "",
          "type": "string"
        }
      ],
      "stateMutability": "view",
      "type": "function"
    },
    {
      "inputs": [
        {
          "internalType": "uint256",
          "name": "",
          "type": "uint256"
        }
      ],
      "name": "cards",
      "outputs": [
        {
          "internalType": "string",
          "name": "name",
          "type": "string"
        },
        {
          "internalType": "uint256",
          "name": "attack",
          "type": "uint256"
        },
        {
          "internalType": "uint256",
          "name": "defense",
          "type": "uint256"
        },
        {
          "internalType": "uint256",
          "name": "hp",
          "type": "uint256"
        },
        {
          "internalType": "uint8",
          "name": "rarity",
          "type": "uint8"
        },
        {
          "internalType": "bool",
          "name": "Shiny",
          "type": "bool"
        }
      ],
      "stateMutability": "view",
      "type": "function"
    },
    {
      "inputs": [
        {
          "internalType": "uint256",
          "name": "tokenId",
          "type": "uint256"
        }
      ],
      "name": "claimNFT",
      "outputs": [],
      "stateMutability": "nonpayable",
      "type": "function"
    },
    {
      "inputs": [],
      "name": "contractOwner",
      "outputs": [
        {
          "internalType": "address",
          "name": "",
          "type": "address"
        }
      ],
      "stateMutability": "view",
      "type": "function"
    },
    {
      "inputs": [
        {
          "internalType": "uint256",
          "name": "tokenId",
          "type": "uint256"
        }
      ],
      "name": "endAuction",
      "outputs": [],
      "stateMutability": "nonpayable",
      "type": "function"
    },
    {
      "inputs": [],
      "name": "getActiveAuctions",
      "outputs": [
        {
          "internalType": "uint256[]",
          "name": "",
          "type": "uint256[]"
        }
      ],
      "stateMutability": "view",
      "type": "function"
    },
    {
      "inputs": [
        {
          "internalType": "uint256",
          "name": "tokenId",
          "type": "uint256"
        }
      ],
      "name": "getAuctionWinner",
      "outputs": [
        {
          "internalType": "address",
          "name": "",
          "type": "address"
        },
        {
          "internalType": "uint256",
          "name": "",
          "type": "uint256"
        }
      ],
      "stateMutability": "view",
      "type": "function"
    },
    {
      "inputs": [
        {
          "internalType": "uint256",
          "name": "tokenId",
          "type": "uint256"
        }
      ],
      "name": "getListing",
      "outputs": [
        {
          "internalType": "uint256",
          "name": "price",
          "type": "uint256"
        },
        {
          "internalType": "address",
          "name": "seller",
          "type": "address"
        }
      ],
      "stateMutability": "view",
      "type": "function"
    },
    {
      "inputs": [
        {
          "internalType": "address",
          "name": "",
          "type": "address"
        },
        {
          "internalType": "address",
          "name": "",
          "type": "address"
        }
      ],
      "name": "isApprovedForAll",
      "outputs": [
        {
          "internalType": "bool",
          "name": "",
          "type": "bool"
        }
      ],
      "stateMutability": "view",
      "type": "function"
    },
    {
      "inputs": [
        {
          "internalType": "uint256",
          "name": "cardId",
          "type": "uint256"
        },
        {
          "internalType": "uint256",
          "name": "price",
          "type": "uint256"
        }
      ],
      "name": "listCard",
      "outputs": [],
      "stateMutability": "nonpayable",
      "type": "function"
    },
    {
      "inputs": [
        {
          "internalType": "uint256",
          "name": "",
          "type": "uint256"
        }
      ],
      "name": "listings",
      "outputs": [
        {
          "internalType": "uint256",
          "name": "price",
          "type": "uint256"
        },
        {
          "internalType": "address",
          "name": "seller",
          "type": "address"
        }
      ],
      "stateMutability": "view",
      "type": "function"
    },
    {
      "inputs": [
        {
          "internalType": "address",
          "name": "to",
          "type": "address"
        },
        {
          "internalType": "string",
          "name": "name",
          "type": "string"
        },
        {
          "internalType": "uint256",
          "name": "attack",
          "type": "uint256"
        },
        {
          "internalType": "uint256",
          "name": "defense",
          "type": "uint256"
        },
        {
          "internalType": "uint256",
          "name": "hp",
          "type": "uint256"
        },
        {
          "internalType": "uint8",
          "name": "rarity",
          "type": "uint8"
        },
        {
          "internalType": "bool",
          "name": "shiny",
          "type": "bool"
        }
      ],
      "name": "mintCard",
      "outputs": [],
      "stateMutability": "nonpayable",
      "type": "function"
    },
    {
      "inputs": [],
      "name": "mintPrice",
      "outputs": [
        {
          "internalType": "uint256",
          "name": "",
          "type": "uint256"
        }
      ],
      "stateMutability": "view",
      "type": "function"
    },
    {
      "inputs": [
        {
          "internalType": "uint256",
          "name": "tokenId",
          "type": "uint256"
        }
      ],
      "name": "ownerOf",
      "outputs": [
        {
          "internalType": "address",
          "name": "",
          "type": "address"
        }
      ],
      "stateMutability": "view",
      "type": "function"
    },
    {
      "inputs": [
        {
          "internalType": "uint256",
          "name": "tokenId",
          "type": "uint256"
        },
        {
          "internalType": "uint256",
          "name": "amount",
          "type": "uint256"
        }
      ],
      "name": "placeBid",
      "outputs": [],
      "stateMutability": "nonpayable",
      "type": "function"
    },
    {
      "inputs": [
        {
          "internalType": "uint256",
          "name": "tokenId",
          "type": "uint256"
        }
      ],
      "name": "refundBids",
      "outputs": [],
      "stateMutability": "nonpayable",
      "type": "function"
    },
    {
      "inputs": [
        {
          "internalType": "uint256",
          "name": "tokenId",
          "type": "uint256"
        },
        {
          "internalType": "uint256",
          "name": "startingPrice",
          "type": "uint256"
        },
        {
          "internalType": "uint256",
          "name": "duration",
          "type": "uint256"
        }
      ],
      "name": "startAuction",
      "outputs": [],
      "stateMutability": "nonpayable",
      "type": "function"
    },
    {
      "inputs": [],
      "name": "yodaToken",
      "outputs": [
        {
          "internalType": "contract IERC20",
          "name": "",
          "type": "address"
        }
      ],
      "stateMutability": "view",
      "type": "function"
    }
  ],
  "bytecode": "0x608060405234801561000f575f5ffd5b506040516142d73803806142d783398181016040528101906100319190610114565b805f5f6101000a81548173ffffffffffffffffffffffffffffffffffffffff021916908373ffffffffffffffffffffffffffffffffffffffff1602179055503360015f6101000a81548173ffffffffffffffffffffffffffffffffffffffff021916908373ffffffffffffffffffffffffffffffffffffffff1602179055505061013f565b5f5ffd5b5f73ffffffffffffffffffffffffffffffffffffffff82169050919050565b5f6100e3826100ba565b9050919050565b6100f3816100d9565b81146100fd575f5ffd5b50565b5f8151905061010e816100ea565b92915050565b5f60208284031215610129576101286100b6565b5b5f61013684828501610100565b91505092915050565b61418b8061014c5f395ff3fe608060405234801561000f575f5ffd5b5060043610610171575f3560e01c8063790d8596116100dc578063ce606ee011610095578063de74e57b1161006f578063de74e57b14610490578063e985e9c5146104c1578063ed36c52f146104f1578063fe5c873a1461050d57610171565b8063ce606ee014610424578063cf44b5d514610442578063d1c112051461046057610171565b8063790d85961461034d5780638dc107681461037d57806391e078bb146103b2578063b9a2de3a146103ce578063c70f5eaa146103ea578063cdc645381461040657610171565b80633f7e2cec1161012e5780633f7e2cec1461025b5780634a60f6201461028b578063571a26a0146102a957806357c90de5146102e35780636352211e146102ff5780636817c76c1461032f57610171565b8063083d353b14610175578063107a274a146101a65780632d3f2b05146101d7578063305a67a81461020757806331b62fca146102235780633b20340a1461023f575b5f5ffd5b61018f600480360381019061018a9190612b55565b610529565b60405161019d929190612bce565b60405180910390f35b6101c060048036038101906101bb9190612b55565b6106eb565b6040516101ce929190612bf5565b60405180910390f35b6101f160048036038101906101ec9190612c46565b61077d565b6040516101fe9190612c84565b60405180910390f35b610221600480360381019061021c9190612b55565b61079d565b005b61023d60048036038101906102389190612e44565b61084a565b005b61025960048036038101906102549190612b55565b6109f9565b005b61027560048036038101906102709190612efd565b610d93565b6040516102829190612fa4565b60405180910390f35b610293610e46565b6040516102a09190612c84565b60405180910390f35b6102c360048036038101906102be9190612b55565b610e4c565b6040516102da9b9a99989796959493929190612fd3565b60405180910390f35b6102fd60048036038101906102f8919061307c565b610f14565b005b61031960048036038101906103149190612b55565b611499565b60405161032691906130ba565b60405180910390f35b6103376114d2565b6040516103449190612c84565b60405180910390f35b61036760048036038101906103629190612b55565b6114d8565b6040516103749190612c84565b60405180910390f35b61039760048036038101906103929190612b55565b6114f8565b6040516103a9969594939291906130e2565b60405180910390f35b6103cc60048036038101906103c79190613148565b6115cf565b005b6103e860048036038101906103e39190612b55565b6119c1565b005b61040460048036038101906103ff9190612b55565b611b15565b005b61040e6120b4565b60405161041b91906131f3565b60405180910390f35b61042c6120d8565b60405161043991906130ba565b60405180910390f35b61044a6120fd565b60405161045791906132c3565b60405180910390f35b61047a6004803603810190610475919061307c565b612153565b60405161048791906130ba565b60405180910390f35b6104aa60048036038101906104a59190612b55565b61219b565b6040516104b8929190612bf5565b60405180910390f35b6104db60048036038101906104d691906132e3565b6121da565b6040516104e89190613321565b60405180910390f35b61050b6004803603810190610506919061307c565b612204565b005b61052760048036038101906105229190612b55565b6124b4565b005b5f5f5f60065f8581526020019081526020015f20604051806101600160405290815f82015481526020016001820154815260200160028201548152602001600382015f9054906101000a900473ffffffffffffffffffffffffffffffffffffffff1673ffffffffffffffffffffffffffffffffffffffff1673ffffffffffffffffffffffffffffffffffffffff1681526020016004820154815260200160058201548152602001600682015f9054906101000a900473ffffffffffffffffffffffffffffffffffffffff1673ffffffffffffffffffffffffffffffffffffffff1673ffffffffffffffffffffffffffffffffffffffff1681526020016006820160149054906101000a900460ff161515151581526020016006820160159054906101000a900460ff161515151581526020016006820160169054906101000a900460ff161515151581526020016006820160179054906101000a900460ff16151515158152505090508061010001516106d7576040517f08c379a00000000000000000000000000000000000000000000000000000000081526004016106ce90613384565b60405180910390fd5b806060015181608001519250925050915091565b5f5f5f60055f8581526020019081526020015f206040518060400160405290815f8201548152602001600182015f9054906101000a900473ffffffffffffffffffffffffffffffffffffffff1673ffffffffffffffffffffffffffffffffffffffff1673ffffffffffffffffffffffffffffffffffffffff16815250509050805f015181602001519250925050915091565b600e602052815f5260405f20602052805f5260405f205f91509150505481565b60055f8281526020019081526020015f206001015f9054906101000a900473ffffffffffffffffffffffffffffffffffffffff1673ffffffffffffffffffffffffffffffffffffffff163373ffffffffffffffffffffffffffffffffffffffff1614610807575f5ffd5b60055f8281526020019081526020015f205f5f82015f9055600182015f6101000a81549073ffffffffffffffffffffffffffffffffffffffff0219169055505050565b60015f9054906101000a900473ffffffffffffffffffffffffffffffffffffffff1673ffffffffffffffffffffffffffffffffffffffff163373ffffffffffffffffffffffffffffffffffffffff16146108d9576040517f08c379a00000000000000000000000000000000000000000000000000000000081526004016108d0906133ec565b60405180910390fd5b5f60025f8154809291906108ec90613437565b9190505590506108fc888261283d565b6040518060c001604052808881526020018781526020018681526020018581526020018460ff16815260200183151581525060045f8381526020019081526020015f205f820151815f0190816109529190613672565b506020820151816001015560408201518160020155606082015181600301556080820151816004015f6101000a81548160ff021916908360ff16021790555060a08201518160040160016101000a81548160ff0219169083151502179055509050507fc1858a9e1260d2afcf7bd0ebec9aed42b8c7f31f5ec3f434dc8c443640b46a1f81888a6040516109e793929190613741565b60405180910390a15050505050505050565b5f60065f8381526020019081526020015f2090508060060160159054906101000a900460ff16610a5e576040517f08c379a0000000000000000000000000000000000000000000000000000000008152600401610a55906137c7565b60405180910390fd5b8060060160169054906101000a900460ff1615610ab0576040517f08c379a0000000000000000000000000000000000000000000000000000000008152600401610aa79061382f565b60405180910390fd5b8060060160179054906101000a900460ff1615610b02576040517f08c379a0000000000000000000000000000000000000000000000000000000008152600401610af990613897565b60405180910390fd5b5f600d5f8481526020019081526020015f20805480602002602001604051908101604052809291908181526020018280548015610b9157602002820191905f5260205f20905b815f9054906101000a900473ffffffffffffffffffffffffffffffffffffffff1673ffffffffffffffffffffffffffffffffffffffff1681526020019060010190808311610b48575b505050505090505f5f90505b8151811015610d70575f828281518110610bba57610bb96138b5565b5b60200260200101519050836003015f9054906101000a900473ffffffffffffffffffffffffffffffffffffffff1673ffffffffffffffffffffffffffffffffffffffff168173ffffffffffffffffffffffffffffffffffffffff1614610d62575f600e5f8781526020019081526020015f205f8373ffffffffffffffffffffffffffffffffffffffff1673ffffffffffffffffffffffffffffffffffffffff1681526020019081526020015f205490505f811115610d60575f600e5f8881526020019081526020015f205f8473ffffffffffffffffffffffffffffffffffffffff1673ffffffffffffffffffffffffffffffffffffffff1681526020019081526020015f20819055505f5f9054906101000a900473ffffffffffffffffffffffffffffffffffffffff1673ffffffffffffffffffffffffffffffffffffffff1663a9059cbb83836040518363ffffffff1660e01b8152600401610d1e929190612bce565b6020604051808303815f875af1158015610d3a573d5f5f3e3d5ffd5b505050506040513d601f19601f82011682018060405250810190610d5e91906138f6565b505b505b508080600101915050610b9d565b5060018260060160176101000a81548160ff021916908315150217905550505050565b6007818051602081018201805184825260208301602085012081835280955050505050505f915090508054610dc7906134ab565b80601f0160208091040260200160405190810160405280929190818152602001828054610df3906134ab565b8015610e3e5780601f10610e1557610100808354040283529160200191610e3e565b820191905f5260205f20905b815481529060010190602001808311610e2157829003601f168201915b505050505081565b60025481565b6006602052805f5260405f205f91509050805f015490806001015490806002015490806003015f9054906101000a900473ffffffffffffffffffffffffffffffffffffffff1690806004015490806005015490806006015f9054906101000a900473ffffffffffffffffffffffffffffffffffffffff16908060060160149054906101000a900460ff16908060060160159054906101000a900460ff16908060060160169054906101000a900460ff16908060060160179054906101000a900460ff1690508b565b5f60065f8481526020019081526020015f2090508060060160149054906101000a900460ff16610f79576040517f08c379a0000000000000000000000000000000000000000000000000000000008152600401610f709061396b565b60405180910390fd5b80600201544210610fbf576040517f08c379a0000000000000000000000000000000000000000000000000000000008152600401610fb6906139d3565b60405180910390fd5b80600101548211611005576040517f08c379a0000000000000000000000000000000000000000000000000000000008152600401610ffc90613a3b565b60405180910390fd5b5f600e5f8581526020019081526020015f205f3373ffffffffffffffffffffffffffffffffffffffff1673ffffffffffffffffffffffffffffffffffffffff1681526020019081526020015f2054036110c857600d5f8481526020019081526020015f2033908060018154018082558091505060019003905f5260205f20015f9091909190916101000a81548173ffffffffffffffffffffffffffffffffffffffff021916908373ffffffffffffffffffffffffffffffffffffffff1602179055505b5f5f9054906101000a900473ffffffffffffffffffffffffffffffffffffffff1673ffffffffffffffffffffffffffffffffffffffff166323b872dd3330856040518463ffffffff1660e01b815260040161112593929190613a59565b6020604051808303815f875af1158015611141573d5f5f3e3d5ffd5b505050506040513d601f19601f8201168201806040525081019061116591906138f6565b6111a4576040517f08c379a000000000000000000000000000000000000000000000000000000000815260040161119b90613ad8565b60405180910390fd5b5f73ffffffffffffffffffffffffffffffffffffffff16816003015f9054906101000a900473ffffffffffffffffffffffffffffffffffffffff1673ffffffffffffffffffffffffffffffffffffffff16146112be575f5f9054906101000a900473ffffffffffffffffffffffffffffffffffffffff1673ffffffffffffffffffffffffffffffffffffffff1663a9059cbb826003015f9054906101000a900473ffffffffffffffffffffffffffffffffffffffff1683600401546040518363ffffffff1660e01b815260040161127c929190612bce565b6020604051808303815f875af1158015611298573d5f5f3e3d5ffd5b505050506040513d601f19601f820116820180604052508101906112bc91906138f6565b505b5f600e5f8581526020019081526020015f205f3373ffffffffffffffffffffffffffffffffffffffff1673ffffffffffffffffffffffffffffffffffffffff1681526020019081526020015f205490505f8111156113b3575f5f9054906101000a900473ffffffffffffffffffffffffffffffffffffffff1673ffffffffffffffffffffffffffffffffffffffff1663a9059cbb33836040518363ffffffff1660e01b8152600401611371929190612bce565b6020604051808303815f875af115801561138d573d5f5f3e3d5ffd5b505050506040513d601f19601f820116820180604052508101906113b191906138f6565b505b82600e5f8681526020019081526020015f205f3373ffffffffffffffffffffffffffffffffffffffff1673ffffffffffffffffffffffffffffffffffffffff1681526020019081526020015f208190555033826003015f6101000a81548173ffffffffffffffffffffffffffffffffffffffff021916908373ffffffffffffffffffffffffffffffffffffffff1602179055508282600401819055508282600101819055507f558a0d5d5468d74b0db24c74eb348b42271c2ebb4c9e953ced38aaed95fa436184338560405161148b93929190613af6565b60405180910390a150505050565b5f60085f8381526020019081526020015f205f9054906101000a900473ffffffffffffffffffffffffffffffffffffffff169050919050565b60035481565b600c81815481106114e7575f80fd5b905f5260205f20015f915090505481565b6004602052805f5260405f205f91509050805f018054611517906134ab565b80601f0160208091040260200160405190810160405280929190818152602001828054611543906134ab565b801561158e5780601f106115655761010080835404028352916020019161158e565b820191905f5260205f20905b81548152906001019060200180831161157157829003601f168201915b505050505090806001015490806002015490806003015490806004015f9054906101000a900460ff16908060040160019054906101000a900460ff16905086565b825f73ffffffffffffffffffffffffffffffffffffffff1660085f8381526020019081526020015f205f9054906101000a900473ffffffffffffffffffffffffffffffffffffffff1673ffffffffffffffffffffffffffffffffffffffff160361166e576040517f08c379a000000000000000000000000000000000000000000000000000000000815260040161166590613b75565b60405180910390fd5b833373ffffffffffffffffffffffffffffffffffffffff1660085f8381526020019081526020015f205f9054906101000a900473ffffffffffffffffffffffffffffffffffffffff1673ffffffffffffffffffffffffffffffffffffffff161461170d576040517f08c379a000000000000000000000000000000000000000000000000000000000815260040161170490613bdd565b60405180910390fd5b60065f8681526020019081526020015f2060060160149054906101000a900460ff161561176f576040517f08c379a000000000000000000000000000000000000000000000000000000000815260040161176690613c45565b60405180910390fd5b600c85908060018154018082558091505060019003905f5260205f20015f909190919091505560405180610160016040528085815260200185815260200184426117b99190613c63565b81526020015f73ffffffffffffffffffffffffffffffffffffffff1681526020015f81526020018681526020013373ffffffffffffffffffffffffffffffffffffffff1681526020016001151581526020015f151581526020015f151581526020015f151581525060065f8781526020019081526020015f205f820151815f015560208201518160010155604082015181600201556060820151816003015f6101000a81548173ffffffffffffffffffffffffffffffffffffffff021916908373ffffffffffffffffffffffffffffffffffffffff1602179055506080820151816004015560a0820151816005015560c0820151816006015f6101000a81548173ffffffffffffffffffffffffffffffffffffffff021916908373ffffffffffffffffffffffffffffffffffffffff16021790555060e08201518160060160146101000a81548160ff0219169083151502179055506101008201518160060160156101000a81548160ff0219169083151502179055506101208201518160060160166101000a81548160ff0219169083151502179055506101408201518160060160176101000a81548160ff0219169083151502179055509050507f44c53be110c6aa83aa83cd02e351ed172359268272ee1b5d31c0fe48db35c6c7858585426119a39190613c63565b6040516119b293929190613c96565b60405180910390a15050505050565b5f60065f8381526020019081526020015f2090508060060160149054906101000a900460ff16611a26576040517f08c379a0000000000000000000000000000000000000000000000000000000008152600401611a1d9061396b565b60405180910390fd5b8060020154421015611a6d576040517f08c379a0000000000000000000000000000000000000000000000000000000008152600401611a6490613384565b60405180910390fd5b5f8160060160146101000a81548160ff02191690831515021790555060018160060160156101000a81548160ff021916908315150217905550611aaf82612a53565b7fd2aa34a4fdbbc6dff6a3e56f46e0f3ae2a31d7785ff3487aa5c95c642acea50182826003015f9054906101000a900473ffffffffffffffffffffffffffffffffffffffff168360040154604051611b0993929190613af6565b60405180910390a15050565b805f73ffffffffffffffffffffffffffffffffffffffff1660085f8381526020019081526020015f205f9054906101000a900473ffffffffffffffffffffffffffffffffffffffff1673ffffffffffffffffffffffffffffffffffffffff1603611bb4576040517f08c379a0000000000000000000000000000000000000000000000000000000008152600401611bab90613b75565b60405180910390fd5b5f73ffffffffffffffffffffffffffffffffffffffff1660085f8481526020019081526020015f205f9054906101000a900473ffffffffffffffffffffffffffffffffffffffff1673ffffffffffffffffffffffffffffffffffffffff1603611c52576040517f08c379a0000000000000000000000000000000000000000000000000000000008152600401611c4990613d15565b60405180910390fd5b60065f8381526020019081526020015f2060060160149054906101000a900460ff1615611cb4576040517f08c379a0000000000000000000000000000000000000000000000000000000008152600401611cab90613d7d565b60405180910390fd5b5f60055f8481526020019081526020015f206040518060400160405290815f8201548152602001600182015f9054906101000a900473ffffffffffffffffffffffffffffffffffffffff1673ffffffffffffffffffffffffffffffffffffffff1673ffffffffffffffffffffffffffffffffffffffff168152505090505f815f015111611d76576040517f08c379a0000000000000000000000000000000000000000000000000000000008152600401611d6d90613de5565b60405180910390fd5b806020015173ffffffffffffffffffffffffffffffffffffffff163373ffffffffffffffffffffffffffffffffffffffff1603611de8576040517f08c379a0000000000000000000000000000000000000000000000000000000008152600401611ddf90613e4d565b60405180910390fd5b5f5f5f9054906101000a900473ffffffffffffffffffffffffffffffffffffffff1673ffffffffffffffffffffffffffffffffffffffff166323b872dd338460200151855f01516040518463ffffffff1660e01b8152600401611e4d93929190613a59565b6020604051808303815f875af1158015611e69573d5f5f3e3d5ffd5b505050506040513d601f19601f82011682018060405250810190611e8d91906138f6565b905080611ecf576040517f08c379a0000000000000000000000000000000000000000000000000000000008152600401611ec690613eb5565b60405180910390fd5b5f826020015190503360085f8781526020019081526020015f205f6101000a81548173ffffffffffffffffffffffffffffffffffffffff021916908373ffffffffffffffffffffffffffffffffffffffff16021790555060095f8273ffffffffffffffffffffffffffffffffffffffff1673ffffffffffffffffffffffffffffffffffffffff1681526020019081526020015f205f815480929190611f7390613ed3565b919050555060095f3373ffffffffffffffffffffffffffffffffffffffff1673ffffffffffffffffffffffffffffffffffffffff1681526020019081526020015f205f815480929190611fc590613437565b919050555060055f8681526020019081526020015f205f5f82015f9055600182015f6101000a81549073ffffffffffffffffffffffffffffffffffffffff021916905550507f5f0544350104105a633eb4702d5cfa369eb1b1e1f5e5be7a5f1856ac84390b4d8533855f015160405161204093929190613af6565b60405180910390a13373ffffffffffffffffffffffffffffffffffffffff168173ffffffffffffffffffffffffffffffffffffffff167fddf252ad1be2c89b69c2b068fc378daa952ba7f163c4a11628f55a4df523b3ef876040516120a59190612c84565b60405180910390a35050505050565b5f5f9054906101000a900473ffffffffffffffffffffffffffffffffffffffff1681565b60015f9054906101000a900473ffffffffffffffffffffffffffffffffffffffff1681565b6060600c80548060200260200160405190810160405280929190818152602001828054801561214957602002820191905f5260205f20905b815481526020019060010190808311612135575b5050505050905090565b600d602052815f5260405f20818154811061216c575f80fd5b905f5260205f20015f915091509054906101000a900473ffffffffffffffffffffffffffffffffffffffff1681565b6005602052805f5260405f205f91509050805f015490806001015f9054906101000a900473ffffffffffffffffffffffffffffffffffffffff16905082565b600b602052815f5260405f20602052805f5260405f205f915091509054906101000a900460ff1681565b815f73ffffffffffffffffffffffffffffffffffffffff1660085f8381526020019081526020015f205f9054906101000a900473ffffffffffffffffffffffffffffffffffffffff1673ffffffffffffffffffffffffffffffffffffffff16036122a3576040517f08c379a000000000000000000000000000000000000000000000000000000000815260040161229a90613b75565b60405180910390fd5b823373ffffffffffffffffffffffffffffffffffffffff1660085f8381526020019081526020015f205f9054906101000a900473ffffffffffffffffffffffffffffffffffffffff1673ffffffffffffffffffffffffffffffffffffffff1614612342576040517f08c379a000000000000000000000000000000000000000000000000000000000815260040161233990613bdd565b60405180910390fd5b60065f8581526020019081526020015f2060060160149054906101000a900460ff16156123a4576040517f08c379a000000000000000000000000000000000000000000000000000000000815260040161239b90613d7d565b60405180910390fd5b5f83116123e6576040517f08c379a00000000000000000000000000000000000000000000000000000000081526004016123dd90613f44565b60405180910390fd5b60405180604001604052808481526020013373ffffffffffffffffffffffffffffffffffffffff1681525060055f8681526020019081526020015f205f820151815f01556020820151816001015f6101000a81548173ffffffffffffffffffffffffffffffffffffffff021916908373ffffffffffffffffffffffffffffffffffffffff1602179055509050507feec9fb041fa14d227fc0e64a3e630e1a685941c91dfb622450481abf5fc5a0e58484336040516124a693929190613f62565b60405180910390a150505050565b5f60065f8381526020019081526020015f2090508060060160159054906101000a900460ff16612519576040517f08c379a0000000000000000000000000000000000000000000000000000000008152600401612510906137c7565b60405180910390fd5b806003015f9054906101000a900473ffffffffffffffffffffffffffffffffffffffff1673ffffffffffffffffffffffffffffffffffffffff163373ffffffffffffffffffffffffffffffffffffffff16146125aa576040517f08c379a00000000000000000000000000000000000000000000000000000000081526004016125a190613fe1565b60405180910390fd5b8060060160169054906101000a900460ff16156125fc576040517f08c379a00000000000000000000000000000000000000000000000000000000081526004016125f39061382f565b60405180910390fd5b5f816006015f9054906101000a900473ffffffffffffffffffffffffffffffffffffffff1690503360085f8581526020019081526020015f205f6101000a81548173ffffffffffffffffffffffffffffffffffffffff021916908373ffffffffffffffffffffffffffffffffffffffff16021790555060095f8273ffffffffffffffffffffffffffffffffffffffff1673ffffffffffffffffffffffffffffffffffffffff1681526020019081526020015f205f8154809291906126bf90613ed3565b919050555060095f3373ffffffffffffffffffffffffffffffffffffffff1673ffffffffffffffffffffffffffffffffffffffff1681526020019081526020015f205f81548092919061271190613437565b91905055505f5f9054906101000a900473ffffffffffffffffffffffffffffffffffffffff1673ffffffffffffffffffffffffffffffffffffffff1663a9059cbb8284600401546040518363ffffffff1660e01b8152600401612775929190612bce565b6020604051808303815f875af1158015612791573d5f5f3e3d5ffd5b505050506040513d601f19601f820116820180604052508101906127b591906138f6565b5060018260060160166101000a81548160ff0219169083151502179055503373ffffffffffffffffffffffffffffffffffffffff168173ffffffffffffffffffffffffffffffffffffffff167fddf252ad1be2c89b69c2b068fc378daa952ba7f163c4a11628f55a4df523b3ef856040516128309190612c84565b60405180910390a3505050565b5f73ffffffffffffffffffffffffffffffffffffffff168273ffffffffffffffffffffffffffffffffffffffff16036128ab576040517f08c379a00000000000000000000000000000000000000000000000000000000081526004016128a29061406f565b60405180910390fd5b5f73ffffffffffffffffffffffffffffffffffffffff1660085f8381526020019081526020015f205f9054906101000a900473ffffffffffffffffffffffffffffffffffffffff1673ffffffffffffffffffffffffffffffffffffffff1614612949576040517f08c379a0000000000000000000000000000000000000000000000000000000008152600401612940906140d7565b60405180910390fd5b60095f8373ffffffffffffffffffffffffffffffffffffffff1673ffffffffffffffffffffffffffffffffffffffff1681526020019081526020015f205f81548092919061299690613437565b91905055508160085f8381526020019081526020015f205f6101000a81548173ffffffffffffffffffffffffffffffffffffffff021916908373ffffffffffffffffffffffffffffffffffffffff1602179055508173ffffffffffffffffffffffffffffffffffffffff165f73ffffffffffffffffffffffffffffffffffffffff167fddf252ad1be2c89b69c2b068fc378daa952ba7f163c4a11628f55a4df523b3ef83604051612a479190612c84565b60405180910390a35050565b5f5f90505b600c80549050811015612b0d5781600c8281548110612a7a57612a796138b5565b5b905f5260205f20015403612b0057600c6001600c80549050612a9c91906140f5565b81548110612aad57612aac6138b5565b5b905f5260205f200154600c8281548110612aca57612ac96138b5565b5b905f5260205f200181905550600c805480612ae857612ae7614128565b5b600190038181905f5260205f20015f90559055612b0d565b8080600101915050612a58565b5050565b5f604051905090565b5f5ffd5b5f5ffd5b5f819050919050565b612b3481612b22565b8114612b3e575f5ffd5b50565b5f81359050612b4f81612b2b565b92915050565b5f60208284031215612b6a57612b69612b1a565b5b5f612b7784828501612b41565b91505092915050565b5f73ffffffffffffffffffffffffffffffffffffffff82169050919050565b5f612ba982612b80565b9050919050565b612bb981612b9f565b82525050565b612bc881612b22565b82525050565b5f604082019050612be15f830185612bb0565b612bee6020830184612bbf565b9392505050565b5f604082019050612c085f830185612bbf565b612c156020830184612bb0565b9392505050565b612c2581612b9f565b8114612c2f575f5ffd5b50565b5f81359050612c4081612c1c565b92915050565b5f5f60408385031215612c5c57612c5b612b1a565b5b5f612c6985828601612b41565b9250506020612c7a85828601612c32565b9150509250929050565b5f602082019050612c975f830184612bbf565b92915050565b5f5ffd5b5f5ffd5b5f601f19601f8301169050919050565b7f4e487b71000000000000000000000000000000000000000000000000000000005f52604160045260245ffd5b612ceb82612ca5565b810181811067ffffffffffffffff82111715612d0a57612d09612cb5565b5b80604052505050565b5f612d1c612b11565b9050612d288282612ce2565b919050565b5f67ffffffffffffffff821115612d4757612d46612cb5565b5b612d5082612ca5565b9050602081019050919050565b828183375f83830152505050565b5f612d7d612d7884612d2d565b612d13565b905082815260208101848484011115612d9957612d98612ca1565b5b612da4848285612d5d565b509392505050565b5f82601f830112612dc057612dbf612c9d565b5b8135612dd0848260208601612d6b565b91505092915050565b5f60ff82169050919050565b612dee81612dd9565b8114612df8575f5ffd5b50565b5f81359050612e0981612de5565b92915050565b5f8115159050919050565b612e2381612e0f565b8114612e2d575f5ffd5b50565b5f81359050612e3e81612e1a565b92915050565b5f5f5f5f5f5f5f60e0888a031215612e5f57612e5e612b1a565b5b5f612e6c8a828b01612c32565b975050602088013567ffffffffffffffff811115612e8d57612e8c612b1e565b5b612e998a828b01612dac565b9650506040612eaa8a828b01612b41565b9550506060612ebb8a828b01612b41565b9450506080612ecc8a828b01612b41565b93505060a0612edd8a828b01612dfb565b92505060c0612eee8a828b01612e30565b91505092959891949750929550565b5f60208284031215612f1257612f11612b1a565b5b5f82013567ffffffffffffffff811115612f2f57612f2e612b1e565b5b612f3b84828501612dac565b91505092915050565b5f81519050919050565b5f82825260208201905092915050565b8281835e5f83830152505050565b5f612f7682612f44565b612f808185612f4e565b9350612f90818560208601612f5e565b612f9981612ca5565b840191505092915050565b5f6020820190508181035f830152612fbc8184612f6c565b905092915050565b612fcd81612e0f565b82525050565b5f61016082019050612fe75f83018e612bbf565b612ff4602083018d612bbf565b613001604083018c612bbf565b61300e606083018b612bb0565b61301b608083018a612bbf565b61302860a0830189612bbf565b61303560c0830188612bb0565b61304260e0830187612fc4565b613050610100830186612fc4565b61305e610120830185612fc4565b61306c610140830184612fc4565b9c9b505050505050505050505050565b5f5f6040838503121561309257613091612b1a565b5b5f61309f85828601612b41565b92505060206130b085828601612b41565b9150509250929050565b5f6020820190506130cd5f830184612bb0565b92915050565b6130dc81612dd9565b82525050565b5f60c0820190508181035f8301526130fa8189612f6c565b90506131096020830188612bbf565b6131166040830187612bbf565b6131236060830186612bbf565b61313060808301856130d3565b61313d60a0830184612fc4565b979650505050505050565b5f5f5f6060848603121561315f5761315e612b1a565b5b5f61316c86828701612b41565b935050602061317d86828701612b41565b925050604061318e86828701612b41565b9150509250925092565b5f819050919050565b5f6131bb6131b66131b184612b80565b613198565b612b80565b9050919050565b5f6131cc826131a1565b9050919050565b5f6131dd826131c2565b9050919050565b6131ed816131d3565b82525050565b5f6020820190506132065f8301846131e4565b92915050565b5f81519050919050565b5f82825260208201905092915050565b5f819050602082019050919050565b61323e81612b22565b82525050565b5f61324f8383613235565b60208301905092915050565b5f602082019050919050565b5f6132718261320c565b61327b8185613216565b935061328683613226565b805f5b838110156132b657815161329d8882613244565b97506132a88361325b565b925050600181019050613289565b5085935050505092915050565b5f6020820190508181035f8301526132db8184613267565b905092915050565b5f5f604083850312156132f9576132f8612b1a565b5b5f61330685828601612c32565b925050602061331785828601612c32565b9150509250929050565b5f6020820190506133345f830184612fc4565b92915050565b7f41756374696f6e206e6f7420656e6465642079657400000000000000000000005f82015250565b5f61336e601583612f4e565b91506133798261333a565b602082019050919050565b5f6020820190508181035f83015261339b81613362565b9050919050565b7f4e6f7420636f6e7472616374206f776e657200000000000000000000000000005f82015250565b5f6133d6601283612f4e565b91506133e1826133a2565b602082019050919050565b5f6020820190508181035f830152613403816133ca565b9050919050565b7f4e487b71000000000000000000000000000000000000000000000000000000005f52601160045260245ffd5b5f61344182612b22565b91507fffffffffffffffffffffffffffffffffffffffffffffffffffffffffffffffff82036134735761347261340a565b5b600182019050919050565b7f4e487b71000000000000000000000000000000000000000000000000000000005f52602260045260245ffd5b5f60028204905060018216806134c257607f821691505b6020821081036134d5576134d461347e565b5b50919050565b5f819050815f5260205f209050919050565b5f6020601f8301049050919050565b5f82821b905092915050565b5f600883026135377fffffffffffffffffffffffffffffffffffffffffffffffffffffffffffffffff826134fc565b61354186836134fc565b95508019841693508086168417925050509392505050565b5f61357361356e61356984612b22565b613198565b612b22565b9050919050565b5f819050919050565b61358c83613559565b6135a06135988261357a565b848454613508565b825550505050565b5f5f905090565b6135b76135a8565b6135c2818484613583565b505050565b5b818110156135e5576135da5f826135af565b6001810190506135c8565b5050565b601f82111561362a576135fb816134db565b613604846134ed565b81016020851015613613578190505b61362761361f856134ed565b8301826135c7565b50505b505050565b5f82821c905092915050565b5f61364a5f198460080261362f565b1980831691505092915050565b5f613662838361363b565b9150826002028217905092915050565b61367b82612f44565b67ffffffffffffffff81111561369457613693612cb5565b5b61369e82546134ab565b6136a98282856135e9565b5f60209050601f8311600181146136da575f84156136c8578287015190505b6136d28582613657565b865550613739565b601f1984166136e8866134db565b5f5b8281101561370f578489015182556001820191506020850194506020810190506136ea565b8683101561372c5784890151613728601f89168261363b565b8355505b6001600288020188555050505b505050505050565b5f6060820190506137545f830186612bbf565b81810360208301526137668185612f6c565b90506137756040830184612bb0565b949350505050565b7f41756374696f6e206e6f7420656e6465640000000000000000000000000000005f82015250565b5f6137b1601183612f4e565b91506137bc8261377d565b602082019050919050565b5f6020820190508181035f8301526137de816137a5565b9050919050565b7f416c726561647920636c61696d656400000000000000000000000000000000005f82015250565b5f613819600f83612f4e565b9150613824826137e5565b602082019050919050565b5f6020820190508181035f8301526138468161380d565b9050919050565b7f416c726561647920726566756e646564000000000000000000000000000000005f82015250565b5f613881601083612f4e565b915061388c8261384d565b602082019050919050565b5f6020820190508181035f8301526138ae81613875565b9050919050565b7f4e487b71000000000000000000000000000000000000000000000000000000005f52603260045260245ffd5b5f815190506138f081612e1a565b92915050565b5f6020828403121561390b5761390a612b1a565b5b5f613918848285016138e2565b91505092915050565b7f41756374696f6e206e6f742061637469766500000000000000000000000000005f82015250565b5f613955601283612f4e565b915061396082613921565b602082019050919050565b5f6020820190508181035f83015261398281613949565b9050919050565b7f41756374696f6e20656e646564000000000000000000000000000000000000005f82015250565b5f6139bd600d83612f4e565b91506139c882613989565b602082019050919050565b5f6020820190508181035f8301526139ea816139b1565b9050919050565b7f42696420746f6f206c6f770000000000000000000000000000000000000000005f82015250565b5f613a25600b83612f4e565b9150613a30826139f1565b602082019050919050565b5f6020820190508181035f830152613a5281613a19565b9050919050565b5f606082019050613a6c5f830186612bb0565b613a796020830185612bb0565b613a866040830184612bbf565b949350505050565b7f5472616e73666572206661696c656400000000000000000000000000000000005f82015250565b5f613ac2600f83612f4e565b9150613acd82613a8e565b602082019050919050565b5f6020820190508181035f830152613aef81613ab6565b9050919050565b5f606082019050613b095f830186612bbf565b613b166020830185612bb0565b613b236040830184612bbf565b949350505050565b7f4361726420646f6573206e6f74206578697374000000000000000000000000005f82015250565b5f613b5f601383612f4e565b9150613b6a82613b2b565b602082019050919050565b5f6020820190508181035f830152613b8c81613b53565b9050919050565b7f4e6f7420746865206f776e6572000000000000000000000000000000000000005f82015250565b5f613bc7600d83612f4e565b9150613bd282613b93565b602082019050919050565b5f6020820190508181035f830152613bf481613bbb565b9050919050565b7f41756374696f6e20616c726561647920616374697665000000000000000000005f82015250565b5f613c2f601683612f4e565b9150613c3a82613bfb565b602082019050919050565b5f6020820190508181035f830152613c5c81613c23565b9050919050565b5f613c6d82612b22565b9150613c7883612b22565b9250828201905080821115613c9057613c8f61340a565b5b92915050565b5f606082019050613ca95f830186612bbf565b613cb66020830185612bbf565b613cc36040830184612bbf565b949350505050565b7f43617264206e6f74206d696e74656400000000000000000000000000000000005f82015250565b5f613cff600f83612f4e565b9150613d0a82613ccb565b602082019050919050565b5f6020820190508181035f830152613d2c81613cf3565b9050919050565b7f4361726420696e2061756374696f6e00000000000000000000000000000000005f82015250565b5f613d67600f83612f4e565b9150613d7282613d33565b602082019050919050565b5f6020820190508181035f830152613d9481613d5b565b9050919050565b7f43617264206e6f74206c697374656400000000000000000000000000000000005f82015250565b5f613dcf600f83612f4e565b9150613dda82613d9b565b602082019050919050565b5f6020820190508181035f830152613dfc81613dc3565b9050919050565b7f43616e6e6f742062757920796f7572206f776e206361726400000000000000005f82015250565b5f613e37601883612f4e565b9150613e4282613e03565b602082019050919050565b5f6020820190508181035f830152613e6481613e2b565b9050919050565b7f596f6461207472616e73666572206661696c65640000000000000000000000005f82015250565b5f613e9f601483612f4e565b9150613eaa82613e6b565b602082019050919050565b5f6020820190508181035f830152613ecc81613e93565b9050919050565b5f613edd82612b22565b91505f8203613eef57613eee61340a565b5b600182039050919050565b7f5072696365206d757374206265203e20300000000000000000000000000000005f82015250565b5f613f2e601183612f4e565b9150613f3982613efa565b602082019050919050565b5f6020820190508181035f830152613f5b81613f22565b9050919050565b5f606082019050613f755f830186612bbf565b613f826020830185612bbf565b613f8f6040830184612bb0565b949350505050565b7f4e6f742077696e6e6572000000000000000000000000000000000000000000005f82015250565b5f613fcb600a83612f4e565b9150613fd682613f97565b602082019050919050565b5f6020820190508181035f830152613ff881613fbf565b9050919050565b7f496e76616c696420616464726573732f206d696e7420746f207a65726f2061645f8201527f6472657373000000000000000000000000000000000000000000000000000000602082015250565b5f614059602583612f4e565b915061406482613fff565b604082019050919050565b5f6020820190508181035f8301526140868161404d565b9050919050565b7f4361726420616c7265616479206d696e746564000000000000000000000000005f82015250565b5f6140c1601383612f4e565b91506140cc8261408d565b602082019050919050565b5f6020820190508181035f8301526140ee816140b5565b9050919050565b5f6140ff82612b22565b915061410a83612b22565b92508282039050818111156141225761412161340a565b5b92915050565b7f4e487b71000000000000000000000000000000000000000000000000000000005f52603160045260245ffdfea26469706673582212207e49ab4a49deacf41b7cbfa01297920f5d023f5f8c68e19d93f1d2ec8100648264736f6c634300081c0033",
  "linkReferences": {},
  "deployedLinkReferences": {},
  "immutableReferences": {},
  "inputSourceName": "project/contracts/pokemonsc.sol",
  "buildInfoId": "solc-0_8_28-e299b0d8d88da4f66fc9f3873089ccee17377f6e"
}