{
  "_format": "hh3-artifact-1",
  "contractName": "ERC20Token",
  "sourceName": "contracts/Yoda.sol",
  "abi": [
    {
      "inputs": [
        {
          "internalType": "uint256",
          "name": "_initialReceiveAmount",
          "type": "uint256"
        },
        {
          "internalType": "uint8",
          "name": "_decimals",
          "type": "uint8"
        }
      ],
      "stateMutability": "nonpayable",
      "type": "constructor"
    },
    {
      "anonymous": false,
      "inputs": [
        {
          "indexed": true,
          "internalType": "address",
          "name": "owner",
          "type": "address"
        },
        {
          "indexed": true,
          "internalType": "address",
          "name": "spender",
          "type": "address"
        },
        {
          "indexed": false,
          "internalType": "uint256",
          "name": "value",
          "type": "uint256"
        }
      ],
      "name": "Approval",
      "type": "event"
    },
    {
      "anonymous": false,
      "inputs": [
        {
          "indexed": true,
          "internalType": "address",
          "name": "from",
          "type": "address"
        },
        {
          "indexed": true,
          "internalType": "address",
          "name": "to",
          "type": "address"
        },
        {
          "indexed": false,
          "internalType": "uint256",
          "name": "value",
          "type": "uint256"
        }
      ],
      "name": "Transfer",
      "type": "event"
    },
    {
      "inputs": [
        {
          "internalType": "address",
          "name": "",
          "type": "address"
        },
        {
          "internalType": "address",
          "name": "",
          "type": "address"
        }
      ],
      "name": "allowance",
      "outputs": [
        {
          "internalType": "uint256",
          "name": "",
          "type": "uint256"
        }
      ],
      "stateMutability": "view",
      "type": "function"
    },
    {
      "inputs": [
        {
          "internalType": "address",
          "name": "_spender",
          "type": "address"
        },
        {
          "internalType": "uint256",
          "name": "_value",
          "type": "uint256"
        }
      ],
      "name": "approve",
      "outputs": [
        {
          "internalType": "bool",
          "name": "success",
          "type": "bool"
        }
      ],
      "stateMutability": "nonpayable",
      "type": "function"
    },
    {
      "inputs": [
        {
          "internalType": "address",
          "name": "",
          "type": "address"
        }
      ],
      "name": "balanceOf",
      "outputs": [
        {
          "internalType": "uint256",
          "name": "",
          "type": "uint256"
        }
      ],
      "stateMutability": "view",
      "type": "function"
    },
    {
      "inputs": [],
      "name": "decimals",
      "outputs": [
        {
          "internalType": "uint8",
          "name": "",
          "type": "uint8"
        }
      ],
      "stateMutability": "view",
      "type": "function"
    },
    {
      "inputs": [],
      "name": "initialReceiveAmount",
      "outputs": [
        {
          "internalType": "uint256",
          "name": "",
          "type": "uint256"
        }
      ],
      "stateMutability": "view",
      "type": "function"
    },
    {
      "inputs": [
        {
          "internalType": "address",
          "name": "account",
          "type": "address"
        },
        {
          "internalType": "uint256",
          "name": "amount",
          "type": "uint256"
        }
      ],
      "name": "mint",
      "outputs": [],
      "stateMutability": "nonpayable",
      "type": "function"
    },
    {
      "inputs": [],
      "name": "name",
      "outputs": [
        {
          "internalType": "string",
          "name": "",
          "type": "string"
        }
      ],
      "stateMutability": "view",
      "type": "function"
    },
    {
      "inputs": [],
      "name": "owner",
      "outputs": [
        {
          "internalType": "address",
          "name": "",
          "type": "address"
        }
      ],
      "stateMutability": "view",
      "type": "function"
    },
    {
      "inputs": [],
      "name": "receiveTokens",
      "outputs": [],
      "stateMutability": "nonpayable",
      "type": "function"
    },
    {
      "inputs": [
        {
          "internalType": "address",
          "name": "",
          "type": "address"
        }
      ],
      "name": "receivedTokensAtLeastOnce",
      "outputs": [
        {
          "internalType": "bool",
          "name": "",
          "type": "bool"
        }
      ],
      "stateMutability": "view",
      "type": "function"
    },
    {
      "inputs": [],
      "name": "symbol",
      "outputs": [
        {
          "internalType": "string",
          "name": "",
          "type": "string"
        }
      ],
      "stateMutability": "view",
      "type": "function"
    },
    {
      "inputs": [],
      "name": "totalSupply",
      "outputs": [
        {
          "internalType": "uint256",
          "name": "",
          "type": "uint256"
        }
      ],
      "stateMutability": "view",
      "type": "function"
    },
    {
      "inputs": [
        {
          "internalType": "address",
          "name": "_to",
          "type": "address"
        },
        {
          "internalType": "uint256",
          "name": "_value",
          "type": "uint256"
        }
      ],
      "name": "transfer",
      "outputs": [
        {
          "internalType": "bool",
          "name": "success",
          "type": "bool"
        }
      ],
      "stateMutability": "nonpayable",
      "type": "function"
    },
    {
      "inputs": [
        {
          "internalType": "address",
          "name": "_from",
          "type": "address"
        },
        {
          "internalType": "address",
          "name": "_to",
          "type": "address"
        },
        {
          "internalType": "uint256",
          "name": "_value",
          "type": "uint256"
        }
      ],
      "name": "transferFrom",
      "outputs": [
        {
          "internalType": "bool",
          "name": "success",
          "type": "bool"
        }
      ],
      "stateMutability": "nonpayable",
      "type": "function"
    }
  ],
  "bytecode": "0x608060405234801561000f575f5ffd5b50604051610ee5380380610ee583398101604081905261002e916100dd565b604080518082019091526004815263796f646160e01b60208201525f9061005590826101a8565b50604080518082019091526004815263594f444160e01b602082015260019061007e90826101a8565b506002805460ff191660ff831690811790915560038390556100a190600a61035b565b6100ab9083610370565b6004819055335f81815260066020526040902091909155600580546001600160a01b0319169091179055506103879050565b5f5f604083850312156100ee575f5ffd5b82519150602083015160ff81168114610105575f5ffd5b809150509250929050565b634e487b7160e01b5f52604160045260245ffd5b600181811c9082168061013857607f821691505b60208210810361015657634e487b7160e01b5f52602260045260245ffd5b50919050565b601f8211156101a357805f5260205f20601f840160051c810160208510156101815750805b601f840160051c820191505b818110156101a0575f815560010161018d565b50505b505050565b81516001600160401b038111156101c1576101c1610110565b6101d5816101cf8454610124565b8461015c565b6020601f821160018114610207575f83156101f05750848201515b5f19600385901b1c1916600184901b1784556101a0565b5f84815260208120601f198516915b828110156102365787850151825560209485019460019092019101610216565b508482101561025357868401515f19600387901b60f8161c191681555b50505050600190811b01905550565b634e487b7160e01b5f52601160045260245ffd5b6001815b60018411156102b15780850481111561029557610295610262565b60018416156102a357908102905b60019390931c92800261027a565b935093915050565b5f826102c757506001610355565b816102d357505f610355565b81600181146102e957600281146102f35761030f565b6001915050610355565b60ff84111561030457610304610262565b50506001821b610355565b5060208310610133831016604e8410600b8410161715610332575081810a610355565b61033e5f198484610276565b805f190482111561035157610351610262565b0290505b92915050565b5f61036960ff8416836102b9565b9392505050565b808202811582820484141761035557610355610262565b610b51806103945f395ff3fe608060405234801561000f575f5ffd5b50600436106100e5575f3560e01c8063680e6c9b1161008857806395d89b411161006357806395d89b41146101e3578063a9059cbb146101eb578063dd62ed3e146101fe578063ee2de40014610228575f5ffd5b8063680e6c9b1461019157806370a08231146101995780638da5cb5b146101b8575f5ffd5b806323b872dd116100c357806323b872dd14610141578063313ce5671461015457806338fed7cc1461017357806340c10f191461017c575f5ffd5b806306fdde03146100e9578063095ea7b31461010757806318160ddd1461012a575b5f5ffd5b6100f161024a565b6040516100fe9190610875565b60405180910390f35b61011a6101153660046108c5565b6102d5565b60405190151581526020016100fe565b61013360045481565b6040519081526020016100fe565b61011a61014f3660046108ed565b61036a565b6002546101619060ff1681565b60405160ff90911681526020016100fe565b61013360035481565b61018f61018a3660046108c5565b61053d565b005b61018f6105c1565b6101336101a7366004610927565b60066020525f908152604090205481565b6005546101cb906001600160a01b031681565b6040516001600160a01b0390911681526020016100fe565b6100f1610685565b61011a6101f93660046108c5565b610692565b61013361020c366004610947565b600760209081525f928352604080842090915290825290205481565b61011a610236366004610927565b60086020525f908152604090205460ff1681565b5f805461025690610978565b80601f016020809104026020016040519081016040528092919081815260200182805461028290610978565b80156102cd5780601f106102a4576101008083540402835291602001916102cd565b820191905f5260205f20905b8154815290600101906020018083116102b057829003601f168201915b505050505081565b5f6001600160a01b0383166103055760405162461bcd60e51b81526004016102fc906109b0565b60405180910390fd5b335f8181526007602090815260408083206001600160a01b03881680855290835292819020869055518581529192917f8c5be1e5ebec7d5bd14f71427d1e84f3dd0314c0f7b2291e5b200ac8c7c3b92591015b60405180910390a35060015b92915050565b6001600160a01b0383165f908152600660205260408120548211156103c85760405162461bcd60e51b8152602060048201526014602482015273496e73756666696369656e742062616c616e636560601b60448201526064016102fc565b6001600160a01b0383166103ee5760405162461bcd60e51b81526004016102fc906109b0565b6001600160a01b0384165f9081526007602090815260408083203384529091529020548211156104555760405162461bcd60e51b8152602060048201526012602482015271105b1b1bddd85b98d948195e18d95959195960721b60448201526064016102fc565b6001600160a01b0384165f908152600660205260408120805484929061047c9084906109ed565b90915550506001600160a01b0383165f90815260066020526040812080548492906104a8908490610a00565b90915550506001600160a01b0384165f908152600760209081526040808320338452909152812080548492906104df9084906109ed565b92505081905550826001600160a01b0316846001600160a01b03167fddf252ad1be2c89b69c2b068fc378daa952ba7f163c4a11628f55a4df523b3ef8460405161052b91815260200190565b60405180910390a35060019392505050565b6005546001600160a01b031633146105975760405162461bcd60e51b815260206004820152601c60248201527f4f6e6c7920636f6e7472616374206f776e65722063616e206d696e740000000060448201526064016102fc565b6002546105bd9083906105ae9060ff16600a610af6565b6105b89084610b04565b610799565b5050565b335f9081526008602052604090205460ff16156106465760405162461bcd60e51b815260206004820152603d60248201527f596f75206861766520616c726561647920726563656976656420746f6b656e7360448201527f202c20636f6e746163742074686520737461666620666f72206d6f726500000060648201526084016102fc565b60025461066a90339061065d9060ff16600a610af6565b6003546105b89190610b04565b335f908152600860205260409020805460ff19166001179055565b6001805461025690610978565b335f908152600660205260408120548211156106e75760405162461bcd60e51b8152602060048201526014602482015273496e73756666696369656e742062616c616e636560601b60448201526064016102fc565b6001600160a01b03831661070d5760405162461bcd60e51b81526004016102fc906109b0565b335f908152600660205260408120805484929061072b9084906109ed565b90915550506001600160a01b0383165f9081526006602052604081208054849290610757908490610a00565b90915550506040518281526001600160a01b0384169033907fddf252ad1be2c89b69c2b068fc378daa952ba7f163c4a11628f55a4df523b3ef90602001610358565b6001600160a01b0382166107ef5760405162461bcd60e51b815260206004820152601b60248201527f43616e6e6f74206d696e7420746f207a65726f2061646472657373000000000060448201526064016102fc565b8060045f8282546108009190610a00565b90915550506001600160a01b0382165f908152600660205260408120805483929061082c908490610a00565b90915550506040518181526001600160a01b038316905f907fddf252ad1be2c89b69c2b068fc378daa952ba7f163c4a11628f55a4df523b3ef9060200160405180910390a35050565b602081525f82518060208401528060208501604085015e5f604082850101526040601f19601f83011684010191505092915050565b80356001600160a01b03811681146108c0575f5ffd5b919050565b5f5f604083850312156108d6575f5ffd5b6108df836108aa565b946020939093013593505050565b5f5f5f606084860312156108ff575f5ffd5b610908846108aa565b9250610916602085016108aa565b929592945050506040919091013590565b5f60208284031215610937575f5ffd5b610940826108aa565b9392505050565b5f5f60408385031215610958575f5ffd5b610961836108aa565b915061096f602084016108aa565b90509250929050565b600181811c9082168061098c57607f821691505b6020821081036109aa57634e487b7160e01b5f52602260045260245ffd5b50919050565b6020808252600f908201526e496e76616c6964206164647265737360881b604082015260600190565b634e487b7160e01b5f52601160045260245ffd5b81810381811115610364576103646109d9565b80820180821115610364576103646109d9565b6001815b6001841115610a4e57808504811115610a3257610a326109d9565b6001841615610a4057908102905b60019390931c928002610a17565b935093915050565b5f82610a6457506001610364565b81610a7057505f610364565b8160018114610a865760028114610a9057610aac565b6001915050610364565b60ff841115610aa157610aa16109d9565b50506001821b610364565b5060208310610133831016604e8410600b8410161715610acf575081810a610364565b610adb5f198484610a13565b805f1904821115610aee57610aee6109d9565b029392505050565b5f61094060ff841683610a56565b8082028115828204841417610364576103646109d956fea2646970667358221220258854779f5217a2bc6685f8ec1c7cdb2ca7bf251b887c76857d379b24c9c75a64736f6c634300081c0033",
  "linkReferences": {},
  "deployedLinkReferences": {},
  "immutableReferences": {},
  "inputSourceName": "project/contracts/Yoda.sol",
  "buildInfoId": "solc-0_8_28-a46edb75527acd74b68e20f3ee2528fc911b5af9"
}