{
  "_format": "hh3-artifact-1",
  "contractName": "ERC20Token",
  "sourceName": "contracts/Yoda.sol",
  "abi": [
    {
      "inputs": [
        {
          "internalType": "uint256",
          "name": "_initialReceiveAmount",
          "type": "uint256"
        },
        {
          "internalType": "uint8",
          "name": "_decimals",
          "type": "uint8"
        }
      ],
      "stateMutability": "nonpayable",
      "type": "constructor"
    },
    {
      "anonymous": false,
      "inputs": [
        {
          "indexed": true,
          "internalType": "address",
          "name": "owner",
          "type": "address"
        },
        {
          "indexed": true,
          "internalType": "address",
          "name": "spender",
          "type": "address"
        },
        {
          "indexed": false,
          "internalType": "uint256",
          "name": "value",
          "type": "uint256"
        }
      ],
      "name": "Approval",
      "type": "event"
    },
    {
      "anonymous": false,
      "inputs": [
        {
          "indexed": true,
          "internalType": "address",
          "name": "from",
          "type": "address"
        },
        {
          "indexed": true,
          "internalType": "address",
          "name": "to",
          "type": "address"
        },
        {
          "indexed": false,
          "internalType": "uint256",
          "name": "value",
          "type": "uint256"
        }
      ],
      "name": "Transfer",
      "type": "event"
    },
    {
      "inputs": [
        {
          "internalType": "address",
          "name": "",
          "type": "address"
        },
        {
          "internalType": "address",
          "name": "",
          "type": "address"
        }
      ],
      "name": "allowance",
      "outputs": [
        {
          "internalType": "uint256",
          "name": "",
          "type": "uint256"
        }
      ],
      "stateMutability": "view",
      "type": "function"
    },
    {
      "inputs": [
        {
          "internalType": "address",
          "name": "_spender",
          "type": "address"
        },
        {
          "internalType": "uint256",
          "name": "_value",
          "type": "uint256"
        }
      ],
      "name": "approve",
      "outputs": [
        {
          "internalType": "bool",
          "name": "success",
          "type": "bool"
        }
      ],
      "stateMutability": "nonpayable",
      "type": "function"
    },
    {
      "inputs": [
        {
          "internalType": "address",
          "name": "",
          "type": "address"
        }
      ],
      "name": "balanceOf",
      "outputs": [
        {
          "internalType": "uint256",
          "name": "",
          "type": "uint256"
        }
      ],
      "stateMutability": "view",
      "type": "function"
    },
    {
      "inputs": [],
      "name": "decimals",
      "outputs": [
        {
          "internalType": "uint8",
          "name": "",
          "type": "uint8"
        }
      ],
      "stateMutability": "view",
      "type": "function"
    },
    {
      "inputs": [],
      "name": "initialReceiveAmount",
      "outputs": [
        {
          "internalType": "uint256",
          "name": "",
          "type": "uint256"
        }
      ],
      "stateMutability": "view",
      "type": "function"
    },
    {
      "inputs": [
        {
          "internalType": "address",
          "name": "account",
          "type": "address"
        },
        {
          "internalType": "uint256",
          "name": "amount",
          "type": "uint256"
        }
      ],
      "name": "mint",
      "outputs": [],
      "stateMutability": "nonpayable",
      "type": "function"
    },
    {
      "inputs": [],
      "name": "name",
      "outputs": [
        {
          "internalType": "string",
          "name": "",
          "type": "string"
        }
      ],
      "stateMutability": "view",
      "type": "function"
    },
    {
      "inputs": [],
      "name": "owner",
      "outputs": [
        {
          "internalType": "address",
          "name": "",
          "type": "address"
        }
      ],
      "stateMutability": "view",
      "type": "function"
    },
    {
      "inputs": [],
      "name": "receiveTokens",
      "outputs": [],
      "stateMutability": "nonpayable",
      "type": "function"
    },
    {
      "inputs": [
        {
          "internalType": "address",
          "name": "",
          "type": "address"
        }
      ],
      "name": "receivedTokensAtLeastOnce",
      "outputs": [
        {
          "internalType": "bool",
          "name": "",
          "type": "bool"
        }
      ],
      "stateMutability": "view",
      "type": "function"
    },
    {
      "inputs": [],
      "name": "symbol",
      "outputs": [
        {
          "internalType": "string",
          "name": "",
          "type": "string"
        }
      ],
      "stateMutability": "view",
      "type": "function"
    },
    {
      "inputs": [],
      "name": "totalSupply",
      "outputs": [
        {
          "internalType": "uint256",
          "name": "",
          "type": "uint256"
        }
      ],
      "stateMutability": "view",
      "type": "function"
    },
    {
      "inputs": [
        {
          "internalType": "address",
          "name": "_to",
          "type": "address"
        },
        {
          "internalType": "uint256",
          "name": "_value",
          "type": "uint256"
        }
      ],
      "name": "transfer",
      "outputs": [
        {
          "internalType": "bool",
          "name": "success",
          "type": "bool"
        }
      ],
      "stateMutability": "nonpayable",
      "type": "function"
    },
    {
      "inputs": [
        {
          "internalType": "address",
          "name": "_from",
          "type": "address"
        },
        {
          "internalType": "address",
          "name": "_to",
          "type": "address"
        },
        {
          "internalType": "uint256",
          "name": "_value",
          "type": "uint256"
        }
      ],
      "name": "transferFrom",
      "outputs": [
        {
          "internalType": "bool",
          "name": "success",
          "type": "bool"
        }
      ],
      "stateMutability": "nonpayable",
      "type": "function"
    }
  ],
  "bytecode": "0x608060405234801561000f575f5ffd5b50604051611dd3380380611dd3833981810160405281019061003191906101ff565b6040518060400160405280600481526020017f796f6461000000000000000000000000000000000000000000000000000000008152505f90816100749190610471565b506040518060400160405280600481526020017f594f444100000000000000000000000000000000000000000000000000000000815250600190816100b99190610471565b508060025f6101000a81548160ff021916908360ff1602179055508160038190555060025f9054906101000a900460ff16600a6100f6919061069c565b8261010191906106e6565b60048190555060045460065f3373ffffffffffffffffffffffffffffffffffffffff1673ffffffffffffffffffffffffffffffffffffffff1681526020019081526020015f20819055503360055f6101000a81548173ffffffffffffffffffffffffffffffffffffffff021916908373ffffffffffffffffffffffffffffffffffffffff1602179055505050610727565b5f5ffd5b5f819050919050565b6101a881610196565b81146101b2575f5ffd5b50565b5f815190506101c38161019f565b92915050565b5f60ff82169050919050565b6101de816101c9565b81146101e8575f5ffd5b50565b5f815190506101f9816101d5565b92915050565b5f5f6040838503121561021557610214610192565b5b5f610222858286016101b5565b9250506020610233858286016101eb565b9150509250929050565b5f81519050919050565b7f4e487b71000000000000000000000000000000000000000000000000000000005f52604160045260245ffd5b7f4e487b71000000000000000000000000000000000000000000000000000000005f52602260045260245ffd5b5f60028204905060018216806102b857607f821691505b6020821081036102cb576102ca610274565b5b50919050565b5f819050815f5260205f209050919050565b5f6020601f8301049050919050565b5f82821b905092915050565b5f6008830261032d7fffffffffffffffffffffffffffffffffffffffffffffffffffffffffffffffff826102f2565b61033786836102f2565b95508019841693508086168417925050509392505050565b5f819050919050565b5f61037261036d61036884610196565b61034f565b610196565b9050919050565b5f819050919050565b61038b83610358565b61039f61039782610379565b8484546102fe565b825550505050565b5f5f905090565b6103b66103a7565b6103c1818484610382565b505050565b5b818110156103e4576103d95f826103ae565b6001810190506103c7565b5050565b601f821115610429576103fa816102d1565b610403846102e3565b81016020851015610412578190505b61042661041e856102e3565b8301826103c6565b50505b505050565b5f82821c905092915050565b5f6104495f198460080261042e565b1980831691505092915050565b5f610461838361043a565b9150826002028217905092915050565b61047a8261023d565b67ffffffffffffffff81111561049357610492610247565b5b61049d82546102a1565b6104a88282856103e8565b5f60209050601f8311600181146104d9575f84156104c7578287015190505b6104d18582610456565b865550610538565b601f1984166104e7866102d1565b5f5b8281101561050e578489015182556001820191506020850194506020810190506104e9565b8683101561052b5784890151610527601f89168261043a565b8355505b6001600288020188555050505b505050505050565b7f4e487b71000000000000000000000000000000000000000000000000000000005f52601160045260245ffd5b5f8160011c9050919050565b5f5f8291508390505b60018511156105c25780860481111561059e5761059d610540565b5b60018516156105ad5780820291505b80810290506105bb8561056d565b9450610582565b94509492505050565b5f826105da5760019050610695565b816105e7575f9050610695565b81600181146105fd576002811461060757610636565b6001915050610695565b60ff84111561061957610618610540565b5b8360020a9150848211156106305761062f610540565b5b50610695565b5060208310610133831016604e8410600b841016171561066b5782820a90508381111561066657610665610540565b5b610695565b6106788484846001610579565b9250905081840481111561068f5761068e610540565b5b81810290505b9392505050565b5f6106a682610196565b91506106b1836101c9565b92506106de7fffffffffffffffffffffffffffffffffffffffffffffffffffffffffffffffff84846105cb565b905092915050565b5f6106f082610196565b91506106fb83610196565b925082820261070981610196565b915082820484148315176107205761071f610540565b5b5092915050565b61169f806107345f395ff3fe608060405234801561000f575f5ffd5b50600436106100e8575f3560e01c8063680e6c9b1161008a57806395d89b411161006457806395d89b4114610238578063a9059cbb14610256578063dd62ed3e14610286578063ee2de400146102b6576100e8565b8063680e6c9b146101e057806370a08231146101ea5780638da5cb5b1461021a576100e8565b806323b872dd116100c657806323b872dd14610158578063313ce5671461018857806338fed7cc146101a657806340c10f19146101c4576100e8565b806306fdde03146100ec578063095ea7b31461010a57806318160ddd1461013a575b5f5ffd5b6100f46102e6565b6040516101019190610eca565b60405180910390f35b610124600480360381019061011f9190610f7b565b610371565b6040516101319190610fd3565b60405180910390f35b6101426104cc565b60405161014f9190610ffb565b60405180910390f35b610172600480360381019061016d9190611014565b6104d2565b60405161017f9190610fd3565b60405180910390f35b610190610820565b60405161019d919061107f565b60405180910390f35b6101ae610832565b6040516101bb9190610ffb565b60405180910390f35b6101de60048036038101906101d99190610f7b565b610838565b005b6101e86108fa565b005b61020460048036038101906101ff9190611098565b610a11565b6040516102119190610ffb565b60405180910390f35b610222610a26565b60405161022f91906110d2565b60405180910390f35b610240610a4b565b60405161024d9190610eca565b60405180910390f35b610270600480360381019061026b9190610f7b565b610ad7565b60405161027d9190610fd3565b60405180910390f35b6102a0600480360381019061029b91906110eb565b610cdb565b6040516102ad9190610ffb565b60405180910390f35b6102d060048036038101906102cb9190611098565b610cfb565b6040516102dd9190610fd3565b60405180910390f35b5f80546102f290611156565b80601f016020809104026020016040519081016040528092919081815260200182805461031e90611156565b80156103695780601f1061034057610100808354040283529160200191610369565b820191905f5260205f20905b81548152906001019060200180831161034c57829003601f168201915b505050505081565b5f5f73ffffffffffffffffffffffffffffffffffffffff168373ffffffffffffffffffffffffffffffffffffffff16036103e0576040517f08c379a00000000000000000000000000000000000000000000000000000000081526004016103d7906111d0565b60405180910390fd5b8160075f3373ffffffffffffffffffffffffffffffffffffffff1673ffffffffffffffffffffffffffffffffffffffff1681526020019081526020015f205f8573ffffffffffffffffffffffffffffffffffffffff1673ffffffffffffffffffffffffffffffffffffffff1681526020019081526020015f20819055508273ffffffffffffffffffffffffffffffffffffffff163373ffffffffffffffffffffffffffffffffffffffff167f8c5be1e5ebec7d5bd14f71427d1e84f3dd0314c0f7b2291e5b200ac8c7c3b925846040516104ba9190610ffb565b60405180910390a36001905092915050565b60045481565b5f8160065f8673ffffffffffffffffffffffffffffffffffffffff1673ffffffffffffffffffffffffffffffffffffffff1681526020019081526020015f20541015610553576040517f08c379a000000000000000000000000000000000000000000000000000000000815260040161054a90611238565b60405180910390fd5b5f73ffffffffffffffffffffffffffffffffffffffff168373ffffffffffffffffffffffffffffffffffffffff16036105c1576040517f08c379a00000000000000000000000000000000000000000000000000000000081526004016105b8906111d0565b60405180910390fd5b8160075f8673ffffffffffffffffffffffffffffffffffffffff1673ffffffffffffffffffffffffffffffffffffffff1681526020019081526020015f205f3373ffffffffffffffffffffffffffffffffffffffff1673ffffffffffffffffffffffffffffffffffffffff1681526020019081526020015f2054101561067c576040517f08c379a0000000000000000000000000000000000000000000000000000000008152600401610673906112a0565b60405180910390fd5b8160065f8673ffffffffffffffffffffffffffffffffffffffff1673ffffffffffffffffffffffffffffffffffffffff1681526020019081526020015f205f8282546106c891906112eb565b925050819055508160065f8573ffffffffffffffffffffffffffffffffffffffff1673ffffffffffffffffffffffffffffffffffffffff1681526020019081526020015f205f82825461071b919061131e565b925050819055508160075f8673ffffffffffffffffffffffffffffffffffffffff1673ffffffffffffffffffffffffffffffffffffffff1681526020019081526020015f205f3373ffffffffffffffffffffffffffffffffffffffff1673ffffffffffffffffffffffffffffffffffffffff1681526020019081526020015f205f8282546107a991906112eb565b925050819055508273ffffffffffffffffffffffffffffffffffffffff168473ffffffffffffffffffffffffffffffffffffffff167fddf252ad1be2c89b69c2b068fc378daa952ba7f163c4a11628f55a4df523b3ef8460405161080d9190610ffb565b60405180910390a3600190509392505050565b60025f9054906101000a900460ff1681565b60035481565b60055f9054906101000a900473ffffffffffffffffffffffffffffffffffffffff1673ffffffffffffffffffffffffffffffffffffffff163373ffffffffffffffffffffffffffffffffffffffff16146108c7576040517f08c379a00000000000000000000000000000000000000000000000000000000081526004016108be9061139b565b60405180910390fd5b6108f68260025f9054906101000a900460ff16600a6108e691906114e8565b836108f19190611532565b610d18565b5050565b5f151560085f3373ffffffffffffffffffffffffffffffffffffffff1673ffffffffffffffffffffffffffffffffffffffff1681526020019081526020015f205f9054906101000a900460ff16151514610989576040517f08c379a0000000000000000000000000000000000000000000000000000000008152600401610980906115e3565b60405180910390fd5b6109ba3360025f9054906101000a900460ff16600a6109a891906114e8565b6003546109b59190611532565b610d18565b600160085f3373ffffffffffffffffffffffffffffffffffffffff1673ffffffffffffffffffffffffffffffffffffffff1681526020019081526020015f205f6101000a81548160ff021916908315150217905550565b6006602052805f5260405f205f915090505481565b60055f9054906101000a900473ffffffffffffffffffffffffffffffffffffffff1681565b60018054610a5890611156565b80601f0160208091040260200160405190810160405280929190818152602001828054610a8490611156565b8015610acf5780601f10610aa657610100808354040283529160200191610acf565b820191905f5260205f20905b815481529060010190602001808311610ab257829003601f168201915b505050505081565b5f8160065f3373ffffffffffffffffffffffffffffffffffffffff1673ffffffffffffffffffffffffffffffffffffffff1681526020019081526020015f20541015610b58576040517f08c379a0000000000000000000000000000000000000000000000000000000008152600401610b4f90611238565b60405180910390fd5b5f73ffffffffffffffffffffffffffffffffffffffff168373ffffffffffffffffffffffffffffffffffffffff1603610bc6576040517f08c379a0000000000000000000000000000000000000000000000000000000008152600401610bbd906111d0565b60405180910390fd5b8160065f3373ffffffffffffffffffffffffffffffffffffffff1673ffffffffffffffffffffffffffffffffffffffff1681526020019081526020015f205f828254610c1291906112eb565b925050819055508160065f8573ffffffffffffffffffffffffffffffffffffffff1673ffffffffffffffffffffffffffffffffffffffff1681526020019081526020015f205f828254610c65919061131e565b925050819055508273ffffffffffffffffffffffffffffffffffffffff163373ffffffffffffffffffffffffffffffffffffffff167fddf252ad1be2c89b69c2b068fc378daa952ba7f163c4a11628f55a4df523b3ef84604051610cc99190610ffb565b60405180910390a36001905092915050565b6007602052815f5260405f20602052805f5260405f205f91509150505481565b6008602052805f5260405f205f915054906101000a900460ff1681565b5f73ffffffffffffffffffffffffffffffffffffffff168273ffffffffffffffffffffffffffffffffffffffff1603610d86576040517f08c379a0000000000000000000000000000000000000000000000000000000008152600401610d7d9061164b565b60405180910390fd5b8060045f828254610d97919061131e565b925050819055508060065f8473ffffffffffffffffffffffffffffffffffffffff1673ffffffffffffffffffffffffffffffffffffffff1681526020019081526020015f205f828254610dea919061131e565b925050819055508173ffffffffffffffffffffffffffffffffffffffff165f73ffffffffffffffffffffffffffffffffffffffff167fddf252ad1be2c89b69c2b068fc378daa952ba7f163c4a11628f55a4df523b3ef83604051610e4e9190610ffb565b60405180910390a35050565b5f81519050919050565b5f82825260208201905092915050565b8281835e5f83830152505050565b5f601f19601f8301169050919050565b5f610e9c82610e5a565b610ea68185610e64565b9350610eb6818560208601610e74565b610ebf81610e82565b840191505092915050565b5f6020820190508181035f830152610ee28184610e92565b905092915050565b5f5ffd5b5f73ffffffffffffffffffffffffffffffffffffffff82169050919050565b5f610f1782610eee565b9050919050565b610f2781610f0d565b8114610f31575f5ffd5b50565b5f81359050610f4281610f1e565b92915050565b5f819050919050565b610f5a81610f48565b8114610f64575f5ffd5b50565b5f81359050610f7581610f51565b92915050565b5f5f60408385031215610f9157610f90610eea565b5b5f610f9e85828601610f34565b9250506020610faf85828601610f67565b9150509250929050565b5f8115159050919050565b610fcd81610fb9565b82525050565b5f602082019050610fe65f830184610fc4565b92915050565b610ff581610f48565b82525050565b5f60208201905061100e5f830184610fec565b92915050565b5f5f5f6060848603121561102b5761102a610eea565b5b5f61103886828701610f34565b935050602061104986828701610f34565b925050604061105a86828701610f67565b9150509250925092565b5f60ff82169050919050565b61107981611064565b82525050565b5f6020820190506110925f830184611070565b92915050565b5f602082840312156110ad576110ac610eea565b5b5f6110ba84828501610f34565b91505092915050565b6110cc81610f0d565b82525050565b5f6020820190506110e55f8301846110c3565b92915050565b5f5f6040838503121561110157611100610eea565b5b5f61110e85828601610f34565b925050602061111f85828601610f34565b9150509250929050565b7f4e487b71000000000000000000000000000000000000000000000000000000005f52602260045260245ffd5b5f600282049050600182168061116d57607f821691505b6020821081036111805761117f611129565b5b50919050565b7f496e76616c6964206164647265737300000000000000000000000000000000005f82015250565b5f6111ba600f83610e64565b91506111c582611186565b602082019050919050565b5f6020820190508181035f8301526111e7816111ae565b9050919050565b7f496e73756666696369656e742062616c616e63650000000000000000000000005f82015250565b5f611222601483610e64565b915061122d826111ee565b602082019050919050565b5f6020820190508181035f83015261124f81611216565b9050919050565b7f416c6c6f77616e636520657863656564656400000000000000000000000000005f82015250565b5f61128a601283610e64565b915061129582611256565b602082019050919050565b5f6020820190508181035f8301526112b78161127e565b9050919050565b7f4e487b71000000000000000000000000000000000000000000000000000000005f52601160045260245ffd5b5f6112f582610f48565b915061130083610f48565b9250828203905081811115611318576113176112be565b5b92915050565b5f61132882610f48565b915061133383610f48565b925082820190508082111561134b5761134a6112be565b5b92915050565b7f4f6e6c7920636f6e7472616374206f776e65722063616e206d696e74000000005f82015250565b5f611385601c83610e64565b915061139082611351565b602082019050919050565b5f6020820190508181035f8301526113b281611379565b9050919050565b5f8160011c9050919050565b5f5f8291508390505b600185111561140e578086048111156113ea576113e96112be565b5b60018516156113f95780820291505b8081029050611407856113b9565b94506113ce565b94509492505050565b5f8261142657600190506114e1565b81611433575f90506114e1565b8160018114611449576002811461145357611482565b60019150506114e1565b60ff841115611465576114646112be565b5b8360020a91508482111561147c5761147b6112be565b5b506114e1565b5060208310610133831016604e8410600b84101617156114b75782820a9050838111156114b2576114b16112be565b5b6114e1565b6114c484848460016113c5565b925090508184048111156114db576114da6112be565b5b81810290505b9392505050565b5f6114f282610f48565b91506114fd83611064565b925061152a7fffffffffffffffffffffffffffffffffffffffffffffffffffffffffffffffff8484611417565b905092915050565b5f61153c82610f48565b915061154783610f48565b925082820261155581610f48565b9150828204841483151761156c5761156b6112be565b5b5092915050565b7f596f75206861766520616c726561647920726563656976656420746f6b656e735f8201527f202c20636f6e746163742074686520737461666620666f72206d6f7265000000602082015250565b5f6115cd603d83610e64565b91506115d882611573565b604082019050919050565b5f6020820190508181035f8301526115fa816115c1565b9050919050565b7f43616e6e6f74206d696e7420746f207a65726f206164647265737300000000005f82015250565b5f611635601b83610e64565b915061164082611601565b602082019050919050565b5f6020820190508181035f83015261166281611629565b905091905056fea26469706673582212201f15a4b2f967587dc3b33a55acba54ab88d785f88c4c15d3576d4e828aec650164736f6c634300081c0033",
  "linkReferences": {},
  "deployedLinkReferences": {},
  "immutableReferences": {},
  "inputSourceName": "project/contracts/Yoda.sol",
  "buildInfoId": "solc-0_8_28-50f6479212bc78764a9b57b731b17207b130a49a"
}