{
  "_format": "hh3-artifact-1",
  "contractName": "PokemonFTCG",
  "sourceName": "contracts/pokemonsc.sol",
  "abi": [
    {
      "inputs": [
        {
          "internalType": "address",
          "name": "_yodaTokenAddr",
          "type": "address"
        }
      ],
      "stateMutability": "nonpayable",
      "type": "constructor"
    },
    {
      "anonymous": false,
      "inputs": [
        {
          "indexed": true,
          "internalType": "address",
          "name": "owner",
          "type": "address"
        },
        {
          "indexed": true,
          "internalType": "address",
          "name": "buyer",
          "type": "address"
        },
        {
          "indexed": false,
          "internalType": "uint256",
          "name": "tokenId",
          "type": "uint256"
        }
      ],
      "name": "Approval",
      "type": "event"
    },
    {
      "anonymous": false,
      "inputs": [
        {
          "indexed": true,
          "internalType": "address",
          "name": "owner",
          "type": "address"
        },
        {
          "indexed": true,
          "internalType": "address",
          "name": "operator",
          "type": "address"
        },
        {
          "indexed": false,
          "internalType": "bool",
          "name": "approved",
          "type": "bool"
        }
      ],
      "name": "ApprovedForAll",
      "type": "event"
    },
    {
      "anonymous": false,
      "inputs": [
        {
          "indexed": false,
          "internalType": "uint256",
          "name": "tokenId",
          "type": "uint256"
        },
        {
          "indexed": false,
          "internalType": "address",
          "name": "winner",
          "type": "address"
        },
        {
          "indexed": false,
          "internalType": "uint256",
          "name": "amount",
          "type": "uint256"
        }
      ],
      "name": "AuctionEnded",
      "type": "event"
    },
    {
      "anonymous": false,
      "inputs": [
        {
          "indexed": false,
          "internalType": "uint256",
          "name": "tokenId",
          "type": "uint256"
        },
        {
          "indexed": false,
          "internalType": "uint256",
          "name": "startingBid",
          "type": "uint256"
        },
        {
          "indexed": false,
          "internalType": "uint256",
          "name": "endTime",
          "type": "uint256"
        }
      ],
      "name": "AuctionStarted",
      "type": "event"
    },
    {
      "anonymous": false,
      "inputs": [
        {
          "indexed": false,
          "internalType": "uint256",
          "name": "tokenId",
          "type": "uint256"
        },
        {
          "indexed": false,
          "internalType": "uint256",
          "name": "price",
          "type": "uint256"
        },
        {
          "indexed": false,
          "internalType": "address",
          "name": "seller",
          "type": "address"
        }
      ],
      "name": "CardListed",
      "type": "event"
    },
    {
      "anonymous": false,
      "inputs": [
        {
          "indexed": false,
          "internalType": "uint256",
          "name": "tokenId",
          "type": "uint256"
        },
        {
          "indexed": false,
          "internalType": "string",
          "name": "name",
          "type": "string"
        },
        {
          "indexed": false,
          "internalType": "address",
          "name": "owner",
          "type": "address"
        }
      ],
      "name": "CardMinted",
      "type": "event"
    },
    {
      "anonymous": false,
      "inputs": [
        {
          "indexed": false,
          "internalType": "uint256",
          "name": "tokenId",
          "type": "uint256"
        },
        {
          "indexed": false,
          "internalType": "address",
          "name": "buyer",
          "type": "address"
        },
        {
          "indexed": false,
          "internalType": "uint256",
          "name": "price",
          "type": "uint256"
        }
      ],
      "name": "CardPurchased",
      "type": "event"
    },
    {
      "anonymous": false,
      "inputs": [
        {
          "indexed": false,
          "internalType": "uint256",
          "name": "tokenId",
          "type": "uint256"
        },
        {
          "indexed": false,
          "internalType": "address",
          "name": "bidder",
          "type": "address"
        },
        {
          "indexed": false,
          "internalType": "uint256",
          "name": "amount",
          "type": "uint256"
        }
      ],
      "name": "NewBid",
      "type": "event"
    },
    {
      "anonymous": false,
      "inputs": [
        {
          "indexed": true,
          "internalType": "address",
          "name": "from",
          "type": "address"
        },
        {
          "indexed": true,
          "internalType": "address",
          "name": "to",
          "type": "address"
        },
        {
          "indexed": false,
          "internalType": "uint256",
          "name": "tokenId",
          "type": "uint256"
        }
      ],
      "name": "Transfer",
      "type": "event"
    },
    {
      "inputs": [],
      "name": "_nextTokenId",
      "outputs": [
        {
          "internalType": "uint256",
          "name": "",
          "type": "uint256"
        }
      ],
      "stateMutability": "view",
      "type": "function"
    },
    {
      "inputs": [
        {
          "internalType": "uint256",
          "name": "",
          "type": "uint256"
        }
      ],
      "name": "activeAuctions",
      "outputs": [
        {
          "internalType": "uint256",
          "name": "",
          "type": "uint256"
        }
      ],
      "stateMutability": "view",
      "type": "function"
    },
    {
      "inputs": [
        {
          "internalType": "uint256",
          "name": "",
          "type": "uint256"
        }
      ],
      "name": "auctions",
      "outputs": [
        {
          "internalType": "uint256",
          "name": "startingPrice",
          "type": "uint256"
        },
        {
          "internalType": "uint256",
          "name": "currentPrice",
          "type": "uint256"
        },
        {
          "internalType": "uint256",
          "name": "endTime",
          "type": "uint256"
        },
        {
          "internalType": "address",
          "name": "highestBidder",
          "type": "address"
        },
        {
          "internalType": "uint256",
          "name": "highestBid",
          "type": "uint256"
        },
        {
          "internalType": "uint256",
          "name": "tokenId",
          "type": "uint256"
        },
        {
          "internalType": "address",
          "name": "seller",
          "type": "address"
        },
        {
          "internalType": "bool",
          "name": "active",
          "type": "bool"
        },
        {
          "internalType": "bool",
          "name": "ended",
          "type": "bool"
        },
        {
          "internalType": "bool",
          "name": "claimed",
          "type": "bool"
        },
        {
          "internalType": "bool",
          "name": "refunded",
          "type": "bool"
        }
      ],
      "stateMutability": "view",
      "type": "function"
    },
    {
      "inputs": [
        {
          "internalType": "uint256",
          "name": "",
          "type": "uint256"
        },
        {
          "internalType": "address",
          "name": "",
          "type": "address"
        }
      ],
      "name": "bidAmount",
      "outputs": [
        {
          "internalType": "uint256",
          "name": "",
          "type": "uint256"
        }
      ],
      "stateMutability": "view",
      "type": "function"
    },
    {
      "inputs": [
        {
          "internalType": "uint256",
          "name": "",
          "type": "uint256"
        },
        {
          "internalType": "uint256",
          "name": "",
          "type": "uint256"
        }
      ],
      "name": "bidders",
      "outputs": [
        {
          "internalType": "address",
          "name": "",
          "type": "address"
        }
      ],
      "stateMutability": "view",
      "type": "function"
    },
    {
      "inputs": [
        {
          "internalType": "uint256",
          "name": "cardId",
          "type": "uint256"
        }
      ],
      "name": "buyCard",
      "outputs": [],
      "stateMutability": "nonpayable",
      "type": "function"
    },
    {
      "inputs": [
        {
          "internalType": "uint256",
          "name": "tokenId",
          "type": "uint256"
        }
      ],
      "name": "cancelListing",
      "outputs": [],
      "stateMutability": "nonpayable",
      "type": "function"
    },
    {
      "inputs": [
        {
          "internalType": "string",
          "name": "",
          "type": "string"
        }
      ],
      "name": "cardToImage",
      "outputs": [
        {
          "internalType": "string",
          "name": "",
          "type": "string"
        }
      ],
      "stateMutability": "view",
      "type": "function"
    },
    {
      "inputs": [
        {
          "internalType": "uint256",
          "name": "",
          "type": "uint256"
        }
      ],
      "name": "cards",
      "outputs": [
        {
          "internalType": "string",
          "name": "name",
          "type": "string"
        },
        {
          "internalType": "uint256",
          "name": "attack",
          "type": "uint256"
        },
        {
          "internalType": "uint256",
          "name": "defense",
          "type": "uint256"
        },
        {
          "internalType": "uint256",
          "name": "hp",
          "type": "uint256"
        },
        {
          "internalType": "uint8",
          "name": "rarity",
          "type": "uint8"
        },
        {
          "internalType": "bool",
          "name": "Shiny",
          "type": "bool"
        }
      ],
      "stateMutability": "view",
      "type": "function"
    },
    {
      "inputs": [
        {
          "internalType": "uint256",
          "name": "tokenId",
          "type": "uint256"
        }
      ],
      "name": "claimNFT",
      "outputs": [],
      "stateMutability": "nonpayable",
      "type": "function"
    },
    {
      "inputs": [],
      "name": "contractOwner",
      "outputs": [
        {
          "internalType": "address",
          "name": "",
          "type": "address"
        }
      ],
      "stateMutability": "view",
      "type": "function"
    },
    {
      "inputs": [
        {
          "internalType": "uint256",
          "name": "tokenId",
          "type": "uint256"
        }
      ],
      "name": "endAuction",
      "outputs": [],
      "stateMutability": "nonpayable",
      "type": "function"
    },
    {
      "inputs": [],
      "name": "getActiveAuctions",
      "outputs": [
        {
          "internalType": "uint256[]",
          "name": "",
          "type": "uint256[]"
        }
      ],
      "stateMutability": "view",
      "type": "function"
    },
    {
      "inputs": [
        {
          "internalType": "uint256",
          "name": "tokenId",
          "type": "uint256"
        }
      ],
      "name": "getAuctionWinner",
      "outputs": [
        {
          "internalType": "address",
          "name": "",
          "type": "address"
        },
        {
          "internalType": "uint256",
          "name": "",
          "type": "uint256"
        }
      ],
      "stateMutability": "view",
      "type": "function"
    },
    {
      "inputs": [
        {
          "internalType": "uint256",
          "name": "tokenId",
          "type": "uint256"
        }
      ],
      "name": "getListing",
      "outputs": [
        {
          "internalType": "uint256",
          "name": "price",
          "type": "uint256"
        },
        {
          "internalType": "address",
          "name": "seller",
          "type": "address"
        }
      ],
      "stateMutability": "view",
      "type": "function"
    },
    {
      "inputs": [
        {
          "internalType": "address",
          "name": "",
          "type": "address"
        },
        {
          "internalType": "address",
          "name": "",
          "type": "address"
        }
      ],
      "name": "isApprovedForAll",
      "outputs": [
        {
          "internalType": "bool",
          "name": "",
          "type": "bool"
        }
      ],
      "stateMutability": "view",
      "type": "function"
    },
    {
      "inputs": [
        {
          "internalType": "uint256",
          "name": "cardId",
          "type": "uint256"
        },
        {
          "internalType": "uint256",
          "name": "price",
          "type": "uint256"
        }
      ],
      "name": "listCard",
      "outputs": [],
      "stateMutability": "nonpayable",
      "type": "function"
    },
    {
      "inputs": [
        {
          "internalType": "uint256",
          "name": "",
          "type": "uint256"
        }
      ],
      "name": "listings",
      "outputs": [
        {
          "internalType": "uint256",
          "name": "price",
          "type": "uint256"
        },
        {
          "internalType": "address",
          "name": "seller",
          "type": "address"
        }
      ],
      "stateMutability": "view",
      "type": "function"
    },
    {
      "inputs": [
        {
          "internalType": "address",
          "name": "to",
          "type": "address"
        },
        {
          "internalType": "string",
          "name": "name",
          "type": "string"
        },
        {
          "internalType": "uint256",
          "name": "attack",
          "type": "uint256"
        },
        {
          "internalType": "uint256",
          "name": "defense",
          "type": "uint256"
        },
        {
          "internalType": "uint256",
          "name": "hp",
          "type": "uint256"
        },
        {
          "internalType": "uint8",
          "name": "rarity",
          "type": "uint8"
        },
        {
          "internalType": "bool",
          "name": "shiny",
          "type": "bool"
        }
      ],
      "name": "mintCard",
      "outputs": [],
      "stateMutability": "nonpayable",
      "type": "function"
    },
    {
      "inputs": [],
      "name": "mintPrice",
      "outputs": [
        {
          "internalType": "uint256",
          "name": "",
          "type": "uint256"
        }
      ],
      "stateMutability": "view",
      "type": "function"
    },
    {
      "inputs": [
        {
          "internalType": "uint256",
          "name": "tokenId",
          "type": "uint256"
        }
      ],
      "name": "ownerOf",
      "outputs": [
        {
          "internalType": "address",
          "name": "",
          "type": "address"
        }
      ],
      "stateMutability": "view",
      "type": "function"
    },
    {
      "inputs": [
        {
          "internalType": "uint256",
          "name": "tokenId",
          "type": "uint256"
        },
        {
          "internalType": "uint256",
          "name": "amount",
          "type": "uint256"
        }
      ],
      "name": "placeBid",
      "outputs": [],
      "stateMutability": "nonpayable",
      "type": "function"
    },
    {
      "inputs": [
        {
          "internalType": "uint256",
          "name": "tokenId",
          "type": "uint256"
        }
      ],
      "name": "refundBids",
      "outputs": [],
      "stateMutability": "nonpayable",
      "type": "function"
    },
    {
      "inputs": [
        {
          "internalType": "uint256",
          "name": "tokenId",
          "type": "uint256"
        },
        {
          "internalType": "uint256",
          "name": "startingPrice",
          "type": "uint256"
        },
        {
          "internalType": "uint256",
          "name": "duration",
          "type": "uint256"
        }
      ],
      "name": "startAuction",
      "outputs": [],
      "stateMutability": "nonpayable",
      "type": "function"
    },
    {
      "inputs": [],
      "name": "yodaToken",
      "outputs": [
        {
          "internalType": "contract IERC20",
          "name": "",
          "type": "address"
        }
      ],
      "stateMutability": "view",
      "type": "function"
    }
  ],
  "bytecode": "0x6080604052348015600e575f5ffd5b50604051612362380380612362833981016040819052602b916057565b5f80546001600160a01b039092166001600160a01b031992831617905560018054909116331790556082565b5f602082840312156066575f5ffd5b81516001600160a01b0381168114607b575f5ffd5b9392505050565b6122d38061008f5f395ff3fe608060405234801561000f575f5ffd5b506004361061016d575f3560e01c8063790d8596116100d9578063ce606ee011610093578063de74e57b1161006e578063de74e57b146104a7578063e985e9c5146104d6578063ed36c52f14610513578063fe5c873a14610526575f5ffd5b8063ce606ee01461046c578063cf44b5d51461047f578063d1c1120514610494575f5ffd5b8063790d8596146103e95780638dc10768146103fc57806391e078bb14610421578063b9a2de3a14610434578063c70f5eaa14610447578063cdc645381461045a575f5ffd5b80633f7e2cec1161012a5780633f7e2cec1461027d5780634a60f6201461029d578063571a26a0146102a657806357c90de51461038d5780636352211e146103a05780636817c76c146103e0575f5ffd5b8063083d353b14610171578063107a274a146101a85780632d3f2b051461020a578063305a67a81461024257806331b62fca146102575780633b20340a1461026a575b5f5ffd5b61018461017f366004611d41565b610539565b604080516001600160a01b0390931683526020830191909152015b60405180910390f35b6101ed6101b6366004611d41565b5f90815260056020908152604091829020825180840190935280548084526001909101546001600160a01b03169290910182905291565b604080519283526001600160a01b0390911660208301520161019f565b610234610218366004611d73565b600e60209081525f928352604080842090915290825290205481565b60405190815260200161019f565b610255610250366004611d41565b610648565b005b610255610265366004611e4c565b61068f565b610255610278366004611d41565b6107de565b61029061028b366004611edd565b610a60565b60405161019f9190611f45565b61023460025481565b6103266102b4366004611d41565b600660208190525f918252604090912080546001820154600283015460038401546004850154600586015495909601549395929491936001600160a01b0391821693929181169060ff600160a01b8204811691600160a81b8104821691600160b01b8204811691600160b81b9004168b565b604080519b8c5260208c019a909a52988a01979097526001600160a01b0395861660608a0152608089019490945260a088019290925290921660c086015290151560e08501521515610100840152151561012083015215156101408201526101600161019f565b61025561039b366004611f5e565b610b03565b6103c86103ae366004611d41565b5f908152600860205260409020546001600160a01b031690565b6040516001600160a01b03909116815260200161019f565b61023460035481565b6102346103f7366004611d41565b610e92565b61040f61040a366004611d41565b610eb1565b60405161019f96959493929190611f7e565b61025561042f366004611fbe565b610f71565b610255610442366004611d41565b61122d565b610255610455366004611d41565b61134c565b5f546103c8906001600160a01b031681565b6001546103c8906001600160a01b031681565b6104876116da565b60405161019f9190611fe7565b6103c86104a2366004611f5e565b611730565b6101ed6104b5366004611d41565b60056020525f9081526040902080546001909101546001600160a01b031682565b6105036104e4366004612029565b600b60209081525f928352604080842090915290825290205460ff1681565b604051901515815260200161019f565b610255610521366004611f5e565b611764565b610255610534366004611d41565b611912565b5f8181526006602081815260408084208151610160810183528154815260018201549381019390935260028101549183019190915260038101546001600160a01b03908116606084015260048201546080840152600582015460a084015292015491821660c082015260ff600160a01b83048116151560e0830152600160a81b8304811615156101008301819052600160b01b840482161515610120840152600160b81b90930416151561014082015282916106345760405162461bcd60e51b8152602060048201526015602482015274105d58dd1a5bdb881b9bdd08195b991959081e595d605a1b60448201526064015b60405180910390fd5b806060015181608001519250925050915091565b5f818152600560205260409020600101546001600160a01b0316331461066c575f5ffd5b5f90815260056020526040812090815560010180546001600160a01b0319169055565b6001546001600160a01b031633146106de5760405162461bcd60e51b81526020600482015260126024820152712737ba1031b7b73a3930b1ba1037bbb732b960711b604482015260640161062b565b600280545f91826106ee83612065565b9190505590506106fe8882611b4f565b6040805160c08101825288815260208082018990528183018890526060820187905260ff8616608083015284151560a08301525f8481526004909152919091208151819061074c9082612101565b506020820151600182015560408083015160028301556060830151600383015560808301516004909201805460a09094015115156101000261ffff1990941660ff90931692909217929092179055517fc1858a9e1260d2afcf7bd0ebec9aed42b8c7f31f5ec3f434dc8c443640b46a1f906107cc9083908a908c906121bc565b60405180910390a15050505050505050565b5f81815260066020819052604090912090810154600160a81b900460ff1661083c5760405162461bcd60e51b8152602060048201526011602482015270105d58dd1a5bdb881b9bdd08195b991959607a1b604482015260640161062b565b6006810154600160b01b900460ff161561088a5760405162461bcd60e51b815260206004820152600f60248201526e105b1c9958591e4818db185a5b5959608a1b604482015260640161062b565b6006810154600160b81b900460ff16156108d95760405162461bcd60e51b815260206004820152601060248201526f105b1c9958591e481c99599d5b99195960821b604482015260640161062b565b5f828152600d602090815260408083208054825181850281018501909352808352919290919083018282801561093657602002820191905f5260205f20905b81546001600160a01b03168152600190910190602001808311610918575b509394505f93505050505b8151811015610a47575f82828151811061095d5761095d6121ec565b602090810291909101015160038501549091506001600160a01b03808316911614610a3e575f858152600e602090815260408083206001600160a01b03851684529091529020548015610a3c575f868152600e602090815260408083206001600160a01b03868116808652919093528184208490559254905163a9059cbb60e01b8152600481019390935260248301849052169063a9059cbb906044016020604051808303815f875af1158015610a16573d5f5f3e3d5ffd5b505050506040513d601f19601f82011682018060405250810190610a3a9190612200565b505b505b50600101610941565b5050600601805460ff60b81b1916600160b81b17905550565b805160208183018101805160078252928201919093012091528054610a849061207d565b80601f0160208091040260200160405190810160405280929190818152602001828054610ab09061207d565b8015610afb5780601f10610ad257610100808354040283529160200191610afb565b820191905f5260205f20905b815481529060010190602001808311610ade57829003601f168201915b505050505081565b5f82815260066020819052604090912090810154600160a01b900460ff16610b625760405162461bcd60e51b815260206004820152601260248201527141756374696f6e206e6f742061637469766560701b604482015260640161062b565b80600201544210610ba55760405162461bcd60e51b815260206004820152600d60248201526c105d58dd1a5bdb88195b991959609a1b604482015260640161062b565b80600101548211610be65760405162461bcd60e51b815260206004820152600b60248201526a42696420746f6f206c6f7760a81b604482015260640161062b565b5f838152600e602090815260408083203384529091528120549003610c33575f838152600d602090815260408220805460018101825590835291200180546001600160a01b031916331790555b5f546040516323b872dd60e01b8152336004820152306024820152604481018490526001600160a01b03909116906323b872dd906064016020604051808303815f875af1158015610c86573d5f5f3e3d5ffd5b505050506040513d601f19601f82011682018060405250810190610caa9190612200565b610ce85760405162461bcd60e51b815260206004820152600f60248201526e151c985b9cd9995c8819985a5b1959608a1b604482015260640161062b565b60038101546001600160a01b031615610d7a575f54600382015460048084015460405163a9059cbb60e01b81526001600160a01b0393841692810192909252602482015291169063a9059cbb906044016020604051808303815f875af1158015610d54573d5f5f3e3d5ffd5b505050506040513d601f19601f82011682018060405250810190610d789190612200565b505b5f838152600e602090815260408083203384529091529020548015610e0c575f5460405163a9059cbb60e01b8152336004820152602481018390526001600160a01b039091169063a9059cbb906044016020604051808303815f875af1158015610de6573d5f5f3e3d5ffd5b505050506040513d601f19601f82011682018060405250810190610e0a9190612200565b505b5f848152600e6020908152604080832033808552908352928190208690556003850180546001600160a01b0319168417905560048501869055600185018690558051878152918201929092529081018490527f558a0d5d5468d74b0db24c74eb348b42271c2ebb4c9e953ced38aaed95fa4361906060015b60405180910390a150505050565b600c8181548110610ea1575f80fd5b5f91825260209091200154905081565b60046020525f9081526040902080548190610ecb9061207d565b80601f0160208091040260200160405190810160405280929190818152602001828054610ef79061207d565b8015610f425780601f10610f1957610100808354040283529160200191610f42565b820191905f5260205f20905b815481529060010190602001808311610f2557829003601f168201915b505050506001830154600284015460038501546004909501549394919390925060ff8082169161010090041686565b5f8381526008602052604090205483906001600160a01b0316610fa65760405162461bcd60e51b815260040161062b9061221b565b5f8481526008602052604090205484906001600160a01b03163314610ffd5760405162461bcd60e51b815260206004820152600d60248201526c2737ba103a34329037bbb732b960991b604482015260640161062b565b5f8581526006602081905260409091200154600160a01b900460ff161561105f5760405162461bcd60e51b815260206004820152601660248201527541756374696f6e20616c72656164792061637469766560501b604482015260640161062b565b600c80546001810182555f919091527fdf6966c971051c3d54ec59162606531493a51404a002842f56009d7e5cf4a8c7018590556040805161016081018252858152602081018690529081016110b58542612248565b81525f6020808301829052604080840183905260608085018b905233608080870191909152600160a080880182905260c080890188905260e0808a01899052610100998a018990528f89526006808952988790208b518155978b015193880193909355948901516002870155928801516003860180546001600160a01b039283166001600160a01b0319909116179055918801516004860155918701516005850155918601519290930180549386015194860151610120870151610140909701511515600160b81b0260ff60b81b19971515600160b01b0260ff60b01b19921515600160a81b029290921661ffff60a81b19971515600160a01b026001600160a81b0319909716959094169490941794909417949094161791909117929092169190911790557f44c53be110c6aa83aa83cd02e351ed172359268272ee1b5d31c0fe48db35c6c785856112088642612248565b6040805193845260208401929092529082015260600160405180910390a15050505050565b5f81815260066020819052604090912090810154600160a01b900460ff1661128c5760405162461bcd60e51b815260206004820152601260248201527141756374696f6e206e6f742061637469766560701b604482015260640161062b565b80600201544210156112d85760405162461bcd60e51b8152602060048201526015602482015274105d58dd1a5bdb881b9bdd08195b991959081e595d605a1b604482015260640161062b565b60068101805461ffff60a01b1916600160a81b1790556112f782611c98565b60038101546004820154604080518581526001600160a01b0390931660208401528201527fd2aa34a4fdbbc6dff6a3e56f46e0f3ae2a31d7785ff3487aa5c95c642acea5019060600160405180910390a15050565b5f8181526008602052604090205481906001600160a01b03166113815760405162461bcd60e51b815260040161062b9061221b565b5f828152600860205260409020546001600160a01b03166113d65760405162461bcd60e51b815260206004820152600f60248201526e10d85c99081b9bdd081b5a5b9d1959608a1b604482015260640161062b565b5f8281526006602081905260409091200154600160a01b900460ff16156114315760405162461bcd60e51b815260206004820152600f60248201526e21b0b9321034b71030bab1ba34b7b760891b604482015260640161062b565b5f82815260056020908152604091829020825180840190935280548084526001909101546001600160a01b0316918301919091526114a35760405162461bcd60e51b815260206004820152600f60248201526e10d85c99081b9bdd081b1a5cdd1959608a1b604482015260640161062b565b60208101516001600160a01b031633036114ff5760405162461bcd60e51b815260206004820152601860248201527f43616e6e6f742062757920796f7572206f776e20636172640000000000000000604482015260640161062b565b5f8054602083015183516040516323b872dd60e01b81523360048201526001600160a01b03928316602482015260448101919091529116906323b872dd906064016020604051808303815f875af115801561155c573d5f5f3e3d5ffd5b505050506040513d601f19601f820116820180604052508101906115809190612200565b9050806115c65760405162461bcd60e51b8152602060048201526014602482015273165bd918481d1c985b9cd9995c8819985a5b195960621b604482015260640161062b565b6020808301515f86815260088352604080822080546001600160a01b031916331790556001600160a01b038316825260099093529182208054919261160a83612261565b9091555050335f90815260096020526040812080549161162983612065565b90915550505f858152600560209081526040808320928355600190920180546001600160a01b03191690558451825188815233928101929092528183015290517f5f0544350104105a633eb4702d5cfa369eb1b1e1f5e5be7a5f1856ac84390b4d9181900360600190a160405185815233906001600160a01b038316907fddf252ad1be2c89b69c2b068fc378daa952ba7f163c4a11628f55a4df523b3ef9060200160405180910390a35050505050565b6060600c80548060200260200160405190810160405280929190818152602001828054801561172657602002820191905f5260205f20905b815481526020019060010190808311611712575b5050505050905090565b600d602052815f5260405f208181548110611749575f80fd5b5f918252602090912001546001600160a01b03169150829050565b5f8281526008602052604090205482906001600160a01b03166117995760405162461bcd60e51b815260040161062b9061221b565b5f8381526008602052604090205483906001600160a01b031633146117f05760405162461bcd60e51b815260206004820152600d60248201526c2737ba103a34329037bbb732b960991b604482015260640161062b565b5f8481526006602081905260409091200154600160a01b900460ff161561184b5760405162461bcd60e51b815260206004820152600f60248201526e21b0b9321034b71030bab1ba34b7b760891b604482015260640161062b565b5f831161188e5760405162461bcd60e51b815260206004820152601160248201527005072696365206d757374206265203e203607c1b604482015260640161062b565b6040805180820182528481523360208083018281525f898152600583528590209351845551600190930180546001600160a01b0319166001600160a01b03909416939093179092558251878152918201869052918101919091527feec9fb041fa14d227fc0e64a3e630e1a685941c91dfb622450481abf5fc5a0e590606001610e84565b5f81815260066020819052604090912090810154600160a81b900460ff166119705760405162461bcd60e51b8152602060048201526011602482015270105d58dd1a5bdb881b9bdd08195b991959607a1b604482015260640161062b565b60038101546001600160a01b031633146119b95760405162461bcd60e51b815260206004820152600a6024820152692737ba103bb4b73732b960b11b604482015260640161062b565b6006810154600160b01b900460ff1615611a075760405162461bcd60e51b815260206004820152600f60248201526e105b1c9958591e4818db185a5b5959608a1b604482015260640161062b565b60068101545f83815260086020908152604080832080546001600160a01b031916331790556001600160a01b039093168083526009909152918120805491611a4e83612261565b9091555050335f908152600960205260408120805491611a6d83612065565b90915550505f5460048381015460405163a9059cbb60e01b81526001600160a01b0385811693820193909352602481019190915291169063a9059cbb906044016020604051808303815f875af1158015611ac9573d5f5f3e3d5ffd5b505050506040513d601f19601f82011682018060405250810190611aed9190612200565b5060068201805460ff60b01b1916600160b01b17905560405133906001600160a01b038316907fddf252ad1be2c89b69c2b068fc378daa952ba7f163c4a11628f55a4df523b3ef90611b429087815260200190565b60405180910390a3505050565b6001600160a01b038216611bb35760405162461bcd60e51b815260206004820152602560248201527f496e76616c696420616464726573732f206d696e7420746f207a65726f206164604482015264647265737360d81b606482015260840161062b565b5f818152600860205260409020546001600160a01b031615611c0d5760405162461bcd60e51b815260206004820152601360248201527210d85c9908185b1c9958591e481b5a5b9d1959606a1b604482015260640161062b565b6001600160a01b0382165f908152600960205260408120805491611c3083612065565b90915550505f81815260086020908152604080832080546001600160a01b0319166001600160a01b03871690811790915590518481529092917fddf252ad1be2c89b69c2b068fc378daa952ba7f163c4a11628f55a4df523b3ef910160405180910390a35050565b5f5b600c54811015611d3d5781600c8281548110611cb857611cb86121ec565b905f5260205f20015403611d3557600c8054611cd690600190612276565b81548110611ce657611ce66121ec565b905f5260205f200154600c8281548110611d0257611d026121ec565b5f91825260209091200155600c805480611d1e57611d1e612289565b600190038181905f5260205f20015f905590555050565b600101611c9a565b5050565b5f60208284031215611d51575f5ffd5b5035919050565b80356001600160a01b0381168114611d6e575f5ffd5b919050565b5f5f60408385031215611d84575f5ffd5b82359150611d9460208401611d58565b90509250929050565b634e487b7160e01b5f52604160045260245ffd5b5f82601f830112611dc0575f5ffd5b813567ffffffffffffffff811115611dda57611dda611d9d565b604051601f8201601f19908116603f0116810167ffffffffffffffff81118282101715611e0957611e09611d9d565b604052818152838201602001851015611e20575f5ffd5b816020850160208301375f918101602001919091529392505050565b8015158114611e49575f5ffd5b50565b5f5f5f5f5f5f5f60e0888a031215611e62575f5ffd5b611e6b88611d58565b9650602088013567ffffffffffffffff811115611e86575f5ffd5b611e928a828b01611db1565b96505060408801359450606088013593506080880135925060a088013560ff81168114611ebd575f5ffd5b915060c0880135611ecd81611e3c565b8091505092959891949750929550565b5f60208284031215611eed575f5ffd5b813567ffffffffffffffff811115611f03575f5ffd5b611f0f84828501611db1565b949350505050565b5f81518084528060208401602086015e5f602082860101526020601f19601f83011685010191505092915050565b602081525f611f576020830184611f17565b9392505050565b5f5f60408385031215611f6f575f5ffd5b50508035926020909101359150565b60c081525f611f9060c0830189611f17565b6020830197909752506040810194909452606084019290925260ff166080830152151560a090910152919050565b5f5f5f60608486031215611fd0575f5ffd5b505081359360208301359350604090920135919050565b602080825282518282018190525f918401906040840190835b8181101561201e578351835260209384019390920191600101612000565b509095945050505050565b5f5f6040838503121561203a575f5ffd5b61204383611d58565b9150611d9460208401611d58565b634e487b7160e01b5f52601160045260245ffd5b5f6001820161207657612076612051565b5060010190565b600181811c9082168061209157607f821691505b6020821081036120af57634e487b7160e01b5f52602260045260245ffd5b50919050565b601f8211156120fc57805f5260205f20601f840160051c810160208510156120da5750805b601f840160051c820191505b818110156120f9575f81556001016120e6565b50505b505050565b815167ffffffffffffffff81111561211b5761211b611d9d565b61212f81612129845461207d565b846120b5565b6020601f821160018114612161575f831561214a5750848201515b5f19600385901b1c1916600184901b1784556120f9565b5f84815260208120601f198516915b828110156121905787850151825560209485019460019092019101612170565b50848210156121ad57868401515f19600387901b60f8161c191681555b50505050600190811b01905550565b838152606060208201525f6121d46060830185611f17565b905060018060a01b0383166040830152949350505050565b634e487b7160e01b5f52603260045260245ffd5b5f60208284031215612210575f5ffd5b8151611f5781611e3c565b60208082526013908201527210d85c9908191bd95cc81b9bdd08195e1a5cdd606a1b604082015260600190565b8082018082111561225b5761225b612051565b92915050565b5f8161226f5761226f612051565b505f190190565b8181038181111561225b5761225b612051565b634e487b7160e01b5f52603160045260245ffdfea2646970667358221220cd27ab97d3ce18cee51ef220b27f61cc2f1e07d9b97a56fa8ef4ea349577cf2364736f6c634300081c0033",
  "linkReferences": {},
  "deployedLinkReferences": {},
  "immutableReferences": {},
  "inputSourceName": "project/contracts/pokemonsc.sol",
  "buildInfoId": "solc-0_8_28-f83b38dc30beb8b669407b247dca638bfebdf891"
}